:100000000A128A11EC2F00308A000408840A820741
:100010000034533431340034533432340034203417
:1000200000342C3400343A340034563400347C34F8
:0200300000349A
:1009CE008316031314080800F00070088312031333
:1009DE009300080083160313141CF62CF72CF12C2D
:1009EE0008000A128A11F1240A128A1183120313C3
:1009FE0013080800F000831203130C1E072D082D98
:100A0E00022D700899000800F30083160313871255
:100A1E00731D122D132D172D7208940087151B2D83
:100A2E007008720494008711730871048312031303
:100A3E009400080083160317880189018316031397
:100A4E008601071183120313860107300A128A11D9
:100A5E0069250A128A11831203130715F001F10199
:100A6E00F20120300A128A110B250A128A1108008F
:100A7E00F500F301F4015B2D7308750784000A126B
:100A8E008A1103200A128A110A128A1101250A12EA
:100A9E008A110130F3070318F40A0030F4071330FB
:100AAE00F200F20B582D5B2D7308750784000A12A5
:100ABE008A1103200A128A11003A031D672D682D30
:100ACE00432D0800F2009D2D8F30831603138F05E2
:100ADE00BC2D831603130F088F3910388F00BC2DD1
:100AEE008F30831603138F05BC2D831603130F0847
:100AFE008F3910388F00BC2D831603130F088F39D2
:100B0E0040388F00BC2D831603130F088F395038D1
:100B1E008F00BC2D7030831603138F04BC2D8316EB
:100B2E0003130F088F3960388F00BC2D7208F00048
:100B3E00F1017108003A0319A52D962D7008003A9F
:100B4E0003196B2D013A0319702D033A0319772DF2
:100B5E00013A03197C2D073A0319832D013A031923
:100B6E008A2D023A0319912D962D0F14080000308C
:100B7E00FC000030FB000030FA000030F900730872
:100B8E007204710470040319CD2DCE2D1B2EFD01A0
:100B9E00FD0ADE2D0130F8000310F00DF10DF20DFF
:100BAE00F30DF80BD32D0130F8007808FD07F31F75
:100BBE00E12DE22DD12D0130F8000310F90DFA0DC3
:100BCE00FB0DFC0DF80BE42D73087702031DF92DB8
:100BDE0072087602031DF92D71087502031DF92D99
:100BEE0070087402031CFC2DFD2D0C2E7008F402EF
:100BFE007108031C710FF5027208031C720FF602C6
:100C0E007308031C730FF702791401300310F30CF1
:100C1E00F20CF10CF00CFF3E031D0D2E0130FD0207
:100C2E00031D1A2E1B2EE22D7C08F3007B08F2000A
:100C3E007A08F1007908F0000800831203133208D5
:100C4E00031D2A2E2B2E582E2E08B3002F08B4006B
:100C5E003008B5003108B60006300310B30DB40DE0
:100C6E00B50DB60DFF3E031D342E3608F3003508C4
:100C7E00F2003408F1003308F0000030F7007A304B
:100C8E00F6001230F5000030F4000A128A11BE256B
:100C9E000A128A117008FF3E831603139900181169
:100CAE00842E2E08B3002F08B4003008B50031088A
:100CBE00B60004300310B30DB40DB50DB60DFF3EE6
:100CCE00031D612E3608F3003508F2003408F100DA
:100CDE003308F0000030F7007A30F6001230F500DD
:100CEE000030F4000A128A11BE250A128A11700809
:100CFE00FF3E831603139900181518139816181231
:100D0E0083120313981718131816181198108316B8
:100D1E0003138717071308000A128A1121250A12D6
:100D2E008A11831203130711033083120313B800C1
:100D3E009730B700B70BA12EB80BA12E00300A12B8
:100D4E008A11EB240A128A110A128A11F8240A1245
:100D5E008A1183120313B7003708AA000A128A11E8
:100D6E00E7240A128A11033083120313B800973056
:100D7E00B700B70BC02EB80BC02E83120313071586
:100D8E000711033083120313B8009730B700B70B67
:100D9E00CE2EB80BCE2E00300A128A11EB240A1278
:100DAE008A110A128A11F8240A128A118312031365
:100DBE00B7003708A900033083120313B800973029
:100DCE00B700B70BE82EB80BE82E831203130715E6
:100DDE000711033083120313B8009730B700B70B17
:100DEE00F62EB80BF62E8312031328080A128A1158
:100DFE00EB240A128A110A128A11F8240A128A1195
:100E0E0083120313B7003708A800033083120313AD
:100E1E00B8009730B700B70B122FB80B122F8312F2
:100E2E00031307150030B1000030B0002530AF00BD
:100E3E008030AE00B201B20A0A128A1124260A12BA
:100E4E008A11033083120313B7003708F1000F30F5
:100E5E000A128A113F250A128A11063083120313D1
:100E6E00B7003708F10001300A128A113F250A1225
:100E7E008A11033083120313B7003708F1000B30C9
:100E8E000A128A113F250A128A11033083120313A4
:100E9E00B7003708F10007300A128A113F250A12EF
:100EAE008A11063083120313B7003708F1002A089F
:100EBE000A128A113F250A128A1103308312031374
:100ECE00B7003708F1000D300A128A113F250A12B9
:100EDE008A11033083120313B7003708F10009306B
:100EEE000A128A113F250A128A1103308312031344
:100EFE00B7003708F10007300A128A113F250A128F
:100F0E008A11033083120313B7003708F1000F3034
:100F1E000A128A113F250A128A1106308312031310
:100F2E00B7003708F10004300A128A113F250A1261
:100F3E008A11033083120313B7003708F1000B3008
:100F4E000A128A113F250A128A11033083120313E3
:100F5E00B7003708F10007300A128A113F250A122E
:100F6E008A11063083120313B7003708F1002908DF
:100F7E000A128A113F250A128A11033083120313B3
:100F8E00B7003708F1000D300A128A113F250A12F8
:100F9E008A11033083120313B7003708F1000930AA
:100FAE000A128A113F250A128A1103308312031383
:100FBE00B7003708F10007300A128A113F250A12CE
:100FCE008A11982E0A128A11002883120313A00187
:100FDE00A101A201A301A401A501A601A701A801D7
:100FEE00A901AA01AB01AC01AD0183010A128A115C
:020FFE00932E30
:04400E00C420FF3F8C
:00000001FF
