:060000000A128A11FC2F18
:100E1000F000700883120313930008008316031375
:100E2000141C132F142F0E2F08000A128A110E27DC
:100E30000A128A118312031313080800F3008316A1
:100E400003138712731D252F262F2A2F7208940053
:100E500087152E2F7008720494008711730871048F
:100E60008312031394000800831603178801890175
:100E70008316031386018801071183120313860169
:100E8000880107300A128A11A7270A128A118312D1
:100E900003130715F001F101F20120300A128A1143
:100EA0001E270A128A1108000A128A1134270A1210
:100EB0008A118312031307110330F5009730F400F1
:100EC000F40B602FF50B602F652F01300A128A1189
:100ED00008270A128A110A128A1115270A128A1182
:100EE0008312031388000330F5009730F400F40BED
:100EF000772FF50B772F7C2F83120313071507111C
:100F00000330F5009730F400F40B842FF50B842F99
:100F1000892F02300A128A1108270A128A110A122E
:100F20008A1115270A128A118312031386000330CF
:100F3000F5009730F400F40B9B2FF50B9B2FA02F9F
:100F4000831203130715592F0A128A110028F20081
:100F5000DB2F8F30831603138F05FA2F83160313AD
:100F60000F088F3910388F00FA2F8F308316031334
:100F70008F05FA2F831603130F088F3910388F004F
:100F8000FA2F831603130F088F3940388F00FA2F7A
:100F9000831603130F088F3950388F00FA2F7030E3
:100FA000831603138F04FA2F831603130F088F3948
:100FB00060388F00FA2F7208F000F1017108003AD2
:100FC0000319E32FD42F7008003A0319A92F013A0F
:100FD0000319AE2F033A0319B52F013A0319BA2F9B
:100FE000073A0319C12F013A0319C82F023A03190E
:100FF000CF2FD42F0F14080083010A128A11542F07
:04400E00C420FF3F8C
:00000001FF
