:060000000A128A11EC2F28
:10000C00F000831203130C1E0C280D28072870080F
:10001C00990008000310720D730DF4007408FA00B7
:10002C007A08031D1A281B2824280030F3000030FE
:10003C00F2000030F1000030F00089287008F40064
:10004C007108F5007208F6007308F7001F300310F2
:10005C00F70CF60CF50CF40CFF3E031D2D28740860
:10006C00F8007808F900F217FF30F005FF30F105C1
:10007C00FF30F2050030F3059630FA02FA1F4728DC
:10008C00482862287A08803A973E03184E284F2851
:10009C0050281B2801300310F30CF20CF10CF00C5F
:1000AC00FF3E031D51280130F4007408FA07031DAC
:1000BC00602861285028792820307A02031C672890
:1000CC00682874281B280130F4000310F00DF10D82
:1000DC00F20DF30DF40B6B280130FA027A08031DB4
:1000EC00782879286928790803197D287E28892899
:1000FC00F009F109F209F309F00A0319F10A0319DD
:10010C00F20A0319F30A0800831203134F0880390B
:10011C00D4005408D9004F08D4005407D500550812
:10012C00DF00CE1F9A289B289C285F145F080319B8
:10013C00A028A128B0285F0A031DA528A628AE2850
:10014C000030CF000030CE000030CD000030CC00AD
:10015C00CE17B8280030CF000030CE000030CD00D4
:10016C000030CC0053088039D4005408D906530809
:10017C00D4005407D5005508DE00D21FC628C72866
:10018C00C8285E145E080319CC28CD28DC285E0A2A
:10019C00031DD128D228DA280030D3000030D20039
:1001AC000030D1000030D000D217E4280030D3004A
:1001BC000030D2000030D1000030D0005E080319AE
:1001CC00E828E928EE285F08031DED28EE28F7281B
:1001DC000030CF000030CE000030CD000030CC001D
:1001EC00EA2B4C08D4005408F00052080A168A1165
:1001FC00C4250A128A11710883120313E5007008D2
:10020C00E4006408D400D501D601D7015708DD00FD
:10021C005608DC005508DB005408DA006508D400E9
:10022C00D501D601D7015708E3005608E20055085E
:10023C00E1005408E0004D08D4005408F0005108C7
:10024C000A168A11C4250A128A1171088312031323
:10025C00E5007008E4006408D400D501D601D7018C
:10026C005408DA07550803110318013E03193F29F6
:10027C00DB07560803110318013E03194629DC0756
:10028C00570803110318013E03194D29DD076508B2
:10029C00D400D501D601D7015408E0075508031145
:1002AC000318013E03195B29E107560803110318D3
:1002BC00013E03196229E207570803110318013E96
:1002CC0003196929E3074E08D4005408F0005008BC
:1002DC000A168A11C4250A128A1171088312031393
:1002EC00E5007008E4006408D400D501D601D701FC
:1002FC005408DA07550803110318013E031987291E
:10030C00DB07560803110318013E03198E29DC077D
:10031C00570803110318013E03199529DD076508D9
:10032C00D400D501D601D7015408E00755080311B4
:10033C000318013E0319A329E107560803110318FA
:10034C00013E0319AA29E207570803110318013EBD
:10035C000319B129E3070830D4000310DA0DDB0DC3
:10036C00DC0DDD0DD40BB3294D08D4005408F0007E
:10037C0050080A168A11C4250A128A1171088312B0
:10038C000313E5007008E4006408D4006508D50088
:10039C00D601D7015408DA07550803110318013E9A
:1003AC000319D929DB07560803110318013E031959
:1003BC00E029DC07570803110318013E0319E7294C
:1003CC00DD074C08D4005408F00051080A168A11B5
:1003DC00C4250A128A11710883120313E5007008F0
:1003EC00E4006408D4006508D500D601D701540890
:1003FC00DA07550803110318013E0319062ADB0717
:10040C00560803110318013E03190D2ADC0757087F
:10041C0003110318013E0319142ADD070830D40018
:10042C000310DA0DDB0DDC0DDD0DD40B162A4C0898
:10043C00D4005408F00050080A168A11C4250A1278
:10044C008A11710883120313E5007008E400640834
:10045C00D4006508D500D601D7015408DA07550831
:10046C0003110318013E03193C2ADB07560803113C
:10047C000318013E0319432ADC075708031103181C
:10048C00013E03194A2ADD074D08D4005408F00038
:10049C0052080A168A11C4250A128A11710883128D
:1004AC000313E5007008E4006408D4006508D50067
:1004BC00D601D7015408E007550803110318013E73
:1004CC000319692AE107560803110318013E0319A1
:1004DC00702AE207570803110318013E0319772A03
:1004EC00E3074E08D4005408F00051080A168A118C
:1004FC00C4250A128A11710883120313E5007008CF
:10050C00E4006408D4006508D500D601D70154086E
:10051C00E007550803110318013E0319962AE10759
:10052C00560803110318013E03199D2AE2075708C8
:10053C0003110318013E0319A42AE3074E08D40043
:10054C005408F00052080A168A11C4250A128A119E
:10055C00710883120313E5007008E4006408D400EA
:10056C006508D500D601D70108300310D40DD50D80
:10057C00D60DD70DFF3E031DBB2A5408E0075508C6
:10058C0003110318013E0319CC2AE1075608031185
:10059C000318013E0319D32AE20757080311031865
:1005AC00013E0319DA2AE3075A08D4005B08D50088
:1005BC005C08D6005D08D70018300310D70CD60C99
:1005CC00D50CD40CFF3E031DE32A5408E007550854
:1005DC0003110318013E0319F42AE107560803110D
:1005EC000318013E0319FB2AE207570803110318ED
:1005FC00013E0319022BE3070830D4000310DA0D77
:10060C00DB0DDC0DDD0DD40B042B5F085E07D40075
:10061C00D501D50D5408823EE40055080318013E5F
:10062C00FF3EE500362B0130D4000310E00DE10D48
:10063C00E20DE30DD40B1B2BDD1F252B262B272BBB
:10064C0060140130D4000310DA0DDB0DDC0DDD0D70
:10065C00D40B292BFF30E4070318E50AFF30E5071C
:10066C00E21F392B3A2B192BDE01DD1F3E2B3F2BC2
:10067C005B2BFF305A05D400FF305B05D500FF30F3
:10068C005C05D6007F305D05D7005708560455042D
:10069C0054040319522B532B562BDE01DE0A5B2B11
:1006AC00601C592B5A2B5B2B532B5E0803195F2BA9
:1006BC00602B912B0130E007003003180130E1076B
:1006CC00003003180130E207003003180130E30753
:1006DC00631C712B722B912B6008D4006108D50020
:1006EC006208D6006308D7000130D800570DD70C2C
:1006FC00D60CD50CD40CD80B7C2B5708E300560821
:10070C00E2005508E1005408E0000130E40703184A
:10071C00E50A0030E5076508803AFF0080307F026B
:10072C00031D9A2BFF306402031C9D2B9E2BA92BBF
:10073C007F3083120313E3008030E2000030E100CD
:10074C000030E000DE2B831203136508803AFF00B3
:10075C0080307F02031DB42B013064020318B72BC9
:10076C00B82BC42B003083120313E3000030E200DB
:10077C000030E1000030E000D901DE2B83120313BE
:10078C006408D4005408DF00FF30E005FF30E105B9
:10079C007F30E2050030E3055F1CD52BD62BD72B21
:1007AC00E2175F08D4000310540CD5005508E30081
:1007BC005908D4005408E3046308CF006208CE0043
:1007CC006108CD006008CC000800831203136B088D
:1007DC00F3006A08F2006908F1006808F0000A12D8
:1007EC008A1110200A128A11710883160313A400AF
:1007FC007008A300AD01AE01AB01AC010130AF003C
:10080C000030B000831203136B08F3006A08F20087
:10081C006908F1006808F0000030F7000030F600BD
:10082C000030F5000030F4000A168A115E270A1217
:10083C008A110318222C232C732CBF308312031320
:10084C00CF008030CE000030CD000030CC006B08E3
:10085C00D3006A08D2006908D1006808D0000A12D7
:10086C008A118A200A128A11831203134F08EB0093
:10087C004E08EA004D08E9004C08E8002D308316BC
:10088C000313A00083120313660884008317671CEC
:10089C00831383160313200880000130AB07031861
:1008AC00AC0A0030AC07732C0A30F0000030F100B9
:1008BC002408F3002308F2000A168A11F7260A12FC
:1008CC008A11710883160313A4007008A300013069
:1008DC00AD070318AE0A0030AE07831603132308C6
:1008EC002404031D7A2C7B2C5A2C982D2D032E04BA
:1008FC00031D812C822C872C0130AF000030B000FE
:10090C00C12C0230A5000030A600B32C83160313B3
:10091C00300883120313A100831603132F088312CC
:10092C000313A0000A30A2000030A3000A168A119B
:10093C00EB250A128A118312031321088316031361
:10094C00B00083120313200883160313AF00013089
:10095C00A5070318A60A0030A6072E08803AA000A7
:10096C002608803A2002031DBD2C25082D020318F1
:10097C00C02CC12C8C2C831603132F088312031349
:10098C00A40083160313300883120313A500003050
:10099C00A51BFF30A600A70001300A128A1574208F
:1009AC000A128A11831203132708B5002608B40013
:1009BC002508B3002408B2006B08B9006A08B80017
:1009CC006908B7006808B6000A128A1530210A12A5
:1009DC008A1183120313350883160313AA0083129A
:1009EC000313340883160313A9008312031333086B
:1009FC0083160313A8008312031332088316031300
:100A0C00A700300883120313A300831603132F08C7
:100A1C0083120313A200831603132A08F300290878
:100A2C00F2002808F1002708F0000A128A111020A1
:100A3C000A128A11710883120313A1007008A00016
:100A4C000A168A11EB250A128A1183120313200845
:100A5C00A4002108A5000030A51BFF30A600A700AC
:100A6C0001300A128A1574200A128A118312031398
:100A7C002708B5002608B4002508B3002408B200E6
:100A8C006B08B9006A08B8006908B7006808B600B6
:100A9C000A168A11A0250A128A118312031335082B
:100AAC00EB003408EA003308E9003208E80083164A
:100ABC0003132A08F3002908F2002808F10027087C
:100ACC00F0000A128A1110200A128A117008303EA6
:100ADC0083160313A0002B088312031366078316D7
:100AEC000313A1002C0803182C0A831203136707A5
:100AFC0083160313A200210884008317221C83137E
:100B0C00200880000130AB070318AC0A0030AC079A
:100B1C00FF30AD070318AE0AFF30AE070130AF004F
:100B2C000030B0002D082E04031D9D2D9E2D7C2C15
:100B3C002E30A0002B0883120313660783160313B1
:100B4C00A1002C0803182C0A8312031367078316C1
:100B5C000313A200210884008317221C831320088E
:100B6C0080000130AB070318AC0A0030AC07013031
:100B7C00A5000030A600E92D83160313300883125C
:100B8C000313A100831603132F0883120313A00071
:100B9C000A30A2000030A3000A168A11EB250A12B3
:100BAC008A1183120313210883160313B0008312D6
:100BBC000313200883160313AF000130A507031895
:100BCC00A60A0030A607831203136D08803A831619
:100BDC000313A0002608803A2002031DF92D2508D6
:100BEC00831203136C020318FC2DFD2DC22D8316EA
:100BFC0003132F0883120313A40083160313300866
:100C0C0083120313A5000030A51BFF30A600A7001C
:100C1C0001300A128A1574200A128A1183120313E6
:100C2C002708CF002608CE002508CD002408CC00CC
:100C3C006B08F3006A08F2006908F1006808F0001C
:100C4C000A128A1110200A128A11700883120313D7
:100C5C00A4007108A5000030A51BFF30A600A7005A
:100C6C0001300A128A1574200A128A118312031396
:100C7C002708B5002608B4002508B3002408B200E4
:100C8C006B08B9006A08B8006908B7006808B600B4
:100C9C000A168A11A0250A128A1183120313350829
:100CAC00D3003408D2003308D1003208D0000A1225
:100CBC008A118A200A128A11831203134F08831691
:100CCC000313AA00831203134E0883160313A900FF
:100CDC00831203134D0883160313A8008312031306
:100CEC004C0883160313A7002A0883120313EB0086
:100CFC0083160313290883120313EA0083160313C4
:100D0C00280883120313E9008316031327088312A0
:100D1C000313E8006B08F3006A08F2006908F1009D
:100D2C006808F0000A128A1110200A128A11013088
:100D3C0083160313AF000030B000831203136D0849
:100D4C0083160313AE00831203136C08831603136C
:100D5C00AD00CC2F2D032E04031DB52EB62EBB2EAD
:100D6C000130AF000030B000F52E0230A50000308D
:100D7C00A600E72E83160313300883120313A10079
:100D8C00831603132F0883120313A0000A30A2004A
:100D9C000030A3000A168A11EB250A128A1183125D
:100DAC000313210883160313B000831203132008C6
:100DBC0083160313AF000130A5070318A60A0030F1
:100DCC00A6072E08803AA0002608803A2002031DB0
:100DDC00F12E25082D020318F42EF52EC02E8316A5
:100DEC0003132F0883120313A40083160313300874
:100DFC0083120313A5000030A51BFF30A600A7002B
:100E0C0001300A128A1574200A128A1183120313F4
:100E1C002708B5002608B4002508B3002408B20042
:100E2C006B08B9006A08B8006908B7006808B60012
:100E3C000A128A1530210A128A11831203133508FB
:100E4C0083160313AA0083120313340883160313A7
:100E5C00A90083120313330883160313A80083120B
:100E6C000313320883160313A700300883120313ED
:100E7C00A300831603132F0883120313A2008316F7
:100E8C0003132A08F3002908F2002808F1002708A8
:100E9C00F0000A128A1110200A128A1171088312AA
:100EAC000313A1007008A0000A168A11EB250A1280
:100EBC008A11831203132008A4002108A500003016
:100ECC00A51BFF30A600A70001300A128A1574205A
:100EDC000A128A11831203132708B5002608B400DE
:100EEC002508B3002408B2006B08B9006A08B800E2
:100EFC006908B7006808B6000A168A11A0250A12FC
:100F0C008A11831203133508EB003408EA00330806
:100F1C00E9003208E800831603132A08F3002908B5
:100F2C00F2002808F1002708F0000A128A1110209C
:100F3C000A128A117008303E83160313A0002B0886
:100F4C0083120313660783160313A1002C080318DE
:100F5C002C0A83120313670783160313A2002108BC
:100F6C0084008317221C8313200880000130AB07F8
:100F7C000318AC0A0030AC07FF30AD070318AE0AFB
:100F8C00FF30AE070130AF000030B0002D082E044A
:100F9C00031DD12FD22FB02E0A30A0002B088312A4
:100FAC000313660783160313A1002C0803182C0ADD
:100FBC0083120313670783160313A200210884000E
:100FCC008317221C8313200880000800831203134C
:100FDC00EE01EF0183160313B501B601B701B80199
:100FEC00B901BA01BB01BC01BD01BE0183010A12EA
:040FFC008A150D2B1A
:10100A00831203132408031D0B280C2839282008EF
:10101A00A5002108A6002208A7002308A800063078
:10102A000310A50DA60DA70DA80DFF3E031D15283B
:10103A002808F3002708F2002608F1002508F00026
:10104A000030F7007A30F6001230F5000030F40074
:10105A000A168A1191260A128A157008FF3E83160B
:10106A0003139900181165282008A5002108A60075
:10107A002208A7002308A80004300310A50DA60D16
:10108A00A70DA80DFF3E031D42282808F3002708D4
:10109A00F2002608F1002508F0000030F7007A3047
:1010AA00F6001230F5000030F4000A168A11912673
:1010BA000A128A157008FF3E831603139900181541
:1010CA001813981618128312031398171813181660
:1010DA001811981083160313871707130800831231
:1010EA000313AC002C0803197B287C289028A71F1F
:1010FA007F28802890282409AE002509AF002609F8
:10110A00B0002709B100AE0A0319AF0A0319B00AE1
:10111A000319B10A98282708B1002608B000250843
:10112A00AF002408AE002708260425042404031D62
:10113A009F28A028A9280030A7000030A600003068
:10114A00A5000030A4002F299630A8002808AD0079
:10115A00BB280130A8002808AD0701300310B10CE4
:10116A00B00CAF0CAE0CFF3E031DB328FE303105A8
:10117A00031DC028C128AE28DD280130A800280890
:10118A00AD070130AE07003003180130AF07003059
:10119A0003180130B007003003180130B1070130DD
:1011AA000310B10CB00CAF0CAE0CFF3E031DD528DA
:1011BA00FF303105031DE228E328C228EF28013059
:1011CA00AD020130A8000310AE0DAF0DB00DB10D88
:1011DA00A80BE828B01BF228F328F92802302D02C0
:1011EA000318F828F928E4282D18FC28FD280529D1
:1011FA00FF30AE05FF30AF057F30B005FF30B105D7
:10120A000310AD0C2D08A800A901AA01AB011830E2
:10121A000310A80DA90DAA0DAB0DFF3E031D0D2944
:10122A002808AE042908AF042A08B0042B08B10420
:10123A002C080319212922292729A71F252926290C
:10124A002729B1173108A7003008A6002F08A500E2
:10125A002E08A40008008312031339088039BA0043
:10126A003A08C3003908BA003A07BB003B08CA006B
:10127A00B81F4029412942294A144A080319462914
:10128A00472957294A0A031D4B294C29542900305A
:10129A00B9000030B8000030B7000030B600B81707
:1012AA00B9015F290030B9000030B8000030B7003A
:1012BA000030B60035088039BA003A08C306350846
:1012CA00BA003A07BB003B08CB00B41F6D296E2950
:1012DA006F294B144B0803197329742984294B0A63
:1012EA00031D7829792981290030B5000030B4001E
:1012FA000030B3000030B200B417B5018C290030B9
:10130A00B5000030B4000030B3000030B200350838
:10131A00340433043204031D93299429AD2900307F
:10132A00B9000030B8000030B7000030B600803095
:10133A00B8047F30B9044308BA003A08B904390836
:10134A00B5003808B4003708B3003608B2000C2BD1
:10135A004A08031DB129B229BB290030B500003063
:10136A00B4000030B3000030B2000C2B4A08BA00B7
:10137A00BB013B08BD004B083A02BC00031CBD037D
:10138A003C087F3EC4003D080318013E003EC500EC
:10139A003908C2003808C1003708C0003608BF0043
:1013AA000030B9000030B8000030B7000030B60095
:1013BA000030C9000030C8000030C7000030C60045
:1013CA00CB01312A4B080319EB29EC290C2A0130ED
:1013DA00BA000310BF0DC00DC10DC20DBA0BEE2924
:1013EA000130BA000310B60DB70DB80DB90DBA0B1E
:1013FA00F729C91F012A022A032A36140130BA0022
:10140A000310C60DC70DC80DC90DBA0B052A35083C
:10141A004202031D1A2A34084102031D1A2A3308FC
:10142A004002031D1A2A32083F02031C1D2A1E2AE3
:10143A002D2A49173208BF023308031C330FC00292
:10144A003408031C340FC1023508031C350FC202CD
:10145A000130BA003A08CB071A304B02031C362A6D
:10146A00372AE7294208410440043F0403193E2A67
:10147A003F2A5E2A46145E2A0130BA000310B60DCE
:10148A00B70DB80DB90DBA0B432AC91F4D2A4E2AFA
:10149A004F2A36140130BA000310C60DC70DC80D05
:1014AA00C90DBA0B512AFF30C4070318C50AFF3009
:1014BA00C507B81F612A622A412ACB01C91F662AB9
:1014CA00672A832AFF304605BA00FF304705BB006A
:1014DA00FF304805BC007F304905BD003D083C048B
:1014EA003B043A0403197A2A7B2A7E2ACB01CB0AC7
:1014FA00832A361C812A822A832A7B2A4B080319CB
:10150A00872A882AB92A0130B60700300318013021
:10151A00B707003003180130B8070030031801304C
:10152A00B907391C992A9A2AB92A3608BA003708FB
:10153A00BB003808BC003908BD000130BE003D0DB3
:10154A00BD0CBC0CBB0CBA0CBE0BA42A3D08B900DE
:10155A003C08B8003B08B7003A08B6000130C40797
:10156A000318C50A0030C5074508803AFF008030D5
:10157A007F02031DC22AFF304402031CC52AC62A61
:10158A00D42AFF3083120313C4000030C500003090
:10159A00B9000030B8000030B7000030B60083123E
:1015AA0003134508803AFF0080307F02031DDF2ABB
:1015BA00013044020318E22AE32AF02A83120313B1
:1015CA00C401C5010030B9000030B8000030B700CE
:1015DA000030B600C301831203134408BA003A0864
:1015EA00CA004A1CF92AFA2AFC2AB817002B7F30AB
:1015FA00BA003A08B8054A08BA0003103A0CBB0008
:10160A003B08B9004308BA003A08B904A4290800FB
:10161A000A168A1183250A128A15831203130711DF
:10162A00033083160313B2009730B100B10B1B2BA2
:10163A00B20B1B2B01300A168A1157250A128A157A
:10164A000A168A1164250A128A1583120313860060
:10165A00033083160313B2009730B100B10B332B5A
:10166A00B20B332B831203130715071103308316AA
:10167A000313B2009730B100B10B412BB20B412BCF
:10168A0002300A168A1157250A128A150A168A1171
:10169A0064250A128A1583120313880003308316FD
:1016AA000313B2009730B100B10B592BB20B592B6F
:1016BA008312031307150030A3000030A20025305F
:1016CA00A1008030A000A401A40A0A128A150520EC
:1016DA000A128A15403083120313CF00A030CE00BD
:1016EA000030CD000030CC004330B5007F30B4006C
:1016FA000030B3000030B200060883160313B100AD
:10170A00B201B301B401340883120313A70083168C
:10171A000313330883120313A60083160313320834
:10172A0083120313A50083160313310883120313CC
:10173A00A40001300A128A1574200A128A1583122B
:10174A0003132708B9002608B8002508B70024089B
:10175A00B6000A128A1530210A128A158312031357
:10176A003508D3003408D2003308D1003208D0003B
:10177A000A128A118A200A128A15831203134F0841
:10178A0083160313BC00831203134E088316031334
:10179A00BB00831203134D0883160313BA00831286
:1017AA0003134C0883160313B90040308312031342
:1017BA00CF00A030CE000030CD000030CC00433046
:1017CA00B5007F30B4000030B3000030B200080822
:1017DA0083160313B100B201B301B40134088312B2
:1017EA000313A70083160313330883120313A600F7
:1017FA0083160313320883120313A50083160313F7
:10180A00310883120313A40001300A128A157420C6
:10181A000A128A15831203132708B9002608B8008A
:10182A002508B7002408B6000A128A1530210A12C0
:10183A008A15831203133508D3003408D2003308FB
:10184A00D1003208D0000A128A118A200A128A1597
:10185A00831203134F0883160313B800831203136A
:10186A004E0883160313B700831203134D08831619
:10187A000313B600831203134C0883160313B5002F
:10188A00003083120313E6000030E70083160313C7
:10189A003C0883120313EB00831603133B088312DD
:1018AA000313EA00831603133A0883120313E900A9
:1018BA0083160313390883120313E8000230EC007D
:1018CA000030ED000A128A11EB230A128A15003041
:1018DA0083120313E6000030E70083160313380867
:1018EA0083120313EB0083160313370883120313BF
:1018FA00EA0083160313360883120313E9008316DA
:10190A000313350883120313E8000230EC00003099
:10191A00ED000A128A11EB230A128A15003083128B
:10192A000313A3000030A2002530A1008030A000DC
:10193A00A401A40A0A128A1505200A128A1503307C
:10194A0083160313B1003108F1000F300A168A1109
:10195A0012260A128A15063083160313B1003108BB
:10196A00F10001300A168A1112260A128A1503306A
:10197A0083160313B1003108F1000B300A168A11DD
:10198A0012260A128A15033083160313B10031088E
:10199A00F10007300A168A1112260A128A15063031
:1019AA0083160313B1003108F10000300A168A11B8
:1019BA0012260A128A15033083160313B10031085E
:1019CA00F1000D300A168A1112260A128A150330FE
:1019DA0083160313B1003108F10009300A168A117F
:1019EA0012260A128A15033083160313B10031082E
:1019FA00F10007300A168A1112260A128A150330D4
:101A0A0083160313B1003108F1000F300A168A1148
:101A1A0012260A128A15063083160313B1003108FA
:101A2A00F10004300A168A1112260A128A150330A6
:101A3A0083160313B1003108F1000B300A168A111C
:101A4A0012260A128A15033083160313B1003108CD
:101A5A00F10007300A168A1112260A128A15063070
:101A6A0083160313B1003108F10000300A168A11F7
:101A7A0012260A128A15033083160313B10031089D
:101A8A00F1000D300A168A1112260A128A1503303D
:101A9A0083160313B1003108F10009300A168A11BE
:101AAA0012260A128A15033083160313B10031086D
:101ABA00F10007300A168A1112260A128A15122B09
:101ACA000A128A1100287308803983120313A000AE
:101ADA002008F8007308A0002007A1002108FA00D6
:101AEA00F21F782D792D7A2D7A147A0803197E2D12
:101AFA007F2D8F2D7A0A031D832D842D8C2D003086
:101B0A00F3000030F2000030F1000030F000F2176C
:101B1A00F301972D0030F3000030F2000030F1009D
:101B2A000030F00077088039A0002008F900790811
:101B3A0078060319A12DA22DA32D78177708A000E6
:101B4A002007A1002108F900F61FAC2DAD2DAE2DFE
:101B5A00791479080319B22DB32DC32D790A031DFF
:101B6A00B72DB82DC02D0030F7000030F600003038
:101B7A00F5000030F400F617F701CB2D0030F7001E
:101B8A000030F6000030F5000030F4007A087902DF
:101B9A000318D02DD12D152E781FD42DD52DD92D42
:101BAA008030A0002008F8067A08A0002008FB0070
:101BBA007908A0002008FA007B08A0002008F90094
:101BCA007008A0002008FB007408A0002008F0009C
:101BDA007B08A0002008F4007108A0002008FB0080
:101BEA007508A0002008F1007B08A0002008F50075
:101BFA007208A0002008FB007608A0002008F20066
:101C0A007B08A0002008F6007308A0002008FB004B
:101C1A007708A0002008F3007B08A0002008F7003E
:101C2A00FB017908A000A1012108A3007A0820027B
:101C3A00A200031CA3032308803AFF0080307F021E
:101C4A00031D292E1A302202031C2C2E2D2E6E2E35
:101C5A007308720471047004031D342E362E013089
:101C6A00372E003083120313A0002008FB00003037
:101C7A00F3000030F2000030F1000030F000790883
:101C8A00A0002008FA00742E7B1C4C2E4D2E582ED4
:101C9A007B0883120313A0000310200C0138A10053
:101CAA002108FB005A2E0310FB0C701C5D2E5E2EC1
:101CBA005F2EFB17013083120313A000730DF30C80
:101CCA00F20CF10CF00CA00B632E0130A0002008DE
:101CDA00FA0779087A02031C732E742E492E781B90
:101CEA00772E782EC72E7A08031D7C2E7D2E862EFF
:101CFA000030F3000030F2000030F1000030F00054
:101D0A00FF2F7408F007750803110318013E031921
:101D1A008F2EF107760803110318013E0319962E38
:101D2A00F207770803110318013E03199D2EF307E2
:101D3A00731CA02EA12E7F2F7B1CA42EA52EB02EA5
:101D4A007B0883120313A0000310200C0138A100A2
:101D5A002108FB00B22E0310FB0C701CB52EB62E08
:101D6A00B72EFB17013083120313A000730DF30C77
:101D7A00F20CF10CF00CA00BBB2E0130A0002008D5
:101D8A00FA077F2F7308803AFF007708803A7F02AC
:101D9A00031DD92E76087202031DD92E7508710209
:101DAA00031DD92E740870020318DC2EDD2E372F7E
:101DBA00FF3083120313A000FF30A100FF30A200FE
:101DCA00FF30A3007408A4007508A5007608A600D1
:101DDA007708A7007008A4027108031C710FF62E79
:101DEA00F72EA5027208031C720FFC2EFD2EA60206
:101DFA007308031C730F022F032FA7022408A007DE
:101E0A0025080318250F0A2F0B2FA10726080318E8
:101E1A00260F102F112FA20727080318270AA30736
:101E2A002308F3002208F2002108F1002008F0003C
:101E3A008030A0002008F806FB09FB0A7B08031D76
:101E4A00272F282F452F0130F007003003180130C3
:101E5A00F107003003180130F2070030031801308F
:101E6A00F307452F7408F0027508031C750FF10279
:101E7A007608031C760FF2027708031C770FF30229
:101E8A007308720471047004031D4C2F4D2F7B2FAD
:101E9A007B08031D512F522F7B2F0030F300003097
:101EAA00F2000030F1000030F000FF2F0130831201
:101EBA000313A0000310F00DF10DF20DF30DA00BAA
:101ECA005F2FFB1F692F6A2F6B2F70147B1C6E2FDD
:101EDA006F2F722F0314FB0D742F0310FB0D7A085A
:101EEA000319782F792F7B2F0130FA02F21F7E2FE8
:101EFA007F2F5B2FF901FB1F832F842F922F7B08E3
:101F0A007F390319892F8A2F8D2FF901F90A922F08
:101F1A00701C902F912F922F8A2F79080319962FD0
:101F2A00972FCD2F0130F007003003180130F10749
:101F3A00003003180130F207003003180130F307AC
:101F4A00731CA82FA92FCD2F700883120313A0008A
:101F5A007108A1007208A2007308A3000130A4004E
:101F6A00230DA30CA20CA10CA00CA40BB52F2308C3
:101F7A00F3002208F2002108F1002008F0007A0A92
:101F8A000319C82FC92FCD2F0130A0002008FA0746
:101F9A007A0A0319D12FD22FD72F7A08031DD62FE9
:101FAA00D72FE52F0030F3000030F2000030F100A7
:101FBA000030F0007A08031DE32FE42FE52FF80123
:101FCA007A1CE82FE92FEB2FF217F12F7F308312BB
:101FDA000313A0002008F2057A0883120313A00055
:101FEA000310200CA1002108F300F81FFD2FFE2F7B
:101FFA00FF2FF317080010308A000408840A8207AA
:10200A0000345334313400345334323400342034FD
:10201A0000342C3400343A340034563400347C34DE
:02202A00003480
:102AAE00F0007008831203139300080083160313BB
:102ABE00141C622D632D5D2D08000A168A115D25EA
:102ACE000A168A118312031313080800F3008316E3
:102ADE0003138712731D742D752D792D72089400B2
:102AEE0087157D2D70087204940087117308710488
:102AFE0083120313940008008316031788018901BB
:102B0E00831603138601880183120313860188013D
:102B1E000715F001F101F20120300A168A116D2518
:102B2E000A168A1107300A168A113C260A168A11CD
:102B3E000800803083120313B5063908F3003808F5
:102B4E00F2003708F1003608F0003508F7003408B7
:102B5E00F6003308F5003208F4000A128A156825CB
:102B6E000A168A11730883120313B5007208B40093
:102B7E007108B3007008B2000800F800F401F50106
:102B8E007008F200F3017208F6007308F700781C63
:102B9E00D12DD22DD82D7608F4070318F50A770813
:102BAE00F50701300310F60DF70DFF3E031DD92D6D
:102BBE000310F80C7808031DE52DE62DCE2D7508B3
:102BCE00F1007408F0000800FB01FC0183120313EE
:102BDE00201CF22DF32DF92D2208FB070318FC0AF9
:102BEE002308FC0701300310A20DA30DFF3E031DA9
:102BFE00FA2D01300310A10CA00CFF3E031D012E77
:102C0E0020082104031D0C2E0D2EED2D7C08A10095
:102C1E007B08A0000800F500F301F4012E2E7308C6
:102C2E00750784000A168A1100200A168A110A12E4
:102C3E008A1106200A168A110130F3070318F40AC6
:102C4E000030F4071330F200F20B2B2E2E2E7308E9
:102C5E00750784000A168A1100200A168A11003A96
:102C6E00031D3A2E3B2E162E0800F200702E8F30CA
:102C7E00831603138F058F2E831603130F088F39B8
:102C8E0010388F008F2E8F30831603138F058F2EE3
:102C9E00831603130F088F3910388F008F2E83166B
:102CAE0003130F088F3940388F008F2E83160313AE
:102CBE000F088F3950388F008F2E70308316031304
:102CCE008F048F2E831603130F088F3960388F00F1
:102CDE008F2E7208F000F1017108003A0319782E58
:102CEE00692E7008003A03193E2E013A0319432E3D
:102CFE00033A03194A2E013A03194F2E073A0319C4
:102D0E00562E013A03195D2E023A0319642E692ECE
:102D1E000F1408000030FC000030FB000030FA00F9
:102D2E000030F90073087204710470040319A02EA8
:102D3E00A12EEE2EFD01FD0AB12E0130F80003107A
:102D4E00F00DF10DF20DF30DF80BA62E0130F8007B
:102D5E007808FD07F31FB42EB52EA42E0130F8000F
:102D6E000310F90DFA0DFB0DFC0DF80BB72E7308C1
:102D7E007702031DCC2E72087602031DCC2E71082D
:102D8E007502031DCC2E70087402031CCF2ED02E9C
:102D9E00DF2E7008F4027108031C710FF502720821
:102DAE00031C720FF6027308031C730FF7027914DB
:102DBE0001300310F30CF20CF10CF00CFF3E031D6E
:102DCE00E02E0130FD02031DED2EEE2EB52E7C08F9
:102DDE00F3007B08F2007A08F1007908F000080091
:102DEE00F601F11FFB2EFC2E032FF009F109F00A5C
:102DFE000319F10AF601F60AF31F062F072F102FFB
:102E0E00F209F309F20A0319F30A0130F400740807
:102E1E00F606F701F801700871040319172F182F21
:102E2E004F2FF501F50A262F01300310F00DF10D8D
:102E3E00FF3E031D1C2F0130F4007408F507F11F2F
:102E4E00292F2A2F1B2F01300310F70DF80DFF3EEF
:102E5E00031D2B2F71087302031D372F700872028A
:102E6E00031C3A2F3B2F422F7008F2027108031CED
:102E7E00F303F302771401300310F10CF00CFF3E54
:102E8E00031D432F0130F502031D4E2F4F2F2A2F06
:102E9E0076080319532F542F592FF709F809F70AFB
:102EAE000319F80A7808F1007708F00008000030DE
:102EBE007005F80000307105F90080307205FA00D7
:102ECE007F307305FB007B087A0479047804031DB8
:102EDE00712F722F7A2F0030F3000030F200003085
:102EEE00F1000030F00000307405F8000030750578
:102EFE00F90080307605FA007F307705FB007B08FD
:102F0E007A0479047804031D8D2F8E2F962F0030AE
:102F1E00F7000030F6000030F5000030F400F31F2B
:102F2E00992F9A2FBE2F0030F8000030F900003094
:102F3E00FA008030FB007008F8027108031C710F54
:102F4E00A92FAA2FF9027208031C720FAF2FB02FF0
:102F5E00FA027308031C730FB52FB62FFB027B0802
:102F6E00F3007A08F2007908F1007808F000F71FF4
:102F7E00C12FC22FE62F0030F8000030F9000030CC
:102F8E00FA008030FB007408F8027508031C750FF8
:102F9E00D12FD22FF9027608031C760FD72FD82FF8
:102FAE00FA027708031C770FDD2FDE2FFB027B085A
:102FBE00F7007A08F6007908F5007808F4008030FA
:102FCE00F3068030F70677087302031DF82F760894
:102FDE007202031DF82F75087102031DF82F740875
:102FEE0070020318FB2FFC2FFE2F0310FF2F03146C
:022FFE000800C9
:04400E00C420FF3F8C
:00000001FF
