:100000000A128A11EC2F00308A000408840A820741
:100010000034533431340034533432340034203417
:1000200000342C3400343A340034563400347C34F8
:0200300000349A
:1009E000F0007008831203139300080083160313AA
:1009F000141CFB2CFC2CF62C08000A128A11F6247D
:100A00000A128A118312031313080800F0008312DC
:100A100003130C1E0C2D0D2D072D700899000800D6
:100A2000F300831603138712731D172D182D1C2D29
:100A3000720894008715202D7008720494008711A5
:100A400073087104831203139400080083160317BC
:100A5000880189018316031386010711831203138A
:100A6000860107300A128A116E250A128A11831232
:100A700003130715F001F101F20120300A128A1167
:100A800010250A128A110800F500F301F401602D07
:100A90007308750784000A128A1103200A128A114A
:100AA0000A128A1106250A128A110130F307031867
:100AB000F40A0030F4071330F200F20B5D2D602DC4
:100AC0007308750784000A128A1103200A128A111A
:100AD000003A031D6C2D6D2D482D0800F200A22D4B
:100AE0008F30831603138F05C12D831603130F0850
:100AF0008F3910388F00C12D8F30831603138F0567
:100B0000C12D831603130F088F3910388F00C12DA4
:100B1000831603130F088F3940388F00C12D8316B9
:100B200003130F088F3950388F00C12D7030831692
:100B300003138F04C12D831603130F088F396038F8
:100B40008F00C12D7208F000F1017108003A0319FD
:100B5000AA2D9B2D7008003A0319702D013A031934
:100B6000752D033A03197C2D013A0319812D073A9B
:100B70000319882D013A03198F2D023A0319962D76
:100B80009B2D0F1408000030FC000030FB000030EB
:100B9000FA000030F900730872047104700403193C
:100BA000D22DD32D202EFD01FD0AE32D0130F800BA
:100BB0000310F00DF10DF20DF30DF80BD82D0130EF
:100BC000F8007808FD07F31FE62DE72DD62D01303C
:100BD000F8000310F90DFA0DFB0DFC0DF80BE92DD3
:100BE00073087702031DFE2D72087602031DFE2D89
:100BF00071087502031DFE2D70087402031C012E7E
:100C0000022E112E7008F4027108031C710FF502F8
:100C10007208031C720FF6027308031C730FF702AD
:100C2000791401300310F30CF20CF10CF00CFF3EC0
:100C3000031D122E0130FD02031D1F2E202EE72D55
:100C40007C08F3007B08F2007A08F1007908F000D4
:100C50000800831203133208031D2F2E302E5D2E41
:100C60002E08B3002F08B4003008B5003108B600D4
:100C700006300310B30DB40DB50DB60DFF3E031DC8
:100C8000392E3608F3003508F2003408F100330835
:100C9000F0000030F7007A30F6001230F500003036
:100CA000F4000A128A11C3250A128A117008FF3E45
:100CB0008316031399001811892E2E08B3002F08EC
:100CC000B4003008B5003108B60004300310B30D8D
:100CD000B40DB50DB60DFF3E031D662E3608F300AC
:100CE0003508F2003408F1003308F0000030F70056
:100CF0007A30F6001230F5000030F4000A128A1142
:100D0000C3250A128A117008FF3E83160313990047
:100D1000181518139816181283120313981718131E
:100D20001816181198108316031387170713080055
:100D30000A128A1126250A128A1183120313071137
:100D4000033083120313B8009730B700B70BA62EF9
:100D5000B80BA62E00300A128A11F0240A128A114A
:100D60000A128A11FD240A128A1183120313B70092
:100D70003708AA00033083120313B8009730B70076
:100D8000B70BC02EB80BC02E831203130715071123
:100D9000033083120313B8009730B700B70BCE2E81
:100DA000B80BCE2E00300A128A11F0240A128A11D2
:100DB0000A128A11FD240A128A1183120313B70042
:100DC0003708A900033083120313B8009730B70027
:100DD000B70BE82EB80BE82E831203130715071183
:100DE000033083120313B8009730B700B70BF62E09
:100DF000B80BF62E8312031328080A128A11F02466
:100E00000A128A110A128A11FD240A128A11831207
:100E10000313B7003708A800033083120313B80088
:100E20009730B700B70B122FB80B122F8312031392
:100E300007150030B1000030B0002530AF00803021
:100E4000AE00B201B20A0A128A1129260A128A11C8
:100E5000033083120313B7003708F1000F300A1272
:100E60008A1144250A128A11063083120313B7002F
:100E70003708F10001300A128A1144250A128A113A
:100E8000033083120313B7003708F1000B300A1246
:100E90008A1144250A128A11033083120313B70002
:100EA0003708F10007300A128A1144250A128A1104
:100EB000063083120313B7003708F1002A080A121C
:100EC0008A1144250A128A11033083120313B700D2
:100ED0003708F1000D300A128A1144250A128A11CE
:100EE000033083120313B7003708F10009300A12E8
:100EF0008A1144250A128A11033083120313B700A2
:100F00003708F10007300A128A1144250A128A11A3
:100F1000033083120313B7003708F1000F300A12B1
:100F20008A1144250A128A11063083120313B7006E
:100F30003708F10004300A128A1144250A128A1176
:100F4000033083120313B7003708F1000B300A1285
:100F50008A1144250A128A11033083120313B70041
:100F60003708F10007300A128A1144250A128A1143
:100F7000063083120313B7003708F10029080A125C
:100F80008A1144250A128A11033083120313B70011
:100F90003708F1000D300A128A1144250A128A110D
:100FA000033083120313B7003708F10009300A1227
:100FB0008A1144250A128A11033083120313B700E1
:100FC0003708F10007300A128A1144250A128A11E3
:100FD0009D2E0A128A11002883120313A001A10179
:100FE000A201A301A401A501A601A701A801A901CD
:100FF000AA01AB01AC01AD0183010A128A11982E3E
:04400E00C420FF3F8C
:00000001FF
