:060000000A128A11FA2F1A
:100E1200F000700883120313930008008316031373
:100E2200141C142F152F0F2F08000A128A110F27D6
:100E32000A128A118312031313080800F30083169F
:100E420003138712731D262F272F2B2F720894004E
:100E520087152F2F7008720494008711730871048C
:100E62008312031394000800831603178801890173
:100E720083160313860188018312031386018801F6
:100E82000715F001F101F20120300A128A111F2721
:100E92000A128A1107300A128A11A5270A128A1128
:100EA20008000A128A1135270A128A1183120313C3
:100EB20007110330F5009730F400F40B5E2FF50BA9
:100EC2005E2F632F01300A128A1109270A128A1132
:100ED2000A128A1116270A128A1183120313860034
:100EE2000330F5009730F400F40B752FF50B752FD6
:100EF2007A2F83120313071507110330F500973079
:100F0200F400F40B822FF50B822F872F02300A1286
:100F12008A1109270A128A110A128A1116270A123D
:100F22008A118312031388000330F5009730F4000E
:100F3200F40B992FF50B992F9E2F8312031307158C
:100F4200572F0A128A110028F200D92F8F308316E8
:100F520003138F05F82F831603130F088F391038E8
:100F62008F00F82F8F30831603138F05F82F831607
:100F720003130F088F3910388F00F82F83160313CD
:100F82000F088F3940388F00F82F831603130F088C
:100F92008F3950388F00F82F7030831603138F0467
:100FA200F82F831603130F088F3960388F00F82F3C
:100FB2007208F000F1017108003A0319E12FD22FF3
:100FC2007008003A0319A72F013A0319AC2F033A0C
:100FD2000319B32F013A0319B82F073A0319BF2F88
:100FE200013A0319C62F023A0319CD2FD22F0F143B
:0E0FF2000800F601F70183010A128A11522F3E
:04400E00C420FF3F8C
:00000001FF
