:060000000A128A11FA2F1A
:100EBC00F0007008831203139300080083160313C9
:100ECC00141C692F6A2F642F08000A128A116427D8
:100EDC000A128A118312031313080800F3008316F5
:100EEC0003138712731D7B2F7C2F802F72089400A5
:100EFC008715842F7008720494008711730871048D
:100F0C0083120313940008008316031788018901C8
:100F1C00831603138601880183120313860188014B
:100F2C000715F001F101F20120300A128A11742721
:100F3C000A128A11831603130F178F160F160F142C
:100F4C0008000A128A118A270A128A1183120313C3
:100F5C0007110330F5009730F400F40BB32FF50BA9
:100F6C00B32FB82F01300A128A115E270A128A1188
:100F7C000A128A116B270A128A11F4007408F700FE
:100F8C000330F5009730F400F40BCA2FF50BCA2F81
:100F9C00CF2F83120313071507110330F500973079
:100FAC00F400F40BD72FF50BD72FDC2F02300A12DD
:100FBC008A115E270A128A110A128A116B270A12E9
:100FCC008A11F4007408F6000330F5009730F40031
:100FDC00F40BEE2FF50BEE2FF32F831203130715E3
:100FEC00AC2F0A128A110028F601F70183010A12AC
:040FFC008A11A72F80
:04400E00C420FF3F8C
:00000001FF
