:100000000A128A11EF2F64008001840A0406031982
:10001000003404060428F000831203130C1E112878
:1000200012280C287008990008000230FB000430E8
:10003000FA00BA30F900F90B1B28FA0B1B28FB0B4E
:100040001B2800001330F1008030F2000A168A11DC
:10005000F2260A128A110230FB000430FA00BA308C
:10006000F900F90B3128FA0B3128FB0B312800007D
:10007000B230F1000030F2000A168A11F2260A129C
:100080008A110230FB000430FA00BA30F900F90B93
:100090004728FA0B4728FB0B472800000130F100E6
:1000A0008030F2000A168A11F2260A128A110230F2
:1000B000FB000430FA00BA30F900F90B5D28FA0BA6
:1000C0005D28FB0B5D2800002030F1008030F2003D
:1000D0000A168A11F2260A128A110230FB00043035
:1000E000FA00BA30F900F90B7328FA0B7328FB0BEE
:1000F00073280000A830F1000030F2000A168A11BF
:10010000F2260A128A110230FB000430FA00BA30DB
:10011000F900F90B8928FA0B8928FB0B89280000C4
:100120000130F1008030F2000A168A11F2260A121C
:100130008A110800831203134F088039D400540831
:10014000D9004F08D4005407D5005508DF00CE1F52
:10015000AA28AB28AC285F145F080319B028B1287F
:10016000C0285F0A031DB528B628BE280030CF007E
:100170000030CE000030CD000030CC00CE17C828B3
:100180000030CF000030CE000030CD000030CC0079
:1001900053088039D4005408D9065308D4005407B2
:1001A000D5005508DE00D21FD628D728D8285E14DF
:1001B0005E080319DC28DD28EC285E0A031DE1280F
:1001C000E228EA280030D3000030D2000030D1000D
:1001D0000030D000D217F4280030D3000030D20015
:1001E0000030D1000030D0005E080319F828F9284B
:1001F000FE285F08031DFD28FE2807290030CF00D8
:100200000030CE000030CD000030CC00FA2B4C087E
:10021000D4005408F00052080A168A1173260A12F4
:100220008A11710883120313E5007008E400640862
:10023000D400D501D601D7015708DD005608DC00EF
:100240005508DB005408DA006508D400D501D60152
:10025000D7015708E3005608E2005508E1005408AA
:10026000E0004D08D4005408F00051080A168A1125
:1002700073260A128A11710883120313E5007008AD
:10028000E4006408D400D501D601D7015408DA0788
:10029000550803110318013E03194F29DB075608BF
:1002A00003110318013E03195629DC0757080311EF
:1002B0000318013E03195D29DD076508D400D50147
:1002C000D601D7015408E007550803110318013E71
:1002D00003196B29E107560803110318013E03199E
:1002E0007229E207570803110318013E03197929FF
:1002F000E3074E08D4005408F00050080A168A118B
:1003000073260A128A11710883120313E50070081C
:10031000E4006408D400D501D601D7015408DA07F7
:10032000550803110318013E03199729DB075608E6
:1003300003110318013E03199E29DC075708031116
:100340000318013E0319A529DD076508D400D5016E
:10035000D601D7015408E007550803110318013EE0
:100360000319B329E107560803110318013E0319C5
:10037000BA29E207570803110318013E0319C129DE
:10038000E3070830D4000310DA0DDB0DDC0DDD0DC2
:10039000D40BC3294D08D4005408F00050080A16A5
:1003A0008A1173260A128A11710883120313E50059
:1003B0007008E4006408D4006508D500D601D701B0
:1003C0005408DA07550803110318013E0319E929F7
:1003D000DB07560803110318013E0319F029DC0757
:1003E000570803110318013E0319F729DD074C08CC
:1003F000D4005408F00051080A168A1173260A1214
:100400008A11710883120313E5007008E400640880
:10041000D4006508D500D601D7015408DA0755087D
:1004200003110318013E0319162ADB0756080311AE
:100430000318013E03191D2ADC075708031103188E
:10044000013E0319242ADD070830D4000310DA0D19
:10045000DB0DDC0DDD0DD40B262A4C08D40054082E
:10046000F00050080A168A1173260A128A117108C0
:1004700083120313E5007008E4006408D4006508E3
:10048000D500D601D7015408DA075508031103181F
:10049000013E03194C2ADB07560803110318013EDD
:1004A0000319532ADC07570803110318013E0319E7
:1004B0005A2ADD074D08D4005408F00052080A16E5
:1004C0008A1173260A128A11710883120313E50038
:1004D0007008E4006408D4006508D500D601D7018F
:1004E0005408E007550803110318013E0319792A3F
:1004F000E107560803110318013E0319802AE20799
:10050000570803110318013E0319872AE3074E0811
:10051000D4005408F00051080A168A1173260A12F2
:100520008A11710883120313E5007008E40064085F
:10053000D4006508D500D601D7015408E007550856
:1005400003110318013E0319A62AE10756080311F7
:100550000318013E0319AD2AE207570803110318D7
:10056000013E0319B42AE3074E08D4005408F000F2
:1005700052080A168A1173260A128A117108831208
:100580000313E5007008E4006408D4006508D50092
:10059000D601D70108300310D40DD50DD60DD70DD7
:1005A000FF3E031DCB2A5408E0075508031103182A
:1005B000013E0319DC2AE107560803110318013E26
:1005C0000319E32AE207570803110318013E031930
:1005D000EA2AE3075A08D4005B08D5005C08D60075
:1005E0005D08D70018300310D70CD60CD50CD40CEE
:1005F000FF3E031DF32A5408E007550803110318B2
:10060000013E0319042BE107560803110318013EAC
:1006100003190B2BE207570803110318013E0319B6
:10062000122BE3070830D4000310DA0DDB0DDC0DCC
:10063000DD0DD40B142B5F085E07D400D501D50D5A
:100640005408823EE40055080318013EFF3EE500D1
:10065000462B0130D4000310E00DE10DE20DE30D57
:10066000D40B2B2BDD1F352B362B372B6014013091
:10067000D4000310DA0DDB0DDC0DDD0DD40B392BAE
:10068000FF30E4070318E50AFF30E507E21F492BB6
:100690004A2B292BDE01DD1F4E2B4F2B6B2BFF30FE
:1006A0005A05D400FF305B05D500FF305C05D6004D
:1006B0007F305D05D70057085604550454040319CC
:1006C000622B632B662BDE01DE0A6B2B601C692B11
:1006D0006A2B6B2B632B5E0803196F2B702BA12BDE
:1006E0000130E007003003180130E1070030031843
:1006F0000130E207003003180130E307631C812B4F
:10070000822BA12B6008D4006108D5006208D600B6
:100710006308D7000130D800570DD70CD60CD50C84
:10072000D40CD80B8C2B5708E3005608E200550870
:10073000E1005408E0000130E4070318E50A003046
:10074000E5076508803AFF0080307F02031DAA2B71
:10075000FF306402031CAD2BAE2BB92B7F3083120C
:100760000313E3008030E2000030E1000030E000DD
:10077000EE2B831203136508803AFF0080307F025E
:10078000031DC42B013064020318C72BC82BD42BC4
:10079000003083120313E3000030E2000030E10078
:1007A0000030E000D901EE2B831203136408D4005B
:1007B0005408DF00FF30E005FF30E1057F30E2053F
:1007C0000030E3055F1CE52BE62BE72BE2175F0803
:1007D000D4000310540CD5005508E3005908D40088
:1007E0005408E3046308CF006208CE006108CD001E
:1007F0006008CC00080083160313C00083120313A3
:100800006908F3006808F2006708F1006608F00064
:100810000A128A1525200A128A11710883160313F9
:10082000BD007008BC00C701C801C501C601013088
:10083000C9000030CA00831203136908F300680876
:10084000F2006708F1006608F0000030F7000030A1
:10085000F6000030F5000030F4000A128A159F20DF
:100860000A128A110318352C362C842CBF308312BF
:100870000313CF008030CE000030CD000030CC001C
:100880006908D3006808D2006708D1006608D00064
:100890000A128A119A200A128A11831203134F082E
:1008A000E9004E08E8004D08E7004C08E6002D304E
:1008B000EC008316031340088400831203136C08B2
:1008C00083138000013083160313C5070318C60A7B
:1008D0000030C607842C0A30F0000030F1003D08DB
:1008E000F3003C08F2000A168A1199270A128A11AD
:1008F000710883160313BD007008BC000130C707E0
:100900000318C80A0030C807831603133C083D04C7
:10091000031D8B2C8C2C6B2CA82D47034804031D26
:10092000922C932C982C0130C9000030CA00DA2C8C
:100930000230BE000030BF00C42C831603134A08E7
:1009400083120313A10083160313490883120313B0
:10095000A0000A30A2000030A3000A168A119A26CD
:100960000A128A1183120313210883160313CA0083
:1009700083120313200883160313C9000130BE0736
:100980000318BF0A0030BF074808803A83120313D8
:10099000EC00831603133F08803A831203136C02A2
:1009A000031DD62C831603133E0847020318D92CC7
:1009B000DA2C9D2C83160313490883120313A40019
:1009C000831603134A0883120313A5000030A51BE6
:1009D000FF30A600A70001300A128A1541210A1231
:1009E0008A11831203132708B5002608B4002508CE
:1009F000B3002408B2006908B9006808B8006708A5
:100A0000B7006608B6000A128A158B230A128A11EB
:100A100083120313350883160313C40083120313D0
:100A2000340883160313C300831203133308831699
:100A30000313C20083120313320883160313C10089
:100A40004A0883120313A300831603134908831271
:100A50000313A200831603134408F3004308F200B3
:100A60004208F1004108F0000A128A1525200A12F6
:100A70008A11710883120313A1007008A0000A16DE
:100A80008A119A260A128A11831203132008A400DD
:100A90002108A5000030A51BFF30A600A7000130EB
:100AA0000A128A1541210A128A1183120313270898
:100AB000B5002608B4002508B3002408B200690870
:100AC000B9006808B8006708B7006608B6000A12DF
:100AD0008A1501200A128A11831203133508E900CE
:100AE0003408E8003308E7003208E60083160313F1
:100AF0004408F3004308F2004208F1004108F00006
:100B00000A128A1525200A128A117008303E8312B3
:100B10000313EC00831603134508400783120313E5
:100B2000ED006D0884006C0883138000013083168B
:100B30000313C5070318C60A0030C607FF30C707EE
:100B40000318C80AFF30C8070130C9000030CA00C6
:100B500047084804031DAD2DAE2D8D2C2E30831279
:100B60000313EC0083160313450840078312031395
:100B7000ED006D0884006C0883138000013083163B
:100B80000313C5070318C60A0030C6070130BE00AC
:100B90000030BF00F22D831603134A08831203139B
:100BA000A10083160313490883120313A0000A301F
:100BB000A2000030A3000A168A119A260A128A118E
:100BC00083120313210883160313CA00831203132D
:100BD000200883160313C9000130BE070318BF0A9B
:100BE0000030BF07831203136B08803AEC008316B2
:100BF00003133F08803A831203136C02031D062E71
:100C0000831603133E08831203136A020318092E86
:100C10000A2ECB2D83160313490883120313A40055
:100C2000831603134A0883120313A5000030A51B83
:100C3000FF30A600A70001300A128A1541210A12CE
:100C40008A11831203132708CF002608CE00250837
:100C5000CD002408CC006908F3006808F20067089A
:100C6000F1006608F0000A128A1525200A128A117E
:100C7000700883120313A4007108A5000030A51B9F
:100C8000FF30A600A70001300A128A1541210A127E
:100C90008A11831203132708B5002608B40025081B
:100CA000B3002408B2006908B9006808B8006708F2
:100CB000B7006608B6000A128A1501200A128A11C6
:100CC000831203133508D3003408D2003308D1004F
:100CD0003208D0000A128A119A200A128A1183124D
:100CE00003134F0883160313C400831203134E0823
:100CF00083160313C300831203134D0883160313D3
:100D0000C200831203134C0883160313C100440866
:100D100083120313E900831603134308831203139A
:100D2000E80083160313420883120313E7008316B7
:100D30000313410883120313E6006908F3006808EF
:100D4000F2006708F1006608F0000A128A152520F3
:100D50000A128A11013083160313C9000030CA0039
:100D6000831203136B0883160313C8008312031343
:100D70006A0883160313C700D82F47034804031DCE
:100D8000C22EC32EC82E0130C9000030CA000A2F5F
:100D90000230BE000030BF00F42E831603134A0851
:100DA00083120313A100831603134908831203134C
:100DB000A0000A30A2000030A3000A168A119A2669
:100DC0000A128A1183120313210883160313CA001F
:100DD00083120313200883160313C9000130BE07D2
:100DE0000318BF0A0030BF074808803A8312031374
:100DF000EC00831603133F08803A831203136C023E
:100E0000031D062F831603133E0847020318092FFC
:100E10000A2FCD2E83160313490883120313A4004F
:100E2000831603134A0883120313A5000030A51B81
:100E3000FF30A600A70001300A128A1541210A12CC
:100E40008A11831203132708B5002608B400250869
:100E5000B3002408B2006908B9006808B800670840
:100E6000B7006608B6000A128A158B230A128A1187
:100E700083120313350883160313C400831203136C
:100E8000340883160313C300831203133308831635
:100E90000313C20083120313320883160313C10025
:100EA0004A0883120313A30083160313490883120D
:100EB0000313A200831603134408F3004308F2004F
:100EC0004208F1004108F0000A128A1525200A1292
:100ED0008A11710883120313A1007008A0000A167A
:100EE0008A119A260A128A11831203132008A40079
:100EF0002108A5000030A51BFF30A600A700013087
:100F00000A128A1541210A128A1183120313270833
:100F1000B5002608B4002508B3002408B20069080B
:100F2000B9006808B8006708B7006608B6000A127A
:100F30008A1501200A128A11831203133508E90069
:100F40003408E8003308E7003208E600831603138C
:100F50004408F3004308F2004208F1004108F000A1
:100F60000A128A1525200A128A117008303E83124F
:100F70000313EC0083160313450840078312031381
:100F8000ED006D0884006C08831380000130831627
:100F90000313C5070318C60A0030C607FF30C7078A
:100FA0000318C80AFF30C8070130C9000030CA0062
:100FB00047084804031DDD2FDE2FBD2E0A308312A3
:100FC0000313EC0083160313450840078312031331
:100FD000ED006D0884006C08831380000800831204
:100FE0000313EE01EF018313A0308400BC300A121A
:100FF0008A1103200A128A1183010A128A15FD2917
:10100200803083120313B5063908F3003808F20062
:101012003708F1003608F0003508F7003408F6000A
:101022003308F5003208F4000A128A1568250A12FC
:101032008A15730883120313B5007208B40071088D
:10104200B3007008B20008000310720D730DF400B3
:101052007408FA007A08031D2F2830283928003036
:10106200F3000030F2000030F1000030F0009E2862
:101072007008F4007108F5007208F6007308F700B2
:101082001F300310F70CF60CF50CF40CFF3E031D99
:1010920042287408F8007808F900F217FF30F005CA
:1010A200FF30F105FF30F2050030F3059630FA0209
:1010B200FA1F5C285D2877287A08803A973E031841
:1010C200632864286528302801300310F30CF20CE1
:1010D200F10CF00CFF3E031D66280130F400740889
:1010E200FA07031D7528762865288E2820307A0293
:1010F200031C7C287D28892830280130F400031045
:10110200F00DF10DF20DF30DF40B80280130FA020F
:101112007A08031D8D288E287E28790803199228C3
:1011220093289E28F009F109F209F309F00A03193C
:10113200F10A0319F20A0319F30A080000307005D4
:10114200F80000307105F90080307205FA007F3036
:101152007305FB007B087A0479047804031DB22826
:10116200B328BB280030F3000030F2000030F10059
:101172000030F00000307405F80000307505F90009
:1011820080307605FA007F307705FB007B087A0411
:1011920079047804031DCE28CF28D7280030F70021
:1011A2000030F6000030F5000030F400F31FDA28BA
:1011B200DB28FF280030F8000030F9000030FA0088
:1011C2008030FB007008F8027108031C710FEA28D6
:1011D200EB28F9027208031C720FF028F128FA02B8
:1011E2007308031C730FF628F728FB027B08F30031
:1011F2007A08F2007908F1007808F000F71F022956
:10120200032927290030F8000030F9000030FA00E5
:101212008030FB007408F8027508031C750F122950
:101222001329F9027608031C760F18291929FA02E4
:101232007708031C770F1E291F29FB027B08F70082
:101242007A08F6007908F5007808F4008030F30691
:101252008030F70677087302031D39297608720277
:10126200031D392975087102031D3929740870029A
:1012720003183C293D293F29031040290314080083
:1012820083120313AC002C080319482949295D294C
:10129200A71F4C294D295D292409AE002509AF005D
:1012A2002609B0002709B100AE0A0319AF0A0319D3
:1012B200B00A0319B10A65292708B1002608B0004F
:1012C2002508AF002408AE002708260425042404BC
:1012D200031D6C296D2976290030A7000030A60075
:1012E2000030A5000030A400FC299630A800280890
:1012F200AD0088290130A8002808AD07013003108D
:10130200B10CB00CAF0CAE0CFF3E031D8029FE30B9
:101312003105031D8D298E297B29AA290130A800B8
:101322002808AD070130AE07003003180130AF07BF
:10133200003003180130B007003003180130B10744
:1013420001300310B10CB00CAF0CAE0CFF3E031D0C
:10135200A229FF303105031DAF29B0298F29BC29ED
:101362000130AD020130A8000310AE0DAF0DB00D7B
:10137200B10DA80BB529B01BBF29C029C62902305F
:101382002D020318C529C629B1292D18C929CA2930
:10139200D229FF30AE05FF30AF057F30B005FF30F8
:1013A200B1050310AD0C2D08A800A901AA01AB01DB
:1013B20018300310A80DA90DAA0DAB0DFF3E031D99
:1013C200DA292808AE042908AF042A08B0042B0839
:1013D200B1042C080319EE29EF29F429A71FF229D9
:1013E200F329F429B1173108A7003008A6002F0805
:1013F200A5002E08A40008000A168A11C1260A12A6
:101402008A150A128A1115200A128A1583120313E9
:101412000711033083160313CC009730CB00CB0B9C
:10142200102ACC0B102A01300A168A1147260A12FA
:101432008A150A168A1154260A128A15831603136C
:10144200CB004B0883120313EF0003308316031300
:10145200CC009730CB00CB0B2C2ACC0B2C2A83123E
:10146200031307150711033083160313CC009730BB
:10147200CB00CB0B3A2ACC0B3A2A02300A168A113D
:1014820047260A128A150A168A1154260A128A1542
:1014920083160313CB004B0883120313EE000330B1
:1014A20083160313CC009730CB00CB0B562ACC0B00
:1014B200562A831203130715003083160313A7005D
:1014C2000030A6000030A5000030A4000030A300C8
:1014D2000030A2000030A1000030A0004030831292
:1014E2000313CF00A030CE000030CD000030CC007E
:1014F2004330B5007F30B4000030B3000030B2009A
:101502006F0883160313CB00CC01CD01CE014E0828
:1015120083120313A700831603134D0883120313C8
:10152200A600831603134C0883120313A500831627
:1015320003134B0883120313A40001300A128A1505
:1015420041210A128A15831203132708B9002608BB
:10155200B8002508B7002408B6000A128A158B23A2
:101562000A128A15831203133508D3003408D200F5
:101572003308D1003208D0000A128A119A200A12C6
:101582008A15831203134F0883160313A7008312CD
:1015920003134E0883160313A600831203134D0888
:1015A20083160313A500831203134C088316031337
:1015B200A400403083120313CF00A030CE000030CD
:1015C200CD000030CC004330B5007F30B400003095
:1015D200B3000030B2006E0883160313CB00CC01B7
:1015E200CD01CE014E0883120313A7008316031305
:1015F2004D0883120313A600831603134C088312AB
:101602000313A500831603134B0883120313A400CC
:1016120001300A128A1541210A128A158312031314
:101622002708B9002608B8002508B7002408B60024
:101632000A128A158B230A128A158312031335089C
:10164200D3003408D2003308D1003208D0000A1285
:101652008A119A200A128A15831203134F088316DD
:101662000313A300831203134E0883160313A2006D
:10167200831203134D0883160313A100831203136D
:101682004C0883160313A000270883120313E900F2
:1016920083160313260883120313E8008316031329
:1016A200250883120313E700831603132408831209
:1016B2000313E6000230EA000030EB00B2300A12F7
:1016C2008A11FB230A128A15831603132308831235
:1016D2000313E90083160313220883120313E8009D
:1016E20083160313210883120313E70083160313DF
:1016F200200883120313E6000230EA000030EB00F8
:10170200A8300A128A11FB230A128A15022A0A1227
:101712008A1100288312031339088039BA003A0863
:10172200C3003908BA003A07BB003B08CA00B81F19
:101732009B2B9C2B9D2B4A144A080319A12BA22BED
:10174200B22B4A0A031DA62BA72BAF2B0030B900E0
:101752000030B8000030B7000030B600B817B90149
:10176200BA2B0030B9000030B8000030B7000030AA
:10177200B60035088039BA003A08C3063508BA00FF
:101782003A07BB003B08CB00B41FC82BC92BCA2B9E
:101792004B144B080319CE2BCF2BDF2B4B0A031D07
:1017A200D32BD42BDC2B0030B5000030B40000303A
:1017B200B3000030B200B417B501E72B0030B5001A
:1017C2000030B4000030B3000030B20035083404F9
:1017D20033043204031DEE2BEF2B082C0030B9002A
:1017E2000030B8000030B7000030B6008030B804D6
:1017F2007F30B9044308BA003A08B9043908B50081
:101802003808B4003708B3003608B200672D4A081A
:10181200031D0C2C0D2C162C0030B5000030B4002A
:101822000030B3000030B200672D4A08BA00BB0195
:101832003B08BD004B083A02BC00031CBD033C0838
:101842007F3EC4003D080318013E003EC500390832
:10185200C2003808C1003708C0003608BF00003097
:10186200B9000030B8000030B7000030B6000030D8
:10187200C9000030C8000030C7000030C600CB01EC
:101882008C2C4B080319462C472C672C0130BA00CC
:101892000310BF0DC00DC10DC20DBA0B492C013092
:1018A200BA000310B60DB70DB80DB90DBA0B522C14
:1018B200C91F5C2C5D2C5E2C36140130BA0003105B
:1018C200C60DC70DC80DC90DBA0B602C35084202F2
:1018D200031D752C34084102031D752C3308400288
:1018E200031D752C32083F02031C782C792C882C9E
:1018F20049173208BF023308031C330FC0023408F1
:10190200031C340FC1023508031C350FC20201301B
:10191200BA003A08CB071A304B02031C912C922CC6
:10192200422C4208410440043F040319992C9A2C8A
:10193200B92C4614B92C0130BA000310B60DB70DFC
:10194200B80DB90DBA0B9E2CC91FA82CA92CAA2C14
:1019520036140130BA000310C60DC70DC80DC90DEB
:10196200BA0BAC2CFF30C4070318C50AFF30C507F9
:10197200B81FBC2CBD2C9C2CCB01C91FC12CC22C66
:10198200DE2CFF304605BA00FF304705BB00FF30B2
:101992004805BC007F304905BD003D083C043B04BE
:1019A2003A040319D52CD62CD92CCB01CB0ADE2C28
:1019B200361CDC2CDD2CDE2CD62C4B080319E22C39
:1019C200E32C142D0130B607003003180130B7079D
:1019D200003003180130B807003003180130B9078E
:1019E200391CF42CF52C142D3608BA003708BB002C
:1019F2003808BC003908BD000130BE003D0DBD0CE9
:101A0200BC0CBB0CBA0CBE0BFF2C3D08B9003C0849
:101A1200B8003B08B7003A08B6000130C407031803
:101A2200C50A0030C5074508803AFF0080307F02B2
:101A3200031D1D2DFF304402031C202D212D2F2DAF
:101A4200FF3083120313C4000030C5000030B90018
:101A52000030B8000030B7000030B6008312031324
:101A62004508803AFF0080307F02031D3A2D013085
:101A7200440203183D2D3E2D4B2D83120313C40146
:101A8200C5010030B9000030B8000030B7000030A6
:101A9200B600C301831203134408BA003A08CA000D
:101AA2004A1C542D552D572DB8175B2D7F30BA0087
:101AB2003A08B8054A08BA0003103A0CBB003B08C2
:101AC200B9004308BA003A08B904FF2B08007308AA
:101AD200803983120313A0002008F8007308A000C5
:101AE2002007A1002108FA00F21F782D792D7A2D06
:101AF2007A147A0803197E2D7F2D8F2D7A0A031D01
:101B0200832D842D8C2D0030F3000030F200003044
:101B1200F1000030F000F217F301972D0030F300CE
:101B22000030F2000030F1000030F0007708803918
:101B3200A0002008F900790878060319A12DA22D2A
:101B4200A32D78177708A0002007A1002108F9002B
:101B5200F61FAC2DAD2DAE2D791479080319B22DD7
:101B6200B32DC32D790A031DB72DB82DC02D00301A
:101B7200F7000030F6000030F5000030F400F617F0
:101B8200F701CB2D0030F7000030F6000030F500F1
:101B92000030F4007A0879020318D02DD12D152EC9
:101BA200781FD42DD52DD92D8030A0002008F8061D
:101BB2007A08A0002008FB007908A0002008FA009B
:101BC2007B08A0002008F9007008A0002008FB0094
:101BD2007408A0002008F0007B08A0002008F40090
:101BE2007108A0002008FB007508A0002008F10081
:101BF2007B08A0002008F5007208A0002008FB0066
:101C02007608A0002008F2007B08A0002008F60059
:101C12007308A0002008FB007708A0002008F3004A
:101C22007B08A0002008F700FB017908A000A101B1
:101C32002108A3007A082002A200031CA3032308A0
:101C4200803AFF0080307F02031D292E1A302202C3
:101C5200031C2C2E2D2E6E2E730872047104700438
:101C6200031D342E362E0130372E0030831203131B
:101C7200A0002008FB000030F3000030F20000302A
:101C8200F1000030F0007908A0002008FA00742E5C
:101C92007B1C4C2E4D2E582E7B0883120313A00062
:101CA2000310200C0138A1002108FB005A2E03105A
:101CB200FB0C701C5D2E5E2E5F2EFB170130831213
:101CC2000313A000730DF30CF20CF10CF00CA00B3B
:101CD200632E0130A0002008FA0779087A02031C5B
:101CE200732E742E492E781B772E782EC72E7A08E3
:101CF200031D7C2E7D2E862E0030F3000030F20074
:101D02000030F1000030F000FF2F7408F007750872
:101D120003110318013E03198F2EF10776080311F0
:101D22000318013E0319962EF207770803110318D0
:101D3200013E03199D2EF307731CA02EA12E7F2FA7
:101D42007B1CA42EA52EB02E7B0883120313A000A9
:101D52000310200C0138A1002108FB00B22E031051
:101D6200FB0C701CB52EB62EB72EFB17013083125A
:101D72000313A000730DF30CF20CF10CF00CA00B8A
:101D8200BB2E0130A0002008FA077F2F7308803A8B
:101D9200FF007708803A7F02031DD92E760872026F
:101DA200031DD92E75087102031DD92E7408700205
:101DB2000318DC2EDD2E372FFF3083120313A00011
:101DC200FF30A100FF30A200FF30A3007408A4007E
:101DD2007508A5007608A6007708A7007008A40277
:101DE2007108031C710FF62EF72EA5027208031C50
:101DF200720FFC2EFD2EA6027308031C730F022F16
:101E0200032FA7022408A00725080318250F0A2F6D
:101E12000B2FA10726080318260F102F112FA20738
:101E220027080318270AA3072308F3002208F20051
:101E32002108F1002008F0008030A0002008F806F8
:101E4200FB09FB0A7B08031D272F282F452F013092
:101E5200F007003003180130F10700300318013099
:101E6200F207003003180130F307452F7408F0021F
:101E72007508031C750FF1027608031C760FF20237
:101E82007708031C770FF30273087204710470045D
:101E9200031D4C2F4D2F7B2F7B08031D512F522FDB
:101EA2007B2F0030F3000030F2000030F1000030F0
:101EB200F000FF2F013083120313A0000310F00D76
:101EC200F10DF20DF30DA00B5F2FFB1F692F6A2F8F
:101ED2006B2F70147B1C6E2F6F2F722F0314FB0D50
:101EE200742F0310FB0D7A080319782F792F7B2F9B
:101EF2000130FA02F21F7E2F7F2F5B2FF901FB1FA9
:101F0200832F842F922F7B087F390319892F8A2FE1
:101F12008D2FF901F90A922F701C902F912F922F79
:101F22008A2F79080319962F972FCD2F0130F007AA
:101F3200003003180130F107003003180130F207B6
:101F4200003003180130F307731CA82FA92FCD2FDF
:101F5200700883120313A0007108A1007208A20086
:101F62007308A3000130A400230DA30CA20CA10C42
:101F7200A00CA40BB52F2308F3002208F2002108BD
:101F8200F1002008F0007A0A0319C82FC92FCD2FBB
:101F92000130A0002008FA077A0A0319D12FD22FA4
:101FA200D72F7A08031DD62FD72FE52F0030F30045
:101FB2000030F2000030F1000030F0007A08031D1A
:101FC200E32FE42FE52FF8017A1CE82FE92FEB2FFE
:101FD200F217F12F7F3083120313A0002008F205BD
:101FE2007A0883120313A0000310200CA100210819
:101FF200F300F81FFD2FFE2FFF2FF3170800FF1B22
:102002000A2883137F1883170008840A0319FF0A1A
:10201200080010308A000408840A820700340D3454
:102022002D342D342D342D342D342D342D342D34A6
:102032002D342D342D342D342D342D342D340D34B6
:1020420000340D34533465346E3473346F34723467
:10205200203431343A3420340D3400340D345334C6
:1020620065346E3473346F347234203432343A341B
:0620720020340D3400349F
:102C8E00F0007008831203139300080083160313D9
:102C9E00141C522E532E4D2E08000A168A114D2644
:102CAE000A168A118312031313080800F300831601
:102CBE0003138712731D642E652E692E72089400FD
:102CCE0087156D2E700872049400871173087104B5
:102CDE008312031394000800F800F401F501700844
:102CEE00F200F3017208F6007308F700781C802ECC
:102CFE00812E872E7608F4070318F50A7708F50754
:102D0E0001300310F60DF70DFF3E031D882E031044
:102D1E00F80C7808031D942E952E7D2E7508F10063
:102D2E007408F0000800FB01FC0183120313201C41
:102D3E00A12EA22EA82E2208FB070318FC0A230898
:102D4E00FC0701300310A20DA30DFF3E031DA92E9B
:102D5E0001300310A10CA00CFF3E031DB02E200865
:102D6E002104031DBB2EBC2E9C2E7C08A1007B08CB
:102D7E00A000080083160317880189018316031328
:102D8E008601880183120313860188010715F0015D
:102D9E00F101F20120300A168A115D260A168A11F7
:102DAE0007300A168A1144270A168A11831603134E
:102DBE0018121815831603178715CF3083160313B1
:102DCE0099009A0183120313981718131816831675
:102DDE000313981608007330F3007308F700292FB9
:102DEE00253078060319FC2EFD2E042F78080A12C2
:102DFE008A110B200A168A11292F0C2F78080A1215
:102E0E008A110B200A168A11292F7208F4007108F4
:102E1E00F300F10A0319F20A7408FF007308840024
:102E2E000A168A1100200A168A11F800F500F6011A
:102E3E007608003A0319242F052F7508003A031956
:102E4E00432F052F7208F4007108F300F10A0319DD
:102E5E00F20A740883120313FF00730884000A1623
:102E6E008A1100200A168A11F5007508F8007808F4
:102E7E00031D422F432FF72E0800F200782F8F30BC
:102E8E00831603138F05972F831603130F088F399D
:102E9E0010388F00972F8F30831603138F05972FBF
:102EAE00831603130F088F3910388F00972F831650
:102EBE0003130F088F3940388F00972F8316031393
:102ECE000F088F3950388F00972F703083160313E9
:102EDE008F04972F831603130F088F3960388F00D6
:102EEE00972F7208F000F1017108003A0319802F34
:102EFE00712F7008003A0319462F013A03194B2F10
:102F0E00033A0319522F013A0319572F073A03199F
:102F1E005E2F013A0319652F023A03196C2F712F98
:102F2E000F140800F601F11F9D2F9E2FA52FF009FB
:102F3E00F109F00A0319F10AF601F60AF31FA82F98
:102F4E00A92FB22FF209F309F20A0319F30A01307D
:102F5E00F4007408F606F701F801700871040319FD
:102F6E00B92FBA2FF12FF501F50AC82F0130031032
:102F7E00F00DF10DFF3E031DBE2F0130F40074085D
:102F8E00F507F11FCB2FCC2FBD2F01300310F70DFE
:102F9E00F80DFF3E031DCD2F71087302031DD92FAF
:102FAE0070087202031CDC2FDD2FE42F7008F20272
:102FBE007108031CF303F302771401300310F10CB4
:102FCE00F00CFF3E031DE52F0130F502031DF02F1F
:102FDE00F12FCC2F76080319F52FF62FFB2FF709BB
:102FEE00F809F70A0319F80A7808F1007708F000D3
:022FFE000800C9
:04400E00C420FF3F8C
:00000001FF
