:100000000A128A11EF2FFF0000308A007F08820752
:0800100008280A128A150128D4
:10001C000A168A1184220A128A11831203131308F6
:10002C00080083120313AB001F280130A60026081A
:10003C00AB072B08840020308313000603192728F4
:10004C0028281B282B0884000930000603192F28A8
:10005C0030281B28A901AA01A8012B0884002D30E7
:10006C000006031D3A283B2844280130A600260828
:10007C00A8070130A6002608AB0776282B088400B9
:10008C002B300006031D4B284C2876280130A60087
:10009C002608AB077628831203132B0884002A0842
:1000AC00A1002908A0000A30A2000030A3000A1603
:1000BC008A111C230A128A1183130008831203135A
:1000CC002007A6000030031801302107A7002608DE
:1000DC00D03EA90027080318013EFF3EAA004C2879
:1000EC002B08840000080A168A1193220A128A111E
:1000FC000318812882285128831203132808031916
:10010C008828892895282909A6002A09A700A60A63
:10011C000319A70A2608A4002708A50099282A086D
:10012C00A5002908A4000800831203134F08803986
:10013C00D4005408D9004F08D4005407D5005508F2
:10014C00DF00CE1FAA28AB28AC285F145F08031968
:10015C00B028B128C0285F0A031DB528B628BE28D0
:10016C000030CF000030CE000030CD000030CC008D
:10017C00CE17C8280030CF000030CE000030CD00A4
:10018C000030CC0053088039D4005408D9065308E9
:10019C00D4005407D5005508DE00D21FD628D72826
:1001AC00D8285E145E080319DC28DD28EC285E0ACA
:1001BC00031DE128E228EA280030D3000030D200E9
:1001CC000030D1000030D000D217F4280030D3001A
:1001DC000030D2000030D1000030D0005E0803198E
:1001EC00F828F928FE285F08031DFD28FE2807299A
:1001FC000030CF000030CE000030CD000030CC00FD
:10020C00FA2B4C08D4005408F00052080A168A1134
:10021C0043230A128A11710883120313E500700834
:10022C00E4006408D400D501D601D7015708DD00DD
:10023C005608DC005508DB005408DA006508D400C9
:10024C00D501D601D7015708E3005608E20055083E
:10025C00E1005408E0004D08D4005408F0005108A7
:10026C000A168A1143230A128A1171088312031386
:10027C00E5007008E4006408D400D501D601D7016C
:10028C005408DA07550803110318013E03194F29C6
:10029C00DB07560803110318013E03195629DC0726
:1002AC00570803110318013E03195D29DD07650882
:1002BC00D400D501D601D7015408E0075508031125
:1002CC000318013E03196B29E107560803110318A3
:1002DC00013E03197229E207570803110318013E66
:1002EC0003197929E3074E08D4005408F00050088C
:1002FC000A168A1143230A128A11710883120313F6
:10030C00E5007008E4006408D400D501D601D701DB
:10031C005408DA07550803110318013E03199729ED
:10032C00DB07560803110318013E03199E29DC074D
:10033C00570803110318013E0319A529DD076508A9
:10034C00D400D501D601D7015408E0075508031194
:10035C000318013E0319B329E107560803110318CA
:10036C00013E0319BA29E207570803110318013E8D
:10037C000319C129E3070830D4000310DA0DDB0D93
:10038C00DC0DDD0DD40BC3294D08D4005408F0004E
:10039C0050080A168A1143230A128A117108831213
:1003AC000313E5007008E4006408D4006508D50068
:1003BC00D601D7015408DA07550803110318013E7A
:1003CC000319E929DB07560803110318013E031929
:1003DC00F029DC07570803110318013E0319F7290C
:1003EC00DD074C08D4005408F00051080A168A1195
:1003FC0043230A128A11710883120313E500700853
:10040C00E4006408D4006508D500D601D70154086F
:10041C00DA07550803110318013E0319162ADB07E6
:10042C00560803110318013E03191D2ADC0757084F
:10043C0003110318013E0319242ADD070830D400E8
:10044C000310DA0DDB0DDC0DDD0DD40B262A4C0868
:10045C00D4005408F00050080A168A1143230A12DB
:10046C008A11710883120313E5007008E400640814
:10047C00D4006508D500D601D7015408DA07550811
:10048C0003110318013E03194C2ADB07560803110C
:10049C000318013E0319532ADC07570803110318EC
:1004AC00013E03195A2ADD074D08D4005408F00008
:1004BC0052080A168A1143230A128A1171088312F0
:1004CC000313E5007008E4006408D4006508D50047
:1004DC00D601D7015408E007550803110318013E53
:1004EC000319792AE107560803110318013E031971
:1004FC00802AE207570803110318013E0319872AC3
:10050C00E3074E08D4005408F00051080A168A116B
:10051C0043230A128A11710883120313E500700831
:10052C00E4006408D4006508D500D601D70154084E
:10053C00E007550803110318013E0319A62AE10729
:10054C00560803110318013E0319AD2AE207570898
:10055C0003110318013E0319B42AE3074E08D40013
:10056C005408F00052080A168A1143230A128A1101
:10057C00710883120313E5007008E4006408D400CA
:10058C006508D500D601D70108300310D40DD50D60
:10059C00D60DD70DFF3E031DCB2A5408E007550896
:1005AC0003110318013E0319DC2AE1075608031155
:1005BC000318013E0319E32AE20757080311031835
:1005CC00013E0319EA2AE3075A08D4005B08D50058
:1005DC005C08D6005D08D70018300310D70CD60C79
:1005EC00D50CD40CFF3E031DF32A5408E007550824
:1005FC0003110318013E0319042BE10756080311DC
:10060C000318013E03190B2BE207570803110318BB
:10061C00013E0319122BE3070830D4000310DA0D46
:10062C00DB0DDC0DDD0DD40B142B5F085E07D40045
:10063C00D501D50D5408823EE40055080318013E3F
:10064C00FF3EE500462B0130D4000310E00DE10D18
:10065C00E20DE30DD40B2B2BDD1F352B362B372B5B
:10066C0060140130D4000310DA0DDB0DDC0DDD0D50
:10067C00D40B392BFF30E4070318E50AFF30E507EC
:10068C00E21F492B4A2B292BDE01DD1F4E2B4F2B52
:10069C006B2BFF305A05D400FF305B05D500FF30C3
:1006AC005C05D6007F305D05D7005708560455040D
:1006BC0054040319622B632B662BDE01DE0A6B2BB1
:1006CC00601C692B6A2B6B2B632B5E0803196F2B39
:1006DC00702BA12B0130E007003003180130E1072B
:1006EC00003003180130E207003003180130E30733
:1006FC00631C812B822BA12B6008D4006108D500D0
:10070C006208D6006308D7000130D800570DD70C0B
:10071C00D60CD50CD40CD80B8C2B5708E3005608F0
:10072C00E2005508E1005408E0000130E40703182A
:10073C00E50A0030E5076508803AFF0080307F024B
:10074C00031DAA2BFF306402031CAD2BAE2BB92B5F
:10075C007F3083120313E3008030E2000030E100AD
:10076C000030E000EE2B831203136508803AFF0083
:10077C0080307F02031DC42B013064020318C72B89
:10078C00C82BD42B003083120313E3000030E2009B
:10079C000030E1000030E000D901EE2B831203138E
:1007AC006408D4005408DF00FF30E005FF30E10599
:1007BC007F30E2050030E3055F1CE52BE62BE72BD1
:1007CC00E2175F08D4000310540CD5005508E30061
:1007DC005908D4005408E3046308CF006208CE0023
:1007EC006108CD006008CC00080083160313C70015
:1007FC00831203136908F3006808F2006708F1001C
:10080C006608F0000A128A150A200A128A11710869
:10081C0083160313C4007008C300CE01CF01CC01B2
:10082C00CD010130D0000030D100831203136908D0
:10083C00F3006808F2006708F1006608F000003069
:10084C00F7000030F6000030F5000030F4000A1616
:10085C008A113B250A128A110318352C362C842C4C
:10086C00BF3083120313CF008030CE000030CD0098
:10087C000030CC006908D3006808D2006708D100AA
:10088C006608D0000A128A119A200A128A11831261
:10089C0003134F08E9004E08E8004D08E7004C0828
:1008AC00E6002D30EC0083160313470884008312F6
:1008BC0003136C0883138000013083160313CC07D9
:1008CC000318CD0A0030CD07842C0A30F00000301C
:1008DC00F1004408F3004308F2000A168A11D424EC
:1008EC000A128A11710883160313C4007008C3001E
:1008FC000130CE070318CF0A0030CF07831603133D
:10090C0043084404031D8B2C8C2C6B2CA82D4E03FC
:10091C004F04031D922C932C982C0130D0000030E6
:10092C00D100DA2C0230C5000030C600C42C83166E
:10093C000313510883120313A100831603135008E9
:10094C0083120313A0000A30A2000030A3000A1681
:10095C008A111C230A128A1183120313210883168D
:10096C000313D10083120313200883160313D00042
:10097C000130C5070318C60A0030C6074F08803A75
:10098C0083120313EC00831603134608803A831278
:10099C0003136C02031DD62C8316031345084E0259
:1009AC000318D92CDA2C9D2C8316031350088312B0
:1009BC000313A40083160313510883120313A50019
:1009CC000030A51BFF30A600A70001300A168A11C3
:1009DC00DD250A128A11831203132708B500260895
:1009EC00B4002508B3002408B2006908B9006808EF
:1009FC00B8006708B7006608B6000A128A158B2380
:100A0C000A128A1183120313350883160313CB00C1
:100A1C0083120313340883160313CA0083120313BF
:100A2C00330883160313C900831203133208831689
:100A3C000313C800510883120313A3008316031376
:100A4C00500883120313A200831603134B08F30000
:100A5C004A08F2004908F1004808F0000A128A1509
:100A6C000A200A128A11710883120313A10070085C
:100A7C00A0000A168A111C230A128A11831203136E
:100A8C002008A4002108A5000030A51BFF30A600FB
:100A9C00A70001300A168A11DD250A128A11831269
:100AAC0003132708B5002608B4002508B300240852
:100ABC00B2006908B9006808B8006708B700660892
:100ACC00B6000A168A11F8220A128A11831203132D
:100ADC003508E9003408E8003308E7003208E6007E
:100AEC00831603134B08F3004A08F2004908F1007F
:100AFC004808F0000A128A150A200A128A11700896
:100B0C00303E83120313EC00831603134C08470783
:100B1C0083120313ED006D0884006C0883138000AE
:100B2C00013083160313CC070318CD0A0030CD0710
:100B3C00FF30CE070318CF0AFF30CF070130D000AB
:100B4C000030D1004E084F04031DAD2DAE2D8D2C61
:100B5C002E3083120313EC00831603134C08470743
:100B6C0083120313ED006D0884006C08831380005E
:100B7C00013083160313CC070318CD0A0030CD07C0
:100B8C000130C5000030C600F22D83160313510846
:100B9C0083120313A100831603135008831203134B
:100BAC00A0000A30A2000030A3000A168A111C23F0
:100BBC000A128A1183120313210883160313D1001E
:100BCC0083120313200883160313D0000130C507CA
:100BDC000318C60A0030C607831203136B08803A49
:100BEC00EC00831603134608803A831203136C023D
:100BFC00031D062E831603134508831203136A0282
:100C0C000318092E0A2ECB2D8316031350088312BA
:100C1C000313A40083160313510883120313A500B6
:100C2C000030A51BFF30A600A70001300A168A1160
:100C3C00DD250A128A11831203132708CF00260818
:100C4C00CE002508CD002408CC006908F300680804
:100C5C00F2006708F1006608F0000A128A150A20F3
:100C6C000A128A11700883120313A4007108A500DC
:100C7C000030A51BFF30A600A70001300A168A1110
:100C8C00DD250A128A11831203132708B5002608E2
:100C9C00B4002508B3002408B2006908B90068083C
:100CAC00B8006708B7006608B6000A168A11F82261
:100CBC000A128A11831203133508D3003408D200A8
:100CCC003308D1003208D0000A128A119A200A1275
:100CDC008A11831203134F0883160313CB0083125C
:100CEC0003134E0883160313CA00831203134D0813
:100CFC0083160313C900831203134C0883160313C2
:100D0C00C8004B0883120313E900831603134A0827
:100D1C0083120313E8008316031349088312031389
:100D2C00E70083160313480883120313E6006908CF
:100D3C00F3006808F2006708F1006608F0000A1278
:100D4C008A150A200A128A11013083160313D00067
:100D5C000030D100831203136B0883160313CF00EA
:100D6C00831203136A0883160313CE00D82F4E0385
:100D7C004F04031DC22EC32EC82E0130D0000030EC
:100D8C00D1000A2F0230C5000030C600F42E8316A5
:100D9C000313510883120313A10083160313500885
:100DAC0083120313A0000A30A2000030A3000A161D
:100DBC008A111C230A128A11831203132108831629
:100DCC000313D10083120313200883160313D000DE
:100DDC000130C5070318C60A0030C6074F08803A11
:100DEC0083120313EC00831603134608803A831214
:100DFC0003136C02031D062F8316031345084E02C2
:100E0C000318092F0A2FCD2E8316031350088312B3
:100E1C000313A40083160313510883120313A500B4
:100E2C000030A51BFF30A600A70001300A168A115E
:100E3C00DD250A128A11831203132708B500260830
:100E4C00B4002508B3002408B2006908B90068088A
:100E5C00B8006708B7006608B6000A128A158B231B
:100E6C000A128A1183120313350883160313CB005D
:100E7C0083120313340883160313CA00831203135B
:100E8C00330883160313C900831203133208831625
:100E9C000313C800510883120313A3008316031312
:100EAC00500883120313A200831603134B08F3009C
:100EBC004A08F2004908F1004808F0000A128A15A5
:100ECC000A200A128A11710883120313A1007008F8
:100EDC00A0000A168A111C230A128A11831203130A
:100EEC002008A4002108A5000030A51BFF30A60097
:100EFC00A70001300A168A11DD250A128A11831205
:100F0C0003132708B5002608B4002508B3002408ED
:100F1C00B2006908B9006808B8006708B70066082D
:100F2C00B6000A168A11F8220A128A1183120313C8
:100F3C003508E9003408E8003308E7003208E60019
:100F4C00831603134B08F3004A08F2004908F1001A
:100F5C004808F0000A128A150A200A128A11700831
:100F6C00303E83120313EC00831603134C0847071F
:100F7C0083120313ED006D0884006C08831380004A
:100F8C00013083160313CC070318CD0A0030CD07AC
:100F9C00FF30CE070318CF0AFF30CF070130D00047
:100FAC000030D1004E084F04031DDD2FDE2FBD2E67
:100FBC000A3083120313EC00831603134C08470703
:100FCC0083120313ED006D0884006C0883138000FA
:100FDC00080083120313EE01EF018313A030840089
:100FEC00C3300A168A118B220A128A1183010A1243
:040FFC008A15F92930
:10100200831203130C1E0628072801287008990072
:1010120008000310720D730DF4007408FA007A08C8
:10102200031D142815281E280030F3000030F2009A
:101032000030F1000030F00083287008F4007108DD
:10104200F5007208F6007308F7001F300310F70C62
:10105200F60CF50CF40CFF3E031D27287408F8006B
:101062007808F900F217FF30F005FF30F105FF3084
:10107200F2050030F3059630FA02FA1F41284228A1
:101082005C287A08803A973E0318482849284A285B
:10109200152801300310F30CF20CF10CF00CFF3E9A
:1010A200031D4B280130F4007408FA07031D5A2867
:1010B2005B284A28732820307A02031C61286228A0
:1010C2006E2815280130F4000310F00DF10DF20D19
:1010D200F30DF40B65280130FA027A08031D722819
:1010E2007328632879080319772878288328F00958
:1010F200F109F209F309F00A0319F10A0319F20AD4
:101102000319F30A0800023083120313E6000430C5
:10111200E500B930E400E40B8C28E50B8C28E60BE3
:101122008C2893287D3083120313AD008030AE00EB
:101132000A168A11BB220A128A150230831203137D
:10114200E6000430E500B930E400E40BA628E50B24
:10115200A628E60BA628AD28B93083120313AD00EA
:101162000030AE000A168A11BB220A128A1502301A
:1011720083120313E6000430E500B930E400E40B07
:10118200C028E50BC028E60BC028C7286B308312A5
:101192000313AD008030AE000A168A11BB220A1278
:1011A2008A15023083120313E6000430E500B930D9
:1011B200E400E40BDA28E50BDA28E60BDA28E1286A
:1011C2008A3083120313AD008030AE000A168A11F2
:1011D200BB220A128A15023083120313E60004307E
:1011E200E500B930E400E40BF428E50BF428E60B43
:1011F200F428FB28AF3083120313AD000030AE0099
:101202000A168A11BB220A128A15023083120313AC
:10121200E6000430E500B930E400E40B0E29E50BEA
:101222000E29E60B0E2915296B3083120313AD002C
:101232008030AE000A168A11BB220A128A150B30C0
:1012420083120313AD008030AE000A168A11BB224E
:101252000A128A15831203138C1E302931292B2975
:101262001A08D03EE4006408EE0033301A02031874
:101272003B293C292B295730AD008030AE000A169D
:101282008A11BB220A128A15831203138C1E4A2961
:101292004B2945291A08D03EE4006408831603133B
:1012A200AD000230831203136E06031D59295A2919
:1012B200602936301A0203185F2960294529423015
:1012C200AD008030AE000A168A11BB220A128A15BE
:1012D200831203138C1E6E296F2969291A08D03EC6
:1012E200E400640883160313AC0002308312031374
:1012F2006E06031D7D297E298E2905308316031370
:101302002D06031D852986298E2936308312031363
:101312001A0203188D298E29692983126E08E400A6
:10132200E5016408B5006508B600831603132D08AD
:1013320083120313E600E7016608B7006708B800E6
:101342000A168A11FE230A128A158312031335081C
:10135200E800680883160313AA002A0883120313FD
:10136200E400E5016408B5006508B60083160313BE
:101372002C0883120313E600E7016608B70067082A
:10138200B8000A168A11FE230A128A158312031361
:10139200360883160313A900831203133508831634
:1013A2000313A800033083120313E6008A30E5001A
:1013B2005530E400E40BDB29E50BDB29E60BDB29E6
:1013C200293083120313AD008030AE00831603135D
:1013D200290883120313B00083160313280883120B
:1013E2000313AF000A168A11BB220A128A150800DB
:1013F2000A168A1193230A128A15831203130711FC
:10140200033083160313D3009730D200D20B072A7E
:10141200D30B072A01300A168A117E220A128A1574
:101422000A128A110E200A128A1583160313D20099
:10143200520883120313EF00033083160313D30001
:101442009730D200D20B232AD30B232A8312031301
:1014520007150711033083160313D3009730D20008
:10146200D20B312AD30B312A02300A168A117E227C
:101472000A128A150A128A110E200A128A15831676
:101482000313D2005208AE00033083160313D300B5
:101492009730D200D20B4B2AD30B4B2A8312031361
:1014A2000715003083160313A7000030A600003092
:1014B200A5000030A4000030A3000030A2000030DC
:1014C200A1000030A000403083120313CF00A030EF
:1014D200CE000030CD000030CC004330B5007F306C
:1014E200B4000030B3000030B2006F08831603135B
:1014F200D200D301D401D501550883120313A700EA
:1015020083160313540883120313A60083160313CE
:10151200530883120313A500831603135208831280
:101522000313A40001300A168A11DD250A128A1556
:10153200831203132708B9002608B8002508B7004C
:101542002408B6000A128A158B230A128A158312FE
:1015520003133508D3003408D2003308D10032080F
:10156200D0000A128A119A200A128A1583120313D2
:101572004F0883160313A700831203134E08831622
:101582000313A600831203134D0883160313A50049
:10159200831203134C0883160313A40040308312F2
:1015A2000313CF00A030CE000030CD000030CC00BD
:1015B2004330B5007F30B4000030B3000030B200D9
:1015C200831603132E08D200D301D401D501550886
:1015D20083120313A7008316031354088312031301
:1015E200A60083160313530883120313A500831660
:1015F2000313520883120313A40001300A168A113E
:10160200DD250A128A15831203132708B90026085A
:10161200B8002508B7002408B6000A128A158B23E1
:101622000A128A15831203133508D3003408D20034
:101632003308D1003208D0000A128A119A200A1205
:101642008A15831203134F0883160313A300831210
:1016520003134E0883160313A200831203134D08CB
:1016620083160313A100831203134C08831603137A
:10167200A000270883120313E90083160313260828
:1016820083120313E800831603132508831203133E
:10169200E70083160313240883120313E6000230C3
:1016A200EA000030EB00B9300A128A11FB230A1259
:1016B2008A1583160313230883120313E900831682
:1016C2000313220883120313E8008316031321086D
:1016D20083120313E70083160313200883120313F4
:1016E200E6000230EA000030EB00AF300A128A1145
:1016F200FB230A128A150A128A1584200A128A15F5
:10170200831603132808831203138600FE290A1284
:101712008A1100288312031339088039BA003A0863
:10172200C3003908BA003A07BB003B08CA00B81F19
:101732009B2B9C2B9D2B4A144A080319A12BA22BED
:10174200B22B4A0A031DA62BA72BAF2B0030B900E0
:101752000030B8000030B7000030B600B817B90149
:10176200BA2B0030B9000030B8000030B7000030AA
:10177200B60035088039BA003A08C3063508BA00FF
:101782003A07BB003B08CB00B41FC82BC92BCA2B9E
:101792004B144B080319CE2BCF2BDF2B4B0A031D07
:1017A200D32BD42BDC2B0030B5000030B40000303A
:1017B200B3000030B200B417B501E72B0030B5001A
:1017C2000030B4000030B3000030B20035083404F9
:1017D20033043204031DEE2BEF2B082C0030B9002A
:1017E2000030B8000030B7000030B6008030B804D6
:1017F2007F30B9044308BA003A08B9043908B50081
:101802003808B4003708B3003608B200672D4A081A
:10181200031D0C2C0D2C162C0030B5000030B4002A
:101822000030B3000030B200672D4A08BA00BB0195
:101832003B08BD004B083A02BC00031CBD033C0838
:101842007F3EC4003D080318013E003EC500390832
:10185200C2003808C1003708C0003608BF00003097
:10186200B9000030B8000030B7000030B6000030D8
:10187200C9000030C8000030C7000030C600CB01EC
:101882008C2C4B080319462C472C672C0130BA00CC
:101892000310BF0DC00DC10DC20DBA0B492C013092
:1018A200BA000310B60DB70DB80DB90DBA0B522C14
:1018B200C91F5C2C5D2C5E2C36140130BA0003105B
:1018C200C60DC70DC80DC90DBA0B602C35084202F2
:1018D200031D752C34084102031D752C3308400288
:1018E200031D752C32083F02031C782C792C882C9E
:1018F20049173208BF023308031C330FC0023408F1
:10190200031C340FC1023508031C350FC20201301B
:10191200BA003A08CB071A304B02031C912C922CC6
:10192200422C4208410440043F040319992C9A2C8A
:10193200B92C4614B92C0130BA000310B60DB70DFC
:10194200B80DB90DBA0B9E2CC91FA82CA92CAA2C14
:1019520036140130BA000310C60DC70DC80DC90DEB
:10196200BA0BAC2CFF30C4070318C50AFF30C507F9
:10197200B81FBC2CBD2C9C2CCB01C91FC12CC22C66
:10198200DE2CFF304605BA00FF304705BB00FF30B2
:101992004805BC007F304905BD003D083C043B04BE
:1019A2003A040319D52CD62CD92CCB01CB0ADE2C28
:1019B200361CDC2CDD2CDE2CD62C4B080319E22C39
:1019C200E32C142D0130B607003003180130B7079D
:1019D200003003180130B807003003180130B9078E
:1019E200391CF42CF52C142D3608BA003708BB002C
:1019F2003808BC003908BD000130BE003D0DBD0CE9
:101A0200BC0CBB0CBA0CBE0BFF2C3D08B9003C0849
:101A1200B8003B08B7003A08B6000130C407031803
:101A2200C50A0030C5074508803AFF0080307F02B2
:101A3200031D1D2DFF304402031C202D212D2F2DAF
:101A4200FF3083120313C4000030C5000030B90018
:101A52000030B8000030B7000030B6008312031324
:101A62004508803AFF0080307F02031D3A2D013085
:101A7200440203183D2D3E2D4B2D83120313C40146
:101A8200C5010030B9000030B8000030B7000030A6
:101A9200B600C301831203134408BA003A08CA000D
:101AA2004A1C542D552D572DB8175B2D7F30BA0087
:101AB2003A08B8054A08BA0003103A0CBB003B08C2
:101AC200B9004308BA003A08B904FF2B08007308AA
:101AD200803983120313A0002008F8007308A000C5
:101AE2002007A1002108FA00F21F782D792D7A2D06
:101AF2007A147A0803197E2D7F2D8F2D7A0A031D01
:101B0200832D842D8C2D0030F3000030F200003044
:101B1200F1000030F000F217F301972D0030F300CE
:101B22000030F2000030F1000030F0007708803918
:101B3200A0002008F900790878060319A12DA22D2A
:101B4200A32D78177708A0002007A1002108F9002B
:101B5200F61FAC2DAD2DAE2D791479080319B22DD7
:101B6200B32DC32D790A031DB72DB82DC02D00301A
:101B7200F7000030F6000030F5000030F400F617F0
:101B8200F701CB2D0030F7000030F6000030F500F1
:101B92000030F4007A0879020318D02DD12D152EC9
:101BA200781FD42DD52DD92D8030A0002008F8061D
:101BB2007A08A0002008FB007908A0002008FA009B
:101BC2007B08A0002008F9007008A0002008FB0094
:101BD2007408A0002008F0007B08A0002008F40090
:101BE2007108A0002008FB007508A0002008F10081
:101BF2007B08A0002008F5007208A0002008FB0066
:101C02007608A0002008F2007B08A0002008F60059
:101C12007308A0002008FB007708A0002008F3004A
:101C22007B08A0002008F700FB017908A000A101B1
:101C32002108A3007A082002A200031CA3032308A0
:101C4200803AFF0080307F02031D292E1A302202C3
:101C5200031C2C2E2D2E6E2E730872047104700438
:101C6200031D342E362E0130372E0030831203131B
:101C7200A0002008FB000030F3000030F20000302A
:101C8200F1000030F0007908A0002008FA00742E5C
:101C92007B1C4C2E4D2E582E7B0883120313A00062
:101CA2000310200C0138A1002108FB005A2E03105A
:101CB200FB0C701C5D2E5E2E5F2EFB170130831213
:101CC2000313A000730DF30CF20CF10CF00CA00B3B
:101CD200632E0130A0002008FA0779087A02031C5B
:101CE200732E742E492E781B772E782EC72E7A08E3
:101CF200031D7C2E7D2E862E0030F3000030F20074
:101D02000030F1000030F000FF2F7408F007750872
:101D120003110318013E03198F2EF10776080311F0
:101D22000318013E0319962EF207770803110318D0
:101D3200013E03199D2EF307731CA02EA12E7F2FA7
:101D42007B1CA42EA52EB02E7B0883120313A000A9
:101D52000310200C0138A1002108FB00B22E031051
:101D6200FB0C701CB52EB62EB72EFB17013083125A
:101D72000313A000730DF30CF20CF10CF00CA00B8A
:101D8200BB2E0130A0002008FA077F2F7308803A8B
:101D9200FF007708803A7F02031DD92E760872026F
:101DA200031DD92E75087102031DD92E7408700205
:101DB2000318DC2EDD2E372FFF3083120313A00011
:101DC200FF30A100FF30A200FF30A3007408A4007E
:101DD2007508A5007608A6007708A7007008A40277
:101DE2007108031C710FF62EF72EA5027208031C50
:101DF200720FFC2EFD2EA6027308031C730F022F16
:101E0200032FA7022408A00725080318250F0A2F6D
:101E12000B2FA10726080318260F102F112FA20738
:101E220027080318270AA3072308F3002208F20051
:101E32002108F1002008F0008030A0002008F806F8
:101E4200FB09FB0A7B08031D272F282F452F013092
:101E5200F007003003180130F10700300318013099
:101E6200F207003003180130F307452F7408F0021F
:101E72007508031C750FF1027608031C760FF20237
:101E82007708031C770FF30273087204710470045D
:101E9200031D4C2F4D2F7B2F7B08031D512F522FDB
:101EA2007B2F0030F3000030F2000030F1000030F0
:101EB200F000FF2F013083120313A0000310F00D76
:101EC200F10DF20DF30DA00B5F2FFB1F692F6A2F8F
:101ED2006B2F70147B1C6E2F6F2F722F0314FB0D50
:101EE200742F0310FB0D7A080319782F792F7B2F9B
:101EF2000130FA02F21F7E2F7F2F5B2FF901FB1FA9
:101F0200832F842F922F7B087F390319892F8A2FE1
:101F12008D2FF901F90A922F701C902F912F922F79
:101F22008A2F79080319962F972FCD2F0130F007AA
:101F3200003003180130F107003003180130F207B6
:101F4200003003180130F307731CA82FA92FCD2FDF
:101F5200700883120313A0007108A1007208A20086
:101F62007308A3000130A400230DA30CA20CA10C42
:101F7200A00CA40BB52F2308F3002208F2002108BD
:101F8200F1002008F0007A0A0319C82FC92FCD2FBB
:101F92000130A0002008FA077A0A0319D12FD22FA4
:101FA200D72F7A08031DD62FD72FE52F0030F30045
:101FB2000030F2000030F1000030F0007A08031D1A
:101FC200E32FE42FE52FF8017A1CE82FE92FEB2FFE
:101FD200F217F12F7F3083120313A0002008F205BD
:101FE2007A0883120313A0000310200CA100210819
:101FF200F300F81FFD2FFE2FFF2FF3170800FF1B22
:102002000A2883137F1883170008840A0319FF0A1A
:10201200080010308A000408840A82070034013460
:1020220000340A34003464340034E83403341034A5
:10203200273449346E34673472346534733461340E
:1020420072342034433465346E34743465346E34FF
:1020520061343A342034523461346E3467346F342C
:10206200283430342D34323429340D34003445349C
:102072006C3420346E3475346D34653472346F349C
:10208200203465346C3465346734693464346F34B5
:102092002034653473343A342034253464340034C3
:1020A20049346E3467347234653473346134723453
:1020B200203455346E3469346434613464346534A4
:1020C20073343A3420340D34003449346E34673476
:1020D2007234653473346134723420344434653478
:1020E200633465346E34613473343A3420340D34DD
:1020F20000340D342D342D342D342D342D342D3423
:102102002D342D342D342D342D342D342D342D34C5
:102112002D340D3400340D34533465346E3473343D
:102122006F347234203431343A3420340D34003474
:102132000D34533465346E3473346F347234203456
:0A21420032343A3420340D340034F6
:1024FC00F000700883120313930008008316031373
:10250C00141C892A8A2A842A080064008001840AFF
:10251C0004060319003404068C2AF100F0013A3049
:10252C00710203189A2A9B2AA32A30307102031CC9
:10253C00A02AA12AA32AF001F00A700C0800F300CB
:10254C00831603138712731DAC2AAD2AB12A7208A5
:10255C0094008715B52A70087204940087117308CB
:10256C007104831203139400080083120313B30144
:10257C000130B1003108B4002F30B1003108B20085
:10258C002D08A0002E08A1003230B1003108A200A5
:10259C0033300A168A1199260A168A1108008312FA
:1025AC000313B2003208B0003008B300B4012E306F
:1025BC00B0003008B1002D08A0000030031D8030A1
:1025CC00A1003130B0003008A20033300A168A1155
:1025DC0099260A168A118312031333088400831375
:1025EC0080010800803083120313B5063908F3000C
:1025FC003808F2003708F1003608F0003508F7000B
:10260C003408F6003308F5003208F4000A128A1573
:10261C0068250A168A11730883120313B500720811
:10262C00B4007108B3007008B2000800FB01FC0193
:10263C0083120313201C232B242B2A2B2208FB0789
:10264C000318FC0A2308FC0701300310A20DA30D8C
:10265C00FF3E031D2B2B01300310A10CA00CFF3EE1
:10266C00031D322B20082104031D3D2B3E2B1E2B5A
:10267C007C08A1007B08A0000800F800F401F5011B
:10268C007008F200F3017208F6007308F700781C6A
:10269C00502B512B572B7608F4070318F50A7708A3
:1026AC00F50701300310F60DF70DFF3E031D582BF7
:1026BC000310F80C7808031D642B652B4D2B750843
:1026CC00F1007408F0000800F2007208F1007108C3
:1026DC00F300742B0130F1007108F30773088400C8
:1026EC0083130008031D7B2B7C2B702B852B013057
:1026FC00F1007108F3070130F1007108F007700860
:10270C0084000008F1007308840071088000000840
:10271C00031D912B922B7D2B080083160317880128
:10272C008901831603138601880183120313860122
:10273C0088010715F001F101F20120300A168A1107
:10274C00A5220A168A1107300A168A117F240A1646
:10275C008A1183160313181218158316031787157D
:10276C00CF308316031399009A0183120313981721
:10277C001813181683160313981608007808790492
:10278C000319C92BCA2BF92BFD01FD0AD82B0130DB
:10279C000310F80DF90DFF3E031DCE2B0130FC008C
:1027AC007C08FD07F91FDB2BDC2BCD2B79087B027A
:1027BC00031DE22B78087A02031CE52BE62BEC2B8D
:1027CC007808FA027908031CFB03FB0201300310A2
:1027DC00F90CF80CFF3E031DED2B0130FD02031D1F
:1027EC00F82BF92BDC2B7B08F9007A08F800080091
:1027FC003F3083120313B9003908AD003608AF001F
:10280C003508AE004E300A168A11D5220A168A11E6
:10281C003F3083120313B9003908AD003808AF00FC
:10282C003708AE003A300A168A11D5220A168A11D8
:10283C003A3083120313B9003908F0004E300A16EF
:10284C008A116A230A168A114E300A128A1117202D
:10285C000A168A11831203132508E3002408E200E8
:10286C006308B6006208B5000800F501F6017008AF
:10287C0071040319422C432C7A2CF701F70A512CC2
:10288C0001300310F00DF10DFF3E031D472C0130FC
:10289C00F4007408F707F11F542C552C462C01300A
:1028AC000310F50DF60DFF3E031D562C7108730237
:1028BC00031D622C70087202031C652C662C6D2C97
:1028CC007008F2027108031CF303F3027514013053
:1028DC000310F10CF00CFF3E031D6E2C0130F702BF
:1028EC00031D792C7A2C552C7608F1007508F00014
:1028FC000800F200B32C8F30831603138F05D22CF3
:10290C00831603130F088F3910388F00D22C8F3099
:10291C00831603138F05D22C831603130F088F39DC
:10292C0010388F00D22C831603130F088F394038C0
:10293C008F00D22C831603130F088F3950388F0059
:10294C00D22C7030831603138F04D22C83160313EE
:10295C000F088F3960388F00D22C7208F000F1010B
:10296C007108003A0319BB2CAC2C7008003A0319FF
:10297C00812C013A0319862C033A03198D2C013A48
:10298C000319922C073A0319992C013A0319A02C1C
:10299C00023A0319A72CAC2C0F140800F601F11FF6
:1029AC00D82CD92CE02CF009F109F00A0319F10A02
:1029BC00F601F60AF31FE32CE42CED2CF209F309D3
:1029CC00F20A0319F30A0130F4007408F606F70151
:1029DC00F801700871040319F42CF52C2C2DF50159
:1029EC00F50A032D01300310F00DF10DFF3E031D10
:1029FC00F92C0130F4007408F507F11F062D072D92
:102A0C00F82C01300310F70DF80DFF3E031D082DB7
:102A1C0071087302031D142D70087202031C172D0C
:102A2C00182D1F2D7008F2027108031CF303F3021A
:102A3C00771401300310F10CF00CFF3E031D202D18
:102A4C000130F502031D2B2D2C2D072D76080319B3
:102A5C00302D312D362DF709F809F70A0319F80A2C
:102A6C007808F1007708F000080000307005F800D5
:102A7C0000307105F90080307205FA007F30730563
:102A8C00FB007B087A0479047804031D4E2D4F2D2E
:102A9C00572D0030F3000030F2000030F100003010
:102AAC00F00000307405F80000307505F900803036
:102ABC007605FA007F307705FB007B087A047904F1
:102ACC007804031D6A2D6B2D732D0030F700003038
:102ADC00F6000030F5000030F400F31F762D772D52
:102AEC009B2D0030F8000030F9000030FA008030E7
:102AFC00FB007008F8027108031C710F862D872DDE
:102B0C00F9027208031C720F8C2D8D2DFA027308BA
:102B1C00031C730F922D932DFB027B08F3007A0894
:102B2C00F2007908F1007808F000F71F9E2D9F2D18
:102B3C00C32D0030F8000030F9000030FA0080306E
:102B4C00FB007408F8027508031C750FAE2DAF2D31
:102B5C00F9027608031C760FB42DB52DFA0277080E
:102B6C00031C770FBA2DBB2DFB027B08F7007A08EC
:102B7C00F6007908F5007808F4008030F306803010
:102B8C00F70677087302031DD52D76087202031D14
:102B9C00D52D75087102031DD52D7408700203180C
:102BAC00D82DD92DDB2D0310DC2D03140800831236
:102BBC000313AC002C080319E42DE52DF92DA71FE8
:102BCC00E82DE92DF92D2409AE002509AF002609C1
:102BDC00B0002709B100AE0A0319AF0A0319B00AF5
:102BEC000319B10A012E2708B1002608B0002508E8
:102BFC00AF002408AE002708260425042404031D76
:102C0C00082E092E122E0030A7000030A60000302E
:102C1C00A5000030A400982E9630A8002808AD001E
:102C2C00242E0130A8002808AD0701300310B10C88
:102C3C00B00CAF0CAE0CFF3E031D1C2EFE3031054C
:102C4C00031D292E2A2E172E462E0130A8002808E7
:102C5C00AD070130AE07003003180130AF0700306C
:102C6C0003180130B007003003180130B1070130F0
:102C7C000310B10CB00CAF0CAE0CFF3E031D3E2E7E
:102C8C00FF303105031D4B2E4C2E2B2E582E0130B0
:102C9C00AD020130A8000310AE0DAF0DB00DB10D9B
:102CAC00A80B512EB01B5B2E5C2E622E02302D0217
:102CBC000318612E622E4D2E2D18652E662E6E2E4B
:102CCC00FF30AE05FF30AF057F30B005FF30B105EA
:102CDC000310AD0C2D08A800A901AA01AB011830F6
:102CEC000310A80DA90DAA0DAB0DFF3E031D762EEA
:102CFC002808AE042908AF042A08B0042B08B10434
:102D0C002C0803198A2E8B2E902EA71F8E2E8F2EF9
:102D1C00902EB1173108A7003008A6002F08A50087
:102D2C002E08A400080083120313AC00E32F2530F7
:102D3C002B060319A22EA32EC92E2C0A8400831352
:102D4C0000080319AA2EAB2EBA2E2B08A3002308B9
:102D5C00F0002C0A840000080A128A1103200A16BB
:102D6C008A11831203139C2E2B08A3002C088400B9
:102D7C0000088400230880000130A3002C08840084
:102D8C00230880079C2EA701F12E2C0A84008313A4
:102D9C0000080319D22ED32EE22E2B08A3002308F1
:102DAC00F0002C0A840000080A128A1103200A166B
:102DBC008A11831203139C2E2B08A3002C08840069
:102DCC0000088400230880000130A3002C08840034
:102DDC00230880079C2E2108A4002008A300A00A29
:102DEC000319A10A2408FF00230884000A168A117B
:102DFC0000200A168A11AB00A500A6012608003A8D
:102E0C000319092FCB2E2508003A0319FD2F643A1C
:102E1C000319142F0D3A0319142FCB2E22088400FA
:102E2C0083130008A30002308007230884000008E5
:102E3C00A900840A0008AA00AA1F252F262F2F2FCD
:102E4C000330A3002308A704A909AA09A90A031996
:102E5C00AA0AAB01AB0A2B08A3002307013E84008E
:102E6C000A168A110A200A168A11A4000A168A1157
:102E7C000A200A168A11A50025082A02031D482FCC
:102E8C002408290203184B2F4C2F4D2F572F01309C
:102E9C00A3002308AB0705302B06031D562F572F15
:102EAC00312F2708033903195C2F5D2F802F2C0A33
:102EBC008400831300080319642F652F722F2D30A3
:102ECC00A3002308F0002C0A840000080A128A11BF
:102EDC0003200A168A11802F2D30A3002C088400A1
:102EEC0000088400230880000130A3002C08840013
:102EFC0023088007831203132B08A3002308A800C0
:102F0C00D82F0A30F8000030F9002808A300230756
:102F1C00013E84000A168A110A200A168A11F00052
:102F2C000A168A110A200A168A11F1002A08F300DF
:102F3C002908F2000A168A113B240A168A11710814
:102F4C00FB007008FA000A168A11C4230A168A11AB
:102F5C007808303E83120313A4002408AB002C0A1B
:102F6C008400831300080319BC2FBD2FCA2F2B0814
:102F7C00A3002308F0002C0A840000080A128A110E
:102F8C0003200A168A11D82F2B08A3002C088400C2
:102F9C0000088400230880000130A3002C08840062
:102FAC0023088007FF3083120313A3002308A8070C
:102FBC00280A031DE22FE32F872F83120313210806
:102FCC00A4002008A300A00A0319A10A2408FF00EA
:102FDC00230884000A168A1100200A168A11A500FB
:102FEC002508AB002B08031DFC2FFD2F9D2EA001E7
:042FFC00A101080027
:04400E00C420FF3F8C
:00000001FF
