:100000000A128A11F32FFF1B0D2883137F18831701
:100010000008840A0319FF0A080000308A00040857
:10002000840A820700344134443443343A3400347F
:0E00300043344F344E345434003456340034CC
:100048000310720D730DF4007408FA007A08031D8A
:100058002E282F2838280030F3000030F200003016
:10006800F1000030F0009D287008F4007108F500D8
:100078007208F6007308F7001F300310F70CF60C2F
:10008800F50CF40CFF3E031D41287408F8007808AD
:10009800F900F217FF30F005FF30F105FF30F205E7
:1000A8000030F3059630FA02FA1F5B285C287628A0
:1000B8007A08803A973E03186228632864282F2814
:1000C80001300310F30CF20CF10CF00CFF3E031D91
:1000D80065280130F4007408FA07031D7428752890
:1000E80064288D2820307A02031C7B287C288828E5
:1000F8002F280130F4000310F00DF10DF20DF30D6F
:10010800F40B7F280130FA027A08031D8C288D2809
:100118007D2879080319912892289D28F009F1096A
:10012800F209F309F00A0319F10A0319F20A03198B
:10013800F30A0800831203134F088039D4005408C7
:10014800D9004F08D4005407D5005508DF00CE1F4A
:10015800AE28AF28B0285F145F080319B428B52863
:10016800C4285F0A031DB928BA28C2280030CF0066
:100178000030CE000030CD000030CC00CE17CC28A7
:100188000030CF000030CE000030CD000030CC0071
:1001980053088039D4005408D9065308D4005407AA
:1001A800D5005508DE00D21FDA28DB28DC285E14CB
:1001B8005E080319E028E128F0285E0A031DE528F7
:1001C800E628EE280030D3000030D2000030D100FD
:1001D8000030D000D217F8280030D3000030D20009
:1001E8000030D1000030D0005E080319FC28FD283B
:1001F80002295F08031D012902290B290030CF00BD
:100208000030CE000030CD000030CC00FE2B4C0872
:10021800D4005408F00052080A168A113D260A1222
:100228008A11710883120313E5007008E40064085A
:10023800D400D501D601D7015708DD005608DC00E7
:100248005508DB005408DA006508D400D501D6014A
:10025800D7015708E3005608E2005508E1005408A2
:10026800E0004D08D4005408F00051080A168A111D
:100278003D260A128A11710883120313E5007008DB
:10028800E4006408D400D501D601D7015408DA0780
:10029800550803110318013E03195329DB075608B3
:1002A80003110318013E03195A29DC0757080311E3
:1002B8000318013E03196129DD076508D400D5013B
:1002C800D601D7015408E007550803110318013E69
:1002D80003196F29E107560803110318013E031992
:1002E8007629E207570803110318013E03197D29EF
:1002F800E3074E08D4005408F00050080A168A1183
:100308003D260A128A11710883120313E50070084A
:10031800E4006408D400D501D601D7015408DA07EF
:10032800550803110318013E03199B29DB075608DA
:1003380003110318013E0319A229DC07570803110A
:100348000318013E0319A929DD076508D400D50162
:10035800D601D7015408E007550803110318013ED8
:100368000319B729E107560803110318013E0319B9
:10037800BE29E207570803110318013E0319C529CE
:10038800E3070830D4000310DA0DDB0DDC0DDD0DBA
:10039800D40BC7294D08D4005408F00050080A1699
:1003A8008A113D260A128A11710883120313E50087
:1003B8007008E4006408D4006508D500D601D701A8
:1003C8005408DA07550803110318013E0319ED29EB
:1003D800DB07560803110318013E0319F429DC074B
:1003E800570803110318013E0319FB29DD074C08C0
:1003F800D4005408F00051080A168A113D260A1242
:100408008A11710883120313E5007008E400640878
:10041800D4006508D500D601D7015408DA07550875
:1004280003110318013E03191A2ADB0756080311A2
:100438000318013E0319212ADC0757080311031882
:10044800013E0319282ADD070830D4000310DA0D0D
:10045800DB0DDC0DDD0DD40B2A2A4C08D400540822
:10046800F00050080A168A113D260A128A117108EE
:1004780083120313E5007008E4006408D4006508DB
:10048800D500D601D7015408DA0755080311031817
:10049800013E0319502ADB07560803110318013ED1
:1004A8000319572ADC07570803110318013E0319DB
:1004B8005E2ADD074D08D4005408F00052080A16D9
:1004C8008A113D260A128A11710883120313E50066
:1004D8007008E4006408D4006508D500D601D70187
:1004E8005408E007550803110318013E03197D2A33
:1004F800E107560803110318013E0319842AE2078D
:10050800570803110318013E03198B2AE3074E0805
:10051800D4005408F00051080A168A113D260A1220
:100528008A11710883120313E5007008E400640857
:10053800D4006508D500D601D7015408E00755084E
:1005480003110318013E0319AA2AE10756080311EB
:100558000318013E0319B12AE207570803110318CB
:10056800013E0319B82AE3074E08D4005408F000E6
:1005780052080A168A113D260A128A117108831236
:100588000313E5007008E4006408D4006508D5008A
:10059800D601D70108300310D40DD50DD60DD70DCF
:1005A800FF3E031DCF2A5408E0075508031103181E
:1005B800013E0319E02AE107560803110318013E1A
:1005C8000319E72AE207570803110318013E031924
:1005D800EE2AE3075A08D4005B08D5005C08D60069
:1005E8005D08D70018300310D70CD60CD50CD40CE6
:1005F800FF3E031DF72A5408E007550803110318A6
:10060800013E0319082BE107560803110318013EA0
:1006180003190F2BE207570803110318013E0319AA
:10062800162BE3070830D4000310DA0DDB0DDC0DC0
:10063800DD0DD40B182B5F085E07D400D501D50D4E
:100648005408823EE40055080318013EFF3EE500C9
:100658004A2B0130D4000310E00DE10DE20DE30D4B
:10066800D40B2F2BDD1F392B3A2B3B2B6014013079
:10067800D4000310DA0DDB0DDC0DDD0DD40B3D2BA2
:10068800FF30E4070318E50AFF30E507E21F4D2BAA
:100698004E2B2D2BDE01DD1F522B532B6F2BFF30E2
:1006A8005A05D400FF305B05D500FF305C05D60045
:1006B8007F305D05D70057085604550454040319C4
:1006C800662B672B6A2BDE01DE0A6F2B601C6D2BF5
:1006D8006E2B6F2B672B5E080319732B742BA52BBE
:1006E8000130E007003003180130E107003003183B
:1006F8000130E207003003180130E307631C852B43
:10070800862BA52B6008D4006108D5006208D600A6
:100718006308D7000130D800570DD70CD60CD50C7C
:10072800D40CD80B902B5708E3005608E200550864
:10073800E1005408E0000130E4070318E50A00303E
:10074800E5076508803AFF0080307F02031DAE2B65
:10075800FF306402031CB12BB22BBD2B7F308312F8
:100768000313E3008030E2000030E1000030E000D5
:10077800F22B831203136508803AFF0080307F0252
:10078800031DC82B013064020318CB2BCC2BD82BAC
:10079800003083120313E3000030E2000030E10070
:1007A8000030E000D901F22B831203136408D4004F
:1007B8005408DF00FF30E005FF30E1057F30E20537
:1007C8000030E3055F1CE92BEA2BEB2BE2175F08EF
:1007D800D4000310540CD5005508E3005908D40080
:1007E8005408E3046308CF006208CE006108CD0016
:1007F8006008CC00080083160313C2008312031399
:100808006908F3006808F2006708F1006608F0005C
:100818000A128A1124200A128A11710883160313F6
:10082800BF007008BE00C901CA01C701C801013074
:10083800CB000030CC00831203136908F30068086A
:10084800F2006708F1006608F0000030F700003099
:10085800F6000030F5000030F4000A128A15612015
:100868000A128A110318392C3A2C882CBF308312AB
:100878000313CF008030CE000030CD000030CC0014
:100888006908D3006808D2006708D1006608D0005C
:100898000A128A119E200A128A11831203134F0822
:1008A800E9004E08E8004D08E7004C08E6002D3046
:1008B800EC008316031342088400831203136C08A8
:1008C80083138000013083160313C7070318C80A6F
:1008D8000030C807882C0A30F0000030F1003F08CB
:1008E800F3003E08F2000A168A1199270A128A11A3
:1008F800710883160313BF007008BE000130C907D2
:100908000318CA0A0030CA07831603133E083F04B7
:10091800031D8F2C902C6F2CAC2D49034A04031D0A
:10092800962C972C9C2C0130CB000030CC00DE2C70
:100938000230C0000030C100C82C831603134C08D5
:1009480083120313A100831603134B0883120313A6
:10095800A0000A30A2000030A3000A168A116426FB
:100968000A128A1183120313210883160313CC0079
:1009780083120313200883160313CB000130C0072A
:100988000318C10A0030C1074A08803A83120313CA
:10099800EC00831603134108803A831203136C0298
:1009A800031DDA2C83160313400849020318DD2CB3
:1009B800DE2CA12C831603134B0883120313A40007
:1009C800831603134C0883120313A5000030A51BDC
:1009D800FF30A600A70001300A128A1503210A1267
:1009E8008A11831203132708B5002608B4002508C6
:1009F800B3002408B2006908B9006808B80067089D
:100A0800B7006608B6000A128A158B230A128A11E3
:100A180083120313350883160313C60083120313C6
:100A2800340883160313C50083120313330883168F
:100A38000313C40083120313320883160313C3007D
:100A48004C0883120313A300831603134B08831265
:100A58000313A200831603134608F3004508F200A7
:100A68004408F1004308F0000A128A1124200A12EF
:100A78008A11710883120313A1007008A0000A16D6
:100A88008A1164260A128A11831203132008A4000B
:100A98002108A5000030A51BFF30A600A7000130E3
:100AA8000A128A1503210A128A11831203132708CE
:100AB800B5002608B4002508B3002408B200690868
:100AC800B9006808B8006708B7006608B6000A16D3
:100AD8008A11F3250A128A11831203133508E900D3
:100AE8003408E8003308E7003208E60083160313E9
:100AF8004608F3004508F2004408F1004308F000F6
:100B08000A128A1124200A128A117008303E8312B0
:100B18000313EC00831603134708420783120313D9
:100B2800ED006D0884006C08831380000130831683
:100B38000313C7070318C80A0030C807FF30C907DE
:100B48000318CA0AFF30CA070130CB000030CC00B6
:100B580049084A04031DB12DB22D912C2E30831261
:100B68000313EC0083160313470842078312031389
:100B7800ED006D0884006C08831380000130831633
:100B88000313C7070318C80A0030C8070130C0009C
:100B98000030C100F62D831603134C08831203138B
:100BA800A100831603134B0883120313A0000A3015
:100BB800A2000030A3000A168A1164260A128A11BC
:100BC80083120313210883160313CC008312031323
:100BD800200883160313CB000130C0070318C10A8D
:100BE8000030C107831203136B08803AEC008316A8
:100BF80003134108803A831203136C02031D0A2E63
:100C0800831603134008831203136A0203180D2E78
:100C18000E2ECF2D831603134B0883120313A40043
:100C2800831603134C0883120313A5000030A51B79
:100C3800FF30A600A70001300A128A1503210A1204
:100C48008A11831203132708CF002608CE0025082F
:100C5800CD002408CC006908F3006808F200670892
:100C6800F1006608F0000A128A1124200A128A117B
:100C7800700883120313A4007108A5000030A51B97
:100C8800FF30A600A70001300A128A1503210A12B4
:100C98008A11831203132708B5002608B400250813
:100CA800B3002408B2006908B9006808B8006708EA
:100CB800B7006608B6000A168A11F3250A128A11C7
:100CC800831203133508D3003408D2003308D10047
:100CD8003208D0000A128A119E200A128A11831241
:100CE80003134F0883160313C600831203134E0819
:100CF80083160313C500831203134D0883160313C9
:100D0800C400831203134C0883160313C300460858
:100D180083120313E9008316031345088312031390
:100D2800E80083160313440883120313E7008316AD
:100D38000313430883120313E6006908F3006808E5
:100D4800F2006708F1006608F0000A128A112420F0
:100D58000A128A11013083160313CB000030CC002D
:100D6800831203136B0883160313CA008312031339
:100D78006A0883160313C900DC2F49034A04031DBC
:100D8800C62EC72ECC2E0130CB000030CC000E2F43
:100D98000230C0000030C100F82E831603134C083F
:100DA80083120313A100831603134B088312031342
:100DB800A0000A30A2000030A3000A168A11642697
:100DC8000A128A1183120313210883160313CC0015
:100DD80083120313200883160313CB000130C007C6
:100DE8000318C10A0030C1074A08803A8312031366
:100DF800EC00831603134108803A831203136C0234
:100E0800031D0A2F831603134008490203180D2FE8
:100E18000E2FD12E831603134B0883120313A4003D
:100E2800831603134C0883120313A5000030A51B77
:100E3800FF30A600A70001300A128A1503210A1202
:100E48008A11831203132708B5002608B400250861
:100E5800B3002408B2006908B9006808B800670838
:100E6800B7006608B6000A128A158B230A128A117F
:100E780083120313350883160313C6008312031362
:100E8800340883160313C50083120313330883162B
:100E98000313C40083120313320883160313C30019
:100EA8004C0883120313A300831603134B08831201
:100EB8000313A200831603134608F3004508F20043
:100EC8004408F1004308F0000A128A1124200A128B
:100ED8008A11710883120313A1007008A0000A1672
:100EE8008A1164260A128A11831203132008A400A7
:100EF8002108A5000030A51BFF30A600A70001307F
:100F08000A128A1503210A128A1183120313270869
:100F1800B5002608B4002508B3002408B200690803
:100F2800B9006808B8006708B7006608B6000A166E
:100F38008A11F3250A128A11831203133508E9006E
:100F48003408E8003308E7003208E6008316031384
:100F58004608F3004508F2004408F1004308F00091
:100F68000A128A1124200A128A117008303E83124C
:100F78000313EC0083160313470842078312031375
:100F8800ED006D0884006C0883138000013083161F
:100F98000313C7070318C80A0030C807FF30C9077A
:100FA8000318CA0AFF30CA070130CB000030CC0052
:100FB80049084A04031DE12FE22FC12E0A3083128B
:100FC8000313EC0083160313470842078312031325
:100FD800ED006D0884006C088313800008008313FB
:100FE800A0308400BE300A168A117B250A128A11A5
:080FF80083010A128A15BF29CA
:10100400F30083120313091073080A168A11752555
:101014000A128A158312031309150B30F200623089
:10102400F100F10B1328F20B1328000083120313B1
:101034000911080000300A168A1175250A128A154A
:101044003430F500F130F400F40B2628F50B262893
:101054002B2830300A128A1502200A128A150D3004
:10106400F500FB30F400F40B3528F50B35283A284D
:1010740030300A128A1502200A128A151D30F50032
:101084009130F400F40B4428F50B442830300A1254
:101094008A1502200A128A1538300A128A1502208B
:1010A4000A128A150C300A128A1502200A128A15AD
:1010B40006300A128A1502200A128A150800003026
:1010C4007005F80000307105F90080307205FA00EF
:1010D4007F307305FB007B087A0479047804031DD0
:1010E400742875287D280030F3000030F2000030A9
:1010F400F1000030F00000307405F8000030750590
:10110400F90080307605FA007F307705FB007B0814
:101114007A0479047804031D9028912899280030D2
:10112400F7000030F6000030F5000030F400F31F43
:101134009C289D28C1280030F8000030F9000030B8
:10114400FA008030FB007008F8027108031C710F6C
:10115400AC28AD28F9027208031C720FB228B32818
:10116400FA027308031C730FB828B928FB027B0822
:10117400F3007A08F2007908F1007808F000F71F0C
:10118400C428C528E9280030F8000030F9000030F0
:10119400FA008030FB007408F8027508031C750F10
:1011A400D428D528F9027608031C760FDA28DB2820
:1011B400FA027708031C770FE028E128FB027B087A
:1011C400F7007A08F6007908F5007808F400803012
:1011D400F3068030F70677087302031DFB287608B0
:1011E4007202031DFB2875087102031DFB28740895
:1011F40070020318FE28FF28012903100229031492
:10120400080083120313AC002C0803190A290B29C4
:101214001F29A71F0E290F291F292409AE002509FC
:10122400AF002609B0002709B100AE0A0319AF0ABE
:101234000319B00A0319B10A27292708B10026089F
:10124400B0002508AF002408AE00270826042504B2
:101254002404031D2E292F2938290030A70000302B
:10126400A6000030A5000030A400BE299630A800D6
:101274002808AD004A290130A8002808AD0701302C
:101284000310B10CB00CAF0CAE0CFF3E031D422991
:10129400FE303105031D4F2950293D296C290130A9
:1012A400A8002808AD070130AE070030031801304C
:1012B400AF07003003180130B007003003180130C5
:1012C400B10701300310B10CB00CAF0CAE0CFF3EF3
:1012D400031D6429FF303105031D71297229512929
:1012E4007E290130AD020130A8000310AE0DAF0D10
:1012F400B00DB10DA80B7729B01B8129822988294B
:1013040002302D0203188729882973292D188B2967
:101314008C299429FF30AE05FF30AF057F30B0052E
:10132400FF30B1050310AD0C2D08A800A901AA01D6
:10133400AB0118300310A80DA90DAA0DAB0DFF3E8B
:10134400031D9C292808AE042908AF042A08B00408
:101354002B08B1042C080319B029B129B629A71FF9
:10136400B429B529B629B1173108A7003008A60059
:101374002F08A5002E08A40008000A168A111726B3
:101384000A128A150A128A151C200A128A150A16CC
:101394008A11AC250A128A150A168A1183250A12A3
:1013A4008A155130F0000030F1000A168A11952593
:1013B4000A128A150030F000F1000A168A118B26F1
:1013C4000A128A15700883160313CD004D08A9006C
:1013D4000A168A118C250A128A1503308316031300
:1013E400CF000830CE007630CD00CD0BF729CE0BE0
:1013F400F729CF0BF72900000A168A1183250A1250
:101404008A156130F0000030F1000A168A11952522
:101414000A128A150030F000F1000A168A118B2690
:101424000A128A15700883160313CD004D08A8000C
:101434000A168A118C250A128A150330831603139F
:10144400CF000830CE007630CD00CD0B272ACE0B4E
:10145400272ACF0B272A0000F401F40A01300A16C8
:101464008A11CF250A128A150130F3008030F40066
:101474000A168A11F1260A128A15083083160313F4
:10148400CD004D08F40001300A168A11CF250A1246
:101494008A150630F3008030F4000A168A11F1260A
:1014A4000A128A15003083160313A7000030A60021
:1014B4000030A5000030A4000030A3000030A200DA
:1014C4000030A1000030A000403083120313CF008D
:1014D400A030CE000030CD000030CC004330B50049
:1014E4007F30B4000030B3000030B2008316031321
:1014F4002908CD00CE01CF01D00150088312031377
:10150400A700831603134F0883120313A600831640
:1015140003134E0883120313A500831603134D0807
:1015240083120313A40001300A128A1503210A123C
:101534008A15831203132708B9002608B800250862
:10154400B7002408B6000A128A158B230A128A15DA
:10155400831203133508D3003408D2003308D100B2
:101564003208D0000A128A119E200A128A158312A8
:1015740003134F0883160313A700831203134E08A3
:1015840083160313A600831203134D088316031353
:10159400A500831203134C0883160313A400270821
:1015A40083120313E900831603132608831203131B
:1015B400E80083160313250883120313E700831638
:1015C4000313240883120313E6000230EA000030F8
:1015D400EB00B4300A128A11FF230A128A15F401AF
:1015E400F40A02300A168A11CF250A128A15B43079
:1015F400F3000030F4000A168A11F1260A128A1543
:10160400053083160313CD004D08F40002300A168A
:101614008A11CF250A128A150B30F3008030F400AA
:101624000A168A11F1260A128A158316031328084A
:10163400CD00CE01CF01D001500883120313A700BF
:10164400831603134F0883120313A6008316031390
:101654004E0883120313A500831603134D08831247
:101664000313A40000300A128A1503210A128A15F2
:1016740083120313270883160313D400831203135E
:10168400260883160313D300831203132508831635
:101694000313D20083120313240883160313D10007
:1016A400540883120313E9008316031353088312A7
:1016B4000313E80083160313520883120313E7008D
:1016C40083160313510883120313E6000230EA0061
:1016D4000030EB00AA300A128A11FF230A128A157D
:1016E400073083160313CD004D08F40002300A16A8
:1016F4008A11CF250A128A15AA30F3000030F400AB
:101704000A168A11F1260A128A15CE290A128A119A
:1017140000288312031339088039BA003A08C30039
:101724003908BA003A07BB003B08CA00B81F9B2B14
:101734009C2B9D2B4A144A080319A12BA22BB22BD4
:101744004A0A031DA62BA72BAF2B0030B90000308B
:10175400B8000030B7000030B600B817B901BA2B92
:101764000030B9000030B8000030B7000030B600D7
:1017740035088039BA003A08C3063508BA003A0772
:10178400BB003B08CB00B41FC82BC92BCA2B4B147E
:101794004B080319CE2BCF2BDF2B4B0A031DD32B66
:1017A400D42BDC2B0030B5000030B4000030B30083
:1017B4000030B200B417B501E72B0030B50000309B
:1017C400B4000030B3000030B200350834043304F0
:1017D4003204031DEE2BEF2B082C0030B90000302F
:1017E400B8000030B7000030B6008030B8047F3055
:1017F400B9044308BA003A08B9043908B5003808EE
:10180400B4003708B3003608B200672D4A08031D38
:101814000C2C0D2C162C0030B5000030B400003018
:10182400B3000030B200672D4A08BA00BB013B0880
:10183400BD004B083A02BC00031CBD033C087F3EBC
:10184400C4003D080318013E003EC5003908C2002B
:101854003808C1003708C0003608BF000030B9009E
:101864000030B8000030B7000030B6000030C900C6
:101874000030C8000030C7000030C600CB018C2CFB
:101884004B080319462C472C672C0130BA0003106F
:10189400BF0DC00DC10DC20DBA0B492C0130BA00E9
:1018A4000310B60DB70DB80DB90DBA0B522CC91FE4
:1018B4005C2C5D2C5E2C36140130BA000310C60D6E
:1018C400C70DC80DC90DBA0B602C35084202031DA3
:1018D400752C34084102031D752C33084002031D86
:1018E400752C32083F02031C782C792C882C49175C
:1018F4003208BF023308031C330FC0023408031C30
:10190400340FC1023508031C350FC2020130BA007E
:101914003A08CB071A304B02031C912C922C422C10
:101924004208410440043F040319992C9A2CB92C11
:101934004614B92C0130BA000310B60DB70DB80D1A
:10194400B90DBA0B9E2CC91FA82CA92CAA2C36148D
:101954000130BA000310C60DC70DC80DC90DBA0B6E
:10196400AC2CFF30C4070318C50AFF30C507B81FE5
:10197400BC2CBD2C9C2CCB01C91FC12CC22CDE2C31
:10198400FF304605BA00FF304705BB00FF3048056D
:10199400BC007F304905BD003D083C043B043A04CB
:1019A4000319D52CD62CD92CCB01CB0ADE2C361C12
:1019B400DC2CDD2CDE2CD62C4B080319E22CE32C7A
:1019C400142D0130B607003003180130B70700307A
:1019D40003180130B807003003180130B907391C67
:1019E400F42CF52C142D3608BA003708BB0038083F
:1019F400BC003908BD000130BE003D0DBD0CBC0C5F
:101A0400BB0CBA0CBE0BFF2C3D08B9003C08B80057
:101A14003B08B7003A08B6000130C4070318C50AEA
:101A24000030C5074508803AFF0080307F02031D5F
:101A34001D2DFF304402031C202D212D2F2DFF309E
:101A440083120313C4000030C5000030B900003015
:101A5400B8000030B7000030B60083120313450805
:101A6400803AFF0080307F02031D3A2D013044028A
:101A740003183D2D3E2D4B2D83120313C401C501C4
:101A84000030B9000030B8000030B7000030B600B4
:101A9400C301831203134408BA003A08CA004A1C5B
:101AA400542D552D572DB8175B2D7F30BA003A08A9
:101AB400B8054A08BA0003103A0CBB003B08B90049
:101AC4004308BA003A08B904FF2B080073088039A8
:101AD40083120313A0002008F8007308A000200755
:101AE400A1002108FA00F21F782D792D7A2D7A149D
:101AF4007A0803197E2D7F2D8F2D7A0A031D832DDD
:101B0400842D8C2D0030F3000030F2000030F10001
:101B14000030F000F217F301972D0030F30000308D
:101B2400F2000030F1000030F00077088039A000A6
:101B34002008F900790878060319A12DA22DA32DF8
:101B440078177708A0002007A1002108F900F61FE4
:101B5400AC2DAD2DAE2D791479080319B22DB32D0A
:101B6400C32D790A031DB72DB82DC02D0030F70001
:101B74000030F6000030F5000030F400F617F701ED
:101B8400CB2D0030F7000030F6000030F5000030B7
:101B9400F4007A0879020318D02DD12D152E781F60
:101BA400D42DD52DD92D8030A0002008F8067A0830
:101BB400A0002008FB007908A0002008FA007B0898
:101BC400A0002008F9007008A0002008FB00740899
:101BD400A0002008F0007B08A0002008F400710891
:101BE400A0002008FB007508A0002008F1007B0875
:101BF400A0002008F5007208A0002008FB00760869
:101C0400A0002008F2007B08A0002008F60073085A
:101C1400A0002008FB007708A0002008F3007B0840
:101C2400A0002008F700FB017908A000A101210809
:101C3400A3007A082002A200031CA3032308803A0D
:101C4400FF0080307F02031D292E1A302202031C5C
:101C54002C2E2D2E6E2E7308720471047004031D35
:101C6400342E362E0130372E003083120313A00099
:101C74002008FB000030F3000030F2000030F100D7
:101C84000030F0007908A0002008FA00742E7B1CB4
:101C94004C2E4D2E582E7B0883120313A0000310E4
:101CA400200C0138A1002108FB005A2E0310FB0C64
:101CB400701C5D2E5E2E5F2EFB1701308312031302
:101CC400A000730DF30CF20CF10CF00CA00B632EBE
:101CD4000130A0002008FA0779087A02031C732E49
:101CE400742E492E781B772E782EC72E7A08031D62
:101CF4007C2E7D2E862E0030F3000030F200003062
:101D0400F1000030F000FF2F7408F007750803118C
:101D14000318013E03198F2EF107760803110318E7
:101D2400013E0319962EF207770803110318013EAA
:101D340003199D2EF307731CA02EA12E7F2F7B1C4D
:101D4400A42EA52EB02E7B0883120313A00003102B
:101D5400200C0138A1002108FB00B22E0310FB0C5B
:101D6400701CB52EB62EB72EFB1701308312031349
:101D7400A000730DF30CF20CF10CF00CA00BBB2EB5
:101D84000130A0002008FA077F2F7308803AFF0073
:101D94007708803A7F02031DD92E76087202031D4C
:101DA400D92E75087102031DD92E74087002031808
:101DB400DC2EDD2E372FFF3083120313A000FF30FB
:101DC400A100FF30A200FF30A3007408A40075082E
:101DD400A5007608A6007708A7007008A402710879
:101DE400031C710FF62EF72EA5027208031C720F46
:101DF400FC2EFD2EA6027308031C730F022F032F63
:101E0400A7022408A00725080318250F0A2F0B2F63
:101E1400A10726080318260F102F112FA207270841
:101E24000318270AA3072308F3002208F200210855
:101E3400F1002008F0008030A0002008F806FB091B
:101E4400FB0A7B08031D272F282F452F0130F0079D
:101E5400003003180130F107003003180130F20795
:101E6400003003180130F307452F7408F002750899
:101E7400031C750FF1027608031C760FF202770833
:101E8400031C770FF3027308720471047004031DBA
:101E94004C2F4D2F7B2F7B08031D512F522F7B2F4F
:101EA4000030F3000030F2000030F1000030F000A8
:101EB400FF2F013083120313A0000310F00DF10D66
:101EC400F20DF30DA00B5F2FFB1F692F6A2F6B2FF1
:101ED40070147B1C6E2F6F2F722F0314FB0D742F45
:101EE4000310FB0D7A080319782F792F7B2F01300B
:101EF400FA02F21F7E2F7F2F5B2FF901FB1F832F26
:101F0400842F922F7B087F390319892F8A2F8D2FD5
:101F1400F901F90A922F701C902F912F922F8A2F7A
:101F240079080319962F972FCD2F0130F007003031
:101F340003180130F107003003180130F2070030B4
:101F440003180130F307731CA82FA92FCD2F700895
:101F540083120313A0007108A1007208A200730881
:101F6400A3000130A400230DA30CA20CA10CA00C0F
:101F7400A40BB52F2308F3002208F2002108F10076
:101F84002008F0007A0A0319C82FC92FCD2F013079
:101F9400A0002008FA077A0A0319D12FD22FD72FCD
:101FA4007A08031DD62FD72FE52F0030F300003019
:101FB400F2000030F1000030F0007A08031DE32F36
:101FC400E42FE52FF8017A1CE82FE92FEB2FF21705
:101FD400F12F7F3083120313A0002008F2057A0842
:101FE40083120313A0000310200CA1002108F300A6
:0C1FF400F81FFD2FFE2FFF2FF317080031
:102AEA00F000700883120313860008006400800156
:102AFA00840A04060319003404067C2D0A168A1176
:102B0A009F250A168A1183160313111408000A1640
:102B1A008A119F250A168A118316031311150800B4
:102B2A000A168A119F250A168A117008831203133E
:102B3A0093000800831603131419A42DA52D9F2DA5
:102B4A0011081F39031DAA2DAB2D9F2D0800003037
:102B5A000A128A1502200A168A1101300A128A15E7
:102B6A0002200A168A110800F200831203130914BC
:102B7A0072080A168A1175250A168A118312031316
:102B8A0009150630F100F10BC82D0000831203135A
:102B9A0009110800F6007603031DD42DD52DE12D69
:102BAA0074087F3EF5007508F70077080A128A153F
:102BBA0002200A168A11F22D02307606031DE62D2E
:102BCA00E72DF22D7408BF3EF5007508F700770867
:102BDA000A128A1502200A168A1108008030831206
:102BEA000313B5063908F3003808F2003708F10074
:102BFA003608F0003508F7003408F6003308F50007
:102C0A003208F4000A128A1568250A168A1173080E
:102C1A0083120313B5007208B4007108B300700878
:102C2A00B20008008316031788018901831603136B
:102C3A0085018601880189018312031385018601B2
:102C4A0088018901831603130F178F160F160F14A5
:102C5A00003083120313A3000130A2008630A100C2
:102C6A00A030A0000A168A11B9260A168A1108008D
:102C7A00F800F401F5017008F200F3017208F60099
:102C8A007308F700781C4A2E4B2E512E7608F4074B
:102C9A000318F50A7708F50701300310F60DF70D4A
:102CAA00FF3E031D522E0310F80C7808031D5E2EFA
:102CBA005F2E472E7508F1007408F0000800FB012A
:102CCA00FC0183120313201C6B2E6C2E722E220819
:102CDA00FB070318FC0A2308FC0701300310A20DA6
:102CEA00A30DFF3E031D732E01300310A10CA00C8F
:102CFA00FF3E031D7A2E20082104031D852E862EF1
:102D0A00662E7C08A1007B08A00008000A168A111A
:102D1A009F250A168A118316031391150A168A111A
:102D2A009F250A168A11831203131308F200F3016E
:102D3A007208F4007308F5000A168A119F250A160C
:102D4A008A1170037104031DAB2EAC2EB02E8316AC
:102D5A0003139112B32E83160313911611167508D5
:102D6A00F1007408F000080028308312031394005D
:102D7A00831603139101831203132008A400210868
:102D8A00A5002208A6002308A70002300310A40DFC
:102D9A00A50DA60DA70DFF3E031DCB2E2708F30098
:102DAA002608F2002508F1002408F0000030F70098
:102DBA007A30F6001230F5000030F4000A168A1153
:102DCA0033270A168A117008FF3E831603139300ED
:102DDA009401871507160800F801F901162F7808DB
:102DEA007307F6007408F5000318F50AF81FFE2E9B
:102DFA00F5037508F700770883120313FF007608B6
:102E0A0084000A128A1103200A168A110A168A11E4
:102E1A00B9250A168A110130F8070318F90A003091
:102E2A00F90778087307F6007408F5000318F50A1D
:102E3A00F81F202FF5037508F7007708831203138C
:102E4A00FF00760884000A128A1103200A168A11E2
:102E5A00003A031D312F322FF42E08000030FC00F7
:102E6A000030FB000030FA000030F90073087204E9
:102E7A00710470040319422F432F902FFD01FD0A9C
:102E8A00532F0130F8000310F00DF10DF20DF30D80
:102E9A00F80B482F0130F8007808FD07F31F562F6A
:102EAA00572F462F0130F8000310F90DFA0DFB0DCC
:102EBA00FC0DF80B592F73087702031D6E2F720849
:102ECA007602031D6E2F71087502031D6E2F70089E
:102EDA007402031C712F722F812F7008F40271087B
:102EEA00031C710FF5027208031C720FF6027308B5
:102EFA00031C730FF702791401300310F30CF20C60
:102F0A00F10CF00CFF3E031D822F0130FD02031D60
:102F1A008F2F902F572F7C08F3007B08F2007A0836
:102F2A00F1007908F0000800F601F11F9D2F9E2F8D
:102F3A00A52FF009F109F00A0319F10AF601F60AB8
:102F4A00F31FA82FA92FB22FF209F309F20A0319C6
:102F5A00F30A0130F4007408F606F701F801700864
:102F6A0071040319B92FBA2FF12FF501F50AC82FE9
:102F7A0001300310F00DF10DFF3E031DBE2F01308D
:102F8A00F4007408F507F11FCB2FCC2FBD2F0130A9
:102F9A000310F70DF80DFF3E031DCD2F71087302C4
:102FAA00031DD92F70087202031CDC2FDD2FE42FBA
:102FBA007008F2027108031CF303F302771401305C
:102FCA000310F10CF00CFF3E031DE52F0130F50252
:102FDA00031DF02FF12FCC2F76080319F52FF62FAA
:102FEA00FB2FF709F809F70A0319F80A7808F1001C
:062FFA007708F00008005A
:04400E00D420FF3F7C
:00000001FF
