:060000000A128A11F32F21
:10000800F00070088312031386000800F3008312BF
:100018000313091073080A128A1104200A128A119C
:100028008312031309150B30F2006230F100F10B53
:100038001B28F20B1B280000831203130911080068
:100048000310720D730DF4007408FA007A08031D8A
:100058002E282F2838280030F3000030F200003016
:10006800F1000030F0009D287008F4007108F500D8
:100078007208F6007308F7001F300310F70CF60C2F
:10008800F50CF40CFF3E031D41287408F8007808AD
:10009800F900F217FF30F005FF30F105FF30F205E7
:1000A8000030F3059630FA02FA1F5B285C287628A0
:1000B8007A08803A973E03186228632864282F2814
:1000C80001300310F30CF20CF10CF00CFF3E031D91
:1000D80065280130F4007408FA07031D7428752890
:1000E80064288D2820307A02031C7B287C288828E5
:1000F8002F280130F4000310F00DF10DF20DF30D6F
:10010800F40B7F280130FA027A08031D8C288D2809
:100118007D2879080319912892289D28F009F1096A
:10012800F209F309F00A0319F10A0319F20A03198B
:10013800F30A0800831203134F088039D4005408C7
:10014800D9004F08D4005407D5005508DF00CE1F4A
:10015800AE28AF28B0285F145F080319B428B52863
:10016800C4285F0A031DB928BA28C2280030CF0066
:100178000030CE000030CD000030CC00CE17CC28A7
:100188000030CF000030CE000030CD000030CC0071
:1001980053088039D4005408D9065308D4005407AA
:1001A800D5005508DE00D21FDA28DB28DC285E14CB
:1001B8005E080319E028E128F0285E0A031DE528F7
:1001C800E628EE280030D3000030D2000030D100FD
:1001D8000030D000D217F8280030D3000030D20009
:1001E8000030D1000030D0005E080319FC28FD283B
:1001F80002295F08031D012902290B290030CF00BD
:100208000030CE000030CD000030CC00FE2B4C0872
:10021800D4005408F00052080A168A1156250A120A
:100228008A11710883120313E5007008E40064085A
:10023800D400D501D601D7015708DD005608DC00E7
:100248005508DB005408DA006508D400D501D6014A
:10025800D7015708E3005608E2005508E1005408A2
:10026800E0004D08D4005408F00051080A168A111D
:1002780056250A128A11710883120313E5007008C3
:10028800E4006408D400D501D601D7015408DA0780
:10029800550803110318013E03195329DB075608B3
:1002A80003110318013E03195A29DC0757080311E3
:1002B8000318013E03196129DD076508D400D5013B
:1002C800D601D7015408E007550803110318013E69
:1002D80003196F29E107560803110318013E031992
:1002E8007629E207570803110318013E03197D29EF
:1002F800E3074E08D4005408F00050080A168A1183
:1003080056250A128A11710883120313E500700832
:10031800E4006408D400D501D601D7015408DA07EF
:10032800550803110318013E03199B29DB075608DA
:1003380003110318013E0319A229DC07570803110A
:100348000318013E0319A929DD076508D400D50162
:10035800D601D7015408E007550803110318013ED8
:100368000319B729E107560803110318013E0319B9
:10037800BE29E207570803110318013E0319C529CE
:10038800E3070830D4000310DA0DDB0DDC0DDD0DBA
:10039800D40BC7294D08D4005408F00050080A1699
:1003A8008A1156250A128A11710883120313E5006F
:1003B8007008E4006408D4006508D500D601D701A8
:1003C8005408DA07550803110318013E0319ED29EB
:1003D800DB07560803110318013E0319F429DC074B
:1003E800570803110318013E0319FB29DD074C08C0
:1003F800D4005408F00051080A168A1156250A122A
:100408008A11710883120313E5007008E400640878
:10041800D4006508D500D601D7015408DA07550875
:1004280003110318013E03191A2ADB0756080311A2
:100438000318013E0319212ADC0757080311031882
:10044800013E0319282ADD070830D4000310DA0D0D
:10045800DB0DDC0DDD0DD40B2A2A4C08D400540822
:10046800F00050080A168A1156250A128A117108D6
:1004780083120313E5007008E4006408D4006508DB
:10048800D500D601D7015408DA0755080311031817
:10049800013E0319502ADB07560803110318013ED1
:1004A8000319572ADC07570803110318013E0319DB
:1004B8005E2ADD074D08D4005408F00052080A16D9
:1004C8008A1156250A128A11710883120313E5004E
:1004D8007008E4006408D4006508D500D601D70187
:1004E8005408E007550803110318013E03197D2A33
:1004F800E107560803110318013E0319842AE2078D
:10050800570803110318013E03198B2AE3074E0805
:10051800D4005408F00051080A168A1156250A1208
:100528008A11710883120313E5007008E400640857
:10053800D4006508D500D601D7015408E00755084E
:1005480003110318013E0319AA2AE10756080311EB
:100558000318013E0319B12AE207570803110318CB
:10056800013E0319B82AE3074E08D4005408F000E6
:1005780052080A168A1156250A128A11710883121E
:100588000313E5007008E4006408D4006508D5008A
:10059800D601D70108300310D40DD50DD60DD70DCF
:1005A800FF3E031DCF2A5408E0075508031103181E
:1005B800013E0319E02AE107560803110318013E1A
:1005C8000319E72AE207570803110318013E031924
:1005D800EE2AE3075A08D4005B08D5005C08D60069
:1005E8005D08D70018300310D70CD60CD50CD40CE6
:1005F800FF3E031DF72A5408E007550803110318A6
:10060800013E0319082BE107560803110318013EA0
:1006180003190F2BE207570803110318013E0319AA
:10062800162BE3070830D4000310DA0DDB0DDC0DC0
:10063800DD0DD40B182B5F085E07D400D501D50D4E
:100648005408823EE40055080318013EFF3EE500C9
:100658004A2B0130D4000310E00DE10DE20DE30D4B
:10066800D40B2F2BDD1F392B3A2B3B2B6014013079
:10067800D4000310DA0DDB0DDC0DDD0DD40B3D2BA2
:10068800FF30E4070318E50AFF30E507E21F4D2BAA
:100698004E2B2D2BDE01DD1F522B532B6F2BFF30E2
:1006A8005A05D400FF305B05D500FF305C05D60045
:1006B8007F305D05D70057085604550454040319C4
:1006C800662B672B6A2BDE01DE0A6F2B601C6D2BF5
:1006D8006E2B6F2B672B5E080319732B742BA52BBE
:1006E8000130E007003003180130E107003003183B
:1006F8000130E207003003180130E307631C852B43
:10070800862BA52B6008D4006108D5006208D600A6
:100718006308D7000130D800570DD70CD60CD50C7C
:10072800D40CD80B902B5708E3005608E200550864
:10073800E1005408E0000130E4070318E50A00303E
:10074800E5076508803AFF0080307F02031DAE2B65
:10075800FF306402031CB12BB22BBD2B7F308312F8
:100768000313E3008030E2000030E1000030E000D5
:10077800F22B831203136508803AFF0080307F0252
:10078800031DC82B013064020318CB2BCC2BD82BAC
:10079800003083120313E3000030E2000030E10070
:1007A8000030E000D901F22B831203136408D4004F
:1007B8005408DF00FF30E005FF30E1057F30E20537
:1007C8000030E3055F1CE92BEA2BEB2BE2175F08EF
:1007D800D4000310540CD5005508E3005908D40080
:1007E8005408E3046308CF006208CE006108CD0016
:1007F8006008CC00080083160313D6008312031385
:100808006908F3006808F2006708F1006608F0005C
:100818000A128A1124200A128A11710883160313F6
:10082800CD007008CC00D701D801D401D501013022
:10083800D9000030DA00831203136908F30068084E
:10084800F2006708F1006608F0000030F700003099
:10085800F6000030F5000030F4000A168A115E2711
:100868000A128A110318392C3A2C882CBF308312AB
:100878000313CF008030CE000030CD000030CC0014
:100888006908D3006808D2006708D1006608D0005C
:100898000A128A119E200A128A11831203134F0822
:1008A800E9004E08E8004D08E7004C08E6002D3046
:1008B800EC008316031356088400831203136C0894
:1008C80083138000013083160313D4070318D50A55
:1008D8000030D507882C0A30F0000030F1004D08B0
:1008E800F3004C08F2000A168A11F7260A128A1138
:1008F800710883160313CD007008CC000130D707A8
:100908000318D80A0030D807831603134C084D047F
:10091800031D8F2C902C6F2CAC2D57035804031DEE
:10092800962C972C9C2C0130D9000030DA00DE2C54
:100938000230CE000030CF00C82C831603135A08AB
:1009480083120313A1008316031359088312031398
:10095800A0000A30A2000030A3000A168A117D25E3
:100968000A128A1183120313210883160313DA006B
:1009780083120313200883160313D9000130CE070E
:100988000318CF0A0030CF075808803A83120313A0
:10099800EC00831603134F08803A831203136C028A
:1009A800031DDA2C831603134E0857020318DD2C97
:1009B800DE2CA12C83160313590883120313A400F9
:1009C800831603135A0883120313A5000030A51BCE
:1009D800FF30A600A70001300A128A1517200A1254
:1009E8008A11831203132708B5002608B4002508C6
:1009F800B3002408B2006908B9006808B80067089D
:100A0800B7006608B6000A128A15D3200A128A119E
:100A180083120313350883160313D30083120313B9
:100A2800340883160313D200831203133308831682
:100A38000313D10083120313320883160313D00063
:100A48005A0883120313A300831603135908831249
:100A58000313A200831603135308F3005208F2008D
:100A68005108F1005008F0000A128A1124200A12D5
:100A78008A11710883120313A1007008A0000A16D6
:100A88008A117D250A128A11831203132008A400F3
:100A98002108A5000030A51BFF30A600A7000130E3
:100AA8000A128A1517200A128A11831203132708BB
:100AB800B5002608B4002508B3002408B200690868
:100AC800B9006808B8006708B7006608B6000A16D3
:100AD8008A110C250A128A11831203133508E900BA
:100AE8003408E8003308E7003208E60083160313E9
:100AF8005308F3005208F2005108F1005008F000C2
:100B08000A128A1124200A128A117008303E8312B0
:100B18000313EC00831603135408560783120313B8
:100B2800ED006D0884006C08831380000130831683
:100B38000313D4070318D50A0030D507FF30D707A9
:100B48000318D80AFF30D8070130D9000030DA007E
:100B580057085804031DB12DB22D912C2E30831245
:100B68000313EC0083160313540856078312031368
:100B7800ED006D0884006C08831380000130831633
:100B88000313D4070318D50A0030D5070130CE0067
:100B98000030CF00F62D831603135A08831203136F
:100BA800A10083160313590883120313A0000A3007
:100BB800A2000030A3000A168A117D250A128A11A4
:100BC80083120313210883160313DA008312031315
:100BD800200883160313D9000130CE070318CF0A63
:100BE8000030CF07831203136B08803AEC0083169A
:100BF80003134F08803A831203136C02031D0A2E55
:100C0800831603134E08831203136A0203180D2E6A
:100C18000E2ECF2D83160313590883120313A40035
:100C2800831603135A0883120313A5000030A51B6B
:100C3800FF30A600A70001300A128A1517200A12F1
:100C48008A11831203132708CF002608CE0025082F
:100C5800CD002408CC006908F3006808F200670892
:100C6800F1006608F0000A128A1124200A128A117B
:100C7800700883120313A4007108A5000030A51B97
:100C8800FF30A600A70001300A128A1517200A12A1
:100C98008A11831203132708B5002608B400250813
:100CA800B3002408B2006908B9006808B8006708EA
:100CB800B7006608B6000A168A110C250A128A11AE
:100CC800831203133508D3003408D2003308D10047
:100CD8003208D0000A128A119E200A128A11831241
:100CE80003134F0883160313D300831203134E080C
:100CF80083160313D200831203134D0883160313BC
:100D0800D100831203134C0883160313D000530831
:100D180083120313E9008316031352088312031383
:100D2800E80083160313510883120313E7008316A0
:100D38000313500883120313E6006908F3006808D8
:100D4800F2006708F1006608F0000A128A112420F0
:100D58000A128A11013083160313D9000030DA0011
:100D6800831203136B0883160313D800831203132B
:100D78006A0883160313D700DC2F57035804031D92
:100D8800C62EC72ECC2E0130D9000030DA000E2F27
:100D98000230CE000030CF00F82E831603135A0815
:100DA80083120313A1008316031359088312031334
:100DB800A0000A30A2000030A3000A168A117D257F
:100DC8000A128A1183120313210883160313DA0007
:100DD80083120313200883160313D9000130CE07AA
:100DE8000318CF0A0030CF075808803A831203133C
:100DF800EC00831603134F08803A831203136C0226
:100E0800031D0A2F831603134E08570203180D2FCC
:100E18000E2FD12E83160313590883120313A4002F
:100E2800831603135A0883120313A5000030A51B69
:100E3800FF30A600A70001300A128A1517200A12EF
:100E48008A11831203132708B5002608B400250861
:100E5800B3002408B2006908B9006808B800670838
:100E6800B7006608B6000A128A15D3200A128A113A
:100E780083120313350883160313D3008312031355
:100E8800340883160313D20083120313330883161E
:100E98000313D10083120313320883160313D000FF
:100EA8005A0883120313A3008316031359088312E5
:100EB8000313A200831603135308F3005208F20029
:100EC8005108F1005008F0000A128A1124200A1271
:100ED8008A11710883120313A1007008A0000A1672
:100EE8008A117D250A128A11831203132008A4008F
:100EF8002108A5000030A51BFF30A600A70001307F
:100F08000A128A1517200A128A1183120313270856
:100F1800B5002608B4002508B3002408B200690803
:100F2800B9006808B8006708B7006608B6000A166E
:100F38008A110C250A128A11831203133508E90055
:100F48003408E8003308E7003208E6008316031384
:100F58005308F3005208F2005108F1005008F0005D
:100F68000A128A1124200A128A117008303E83124C
:100F78000313EC0083160313540856078312031354
:100F8800ED006D0884006C0883138000013083161F
:100F98000313D4070318D50A0030D507FF30D70745
:100FA8000318D80AFF30D8070130D9000030DA001A
:100FB80057085804031DE12FE22FC12E0A3083126F
:100FC8000313EC0083160313540856078312031304
:100FD800ED006D0884006C088313800008008313FB
:100FE800A0308400CC300A168A11AA240A128A1169
:080FF80083010A128A15482D3D
:10100200F20083120313091472080A128A110420CF
:101012000A128A158312031309150630F100F10B27
:10102200102800008312031309110800831203130E
:10103200AC002C0803191E281F283328A71F2228BA
:10104200232833282409AE002509AF002609B00061
:101052002709B100AE0A0319AF0A0319B00A03192E
:10106200B10A3B282708B1002608B0002508AF00C6
:101072002408AE002708260425042404031D422860
:1010820043284C280030A7000030A6000030A500FD
:101092000030A400D2289630A8002808AD005E28AF
:1010A2000130A8002808AD0701300310B10CB00CC4
:1010B200AF0CAE0CFF3E031D5628FE303105031D5A
:1010C20063286428512880280130A8002808AD0729
:1010D2000130AE07003003180130AF0700300318AB
:1010E2000130B007003003180130B107013003109E
:1010F200B10CB00CAF0CAE0CFF3E031D7828FF30D4
:101102003105031D85288628652892280130AD0205
:101112000130A8000310AE0DAF0DB00DB10DA80B3C
:101122008B28B01B952896289C2802302D02031884
:101132009B289C2887282D189F28A028A828FF30A4
:10114200AE05FF30AF057F30B005FF30B1050310AB
:10115200AD0C2D08A800A901AA01AB01183003109B
:10116200A80DA90DAA0DAB0DFF3E031DB02828083E
:10117200AE042908AF042A08B0042B08B1042C08D5
:101182000319C428C528CA28A71FC828C928CA28DD
:10119200B1173108A7003008A6002F08A5002E08B5
:1011A200A40008008312031339088039BA003A08F0
:1011B200C3003908BA003A07BB003B08CA00B81F8F
:1011C200E328E428E5284A144A080319E928EA280A
:1011D200FA284A0A031DEE28EF28F7280030B90042
:1011E2000030B8000030B7000030B600B817B901BF
:1011F20002290030B9000030B8000030B7000030DA
:10120200B60035088039BA003A08C3063508BA0074
:101212003A07BB003B08CB00B41F10291129122941
:101222004B144B0803191629172927294B0A031DAA
:101232001B291C2924290030B5000030B4000030DD
:10124200B3000030B200B417B5012F290030B50049
:101252000030B4000030B3000030B200350834046E
:1012620033043204031D3629372950290030B900CE
:101272000030B8000030B7000030B6008030B8044B
:101282007F30B9044308BA003A08B9043908B500F6
:101292003808B4003708B3003608B200AF2A4A084B
:1012A200031D542955295E290030B5000030B400D1
:1012B2000030B3000030B200AF2A4A08BA00BB01C6
:1012C2003B08BD004B083A02BC00031CBD033C08AE
:1012D2007F3EC4003D080318013E003EC5003908A8
:1012E200C2003808C1003708C0003608BF0000300D
:1012F200B9000030B8000030B7000030B60000304E
:10130200C9000030C8000030C7000030C600CB0161
:10131200D4294B0803198E298F29AF290130BA002D
:101322000310BF0DC00DC10DC20DBA0B91290130C2
:10133200BA000310B60DB70DB80DB90DBA0B9A2944
:10134200C91FA429A529A62936140130BA00031001
:10135200C60DC70DC80DC90DBA0BA8293508420222
:10136200031DBD2934084102031DBD293308400273
:10137200031DBD2932083F02031CC029C129D029FF
:1013820049173208BF023308031C330FC002340866
:10139200031C340FC1023508031C350FC202013091
:1013A200BA003A08CB071A304B02031CD929DA29B2
:1013B2008A294208410440043F040319E129E22931
:1013C200012A4614012A0130BA000310B60DB70DE6
:1013D200B80DB90DBA0BE629C91FF029F129F22976
:1013E20036140130BA000310C60DC70DC80DC90D61
:1013F200BA0BF429FF30C4070318C50AFF30C5072A
:10140200B81F042A052AE429CB01C91F092A0A2A7E
:10141200262AFF304605BA00FF304705BB00FF30E1
:101422004805BC007F304905BD003D083C043B0433
:101432003A0403191D2A1E2A212ACB01CB0A262A85
:10144200361C242A252A262A1E2A4B0803192A2A50
:101452002B2A5C2A0130B607003003180130B70787
:10146200003003180130B807003003180130B90703
:10147200391C3C2A3D2A5C2A3608BA003708BB00D0
:101482003808BC003908BD000130BE003D0DBD0C5E
:10149200BC0CBB0CBA0CBE0B472A3D08B9003C0879
:1014A200B8003B08B7003A08B6000130C407031879
:1014B200C50A0030C5074508803AFF0080307F0228
:1014C200031D652AFF304402031C682A692A772A11
:1014D200FF3083120313C4000030C5000030B9008E
:1014E2000030B8000030B7000030B600831203139A
:1014F2004508803AFF0080307F02031D822A0130B6
:1015020044020318852A862A932A83120313C401EC
:10151200C5010030B9000030B8000030B70000301B
:10152200B600C301831203134408BA003A08CA0082
:101532004A1C9C2A9D2A9F2AB817A32A7F30BA00E8
:101542003A08B8054A08BA0003103A0CBB003B0837
:10155200B9004308BA003A08B904472908007308D9
:10156200803983120313A0002008F8007308A0003A
:101572002007A1002108FA00F21FC02AC12AC22AAC
:101582007A147A080319C62AC72AD72A7A0A031DA7
:10159200CB2ACC2AD42A0030F3000030F2000030EB
:1015A200F1000030F000F217F301DF2A0030F300FF
:1015B2000030F2000030F1000030F000770880398E
:1015C200A0002008F900790878060319E92AEA2A16
:1015D200EB2A78177708A0002007A1002108F9005C
:1015E200F61FF42AF52AF62A791479080319FA2A39
:1015F200FB2A0B2B790A031DFF2A002B082B003034
:10160200F7000030F6000030F5000030F400F61765
:10161200F701132B0030F7000030F6000030F50020
:101622000030F4007A0879020318182B192B5D2B6D
:10163200781F1C2B1D2B212B8030A0002008F806C0
:101642007A08A0002008FB007908A0002008FA0010
:101652007B08A0002008F9007008A0002008FB0009
:101662007408A0002008F0007B08A0002008F40005
:101672007108A0002008FB007508A0002008F100F6
:101682007B08A0002008F5007208A0002008FB00DB
:101692007608A0002008F2007B08A0002008F600CF
:1016A2007308A0002008FB007708A0002008F300C0
:1016B2007B08A0002008F700FB017908A000A10127
:1016C2002108A3007A082002A200031CA303230816
:1016D200803AFF0080307F02031D712B1A302202F4
:1016E200031C742B752BB62B7308720471047004DF
:1016F200031D7C2B7E2B01307F2B003083120313C2
:10170200A0002008FB000030F3000030F20000309F
:10171200F1000030F0007908A0002008FA00BC2B8C
:101722007B1C942B952BA02B7B0883120313A00008
:101732000310200C0138A1002108FB00A22B03108A
:10174200FB0C701CA52BA62BA72BFB1701308312B9
:101752000313A000730DF30CF20CF10CF00CA00BB0
:10176200AB2B0130A0002008FA0779087A02031C8B
:10177200BB2BBC2B912B781BBF2BC02B0F2C7A08B9
:10178200031DC42BC52BCE2B0030F3000030F2001A
:101792000030F1000030F000472D7408F0077508A2
:1017A20003110318013E0319D72BF1077608031121
:1017B2000318013E0319DE2BF20777080311031801
:1017C200013E0319E52BF307731CE82BE92BC72C09
:1017D2007B1CEC2BED2BF82B7B0883120313A00050
:1017E2000310200C0138A1002108FB00FA2B031082
:1017F200FB0C701CFD2BFE2BFF2BFB170130831201
:101802000313A000730DF30CF20CF10CF00CA00BFF
:10181200032C0130A0002008FA07C72C7308803A75
:10182200FF007708803A7F02031D212C760872029E
:10183200031D212C75087102031D212C74087002EE
:101842000318242C252C7F2CFF3083120313A000B5
:10185200FF30A100FF30A200FF30A3007408A400F3
:101862007508A5007608A6007708A7007008A402EC
:101872007108031C710F3E2C3F2CA5027208031C39
:10188200720F442C452CA6027308031C730F4A2CBA
:101892004B2CA7022408A00725080318250F522C59
:1018A200532CA10726080318260F582C592CA207DF
:1018B20027080318270AA3072308F3002208F200C7
:1018C2002108F1002008F0008030A0002008F8066E
:1018D200FB09FB0A7B08031D6F2C702C8D2C013039
:1018E200F007003003180130F1070030031801300F
:1018F200F207003003180130F3078D2C7408F00250
:101902007508031C750FF1027608031C760FF202AC
:101912007708031C770FF3027308720471047004D2
:10192200031D942C952CC32C7B08031D992C9A2CF7
:10193200C32C0030F3000030F2000030F100003020
:10194200F000472D013083120313A0000310F00DA5
:10195200F10DF20DF30DA00BA72CFB1FB12CB22C35
:10196200B32C70147B1CB62CB72CBA2C0314FB0DB1
:10197200BC2C0310FB0D7A080319C02CC12CC32CFC
:101982000130FA02F21FC62CC72CA32CF901FB1F4F
:10199200CB2CCC2CDA2C7B087F390319D12CD22CFE
:1019A200D52CF901F90ADA2C701CD82CD92CDA2C96
:1019B200D22C79080319DE2CDF2C152D0130F0070B
:1019C200003003180130F107003003180130F2072C
:1019D200003003180130F307731CF02CF12C152D85
:1019E200700883120313A0007108A1007208A200FC
:1019F2007308A3000130A400230DA30CA20CA10CB8
:101A0200A00CA40BFD2C2308F3002208F2002108ED
:101A1200F1002008F0007A0A0319102D112D152D5E
:101A22000130A0002008FA077A0A0319192D1A2D8D
:101A32001F2D7A08031D1E2D1F2D2D2D0030F300A2
:101A42000030F2000030F1000030F0007A08031D8F
:101A52002B2D2C2D2D2DF8017A1C302D312D332DCF
:101A6200F217392D7F3083120313A0002008F205EC
:101A72007A0883120313A0000310200CA10021088E
:101A8200F300F81F452D462D472DF31708000A16BF
:101A92008A1130250A128A150A168A114C260A1250
:101AA2008A150A168A11DB240A128A150A168A1165
:101AB200B2240A128A155130F0000030F1000A16E1
:101AC2008A11C4240A128A150030F000F1000A16A5
:101AD2008A11A4250A128A15700883160313DB00E3
:101AE2005B08AD000A168A11BB240A128A1503305C
:101AF20083160313DD000830DC007630DB00DB0BDD
:101B0200802DDC0B802DDD0B802D00000A168A1142
:101B1200B2240A128A156130F0000030F1000A1670
:101B22008A11C4240A128A150030F000F1000A1644
:101B32008A11A4250A128A15700883160313DB0082
:101B42005B08AC000A168A11BB240A128A150330FC
:101B520083160313DD000830DC007630DB00DB0B7C
:101B6200B02DDC0BB02DDD0BB02D00000A168A1152
:101B7200B2240A128A159A30F0000030F1000A16D7
:101B82008A11C4240A128A150030F000F1000A16E4
:101B92008A11C4240A128A15023083160313DD0047
:101BA2000430DC00B930DB00DB0BD52DDC0BD52D8E
:101BB200DD0BD52DDC2D0A168A11BB240A128A15DB
:101BC200033083160313DD000830DC007630DB00BF
:101BD200DB0BE92DDC0BE92DDD0BE92D00000A16EC
:101BE2008A11B2240A128A15033083160313DD0008
:101BF2000830DC007630DB00DB0BFD2DDC0BFD2D2D
:101C0200DD0BFD2D00009B30F0000030F1000A16C4
:101C12008A11C4240A128A150030F000F1000A1653
:101C22008A11A4250A128A15700883160313DB0091
:101C32005B08AB000A168A11BB240A128A1503300C
:101C420083160313DD000830DC007630DB00DB0B8B
:101C5200282EDC0B282EDD0B282E0000F401F40ABE
:101C620001300A168A11E8240A128A150130F3009B
:101C72008030F4000A168A110A260A128A150830E0
:101C820083160313DB005B08F40001300A168A1185
:101C9200E8240A128A150630F3008030F4000A168E
:101CA2008A110A260A128A150D3083160313DB00E5
:101CB2005B08F40001300A168A11E8240A128A1518
:101CC2000B30F3008030F4000A168A110A260A1239
:101CD2008A15003083160313A7000030A6000030D7
:101CE200A5000030A4000030A3000030A2000030A4
:101CF200A1000030A000403083120313CF00A030B7
:101D0200CE000030CD000030CC004330B5007F3033
:101D1200B4000030B3000030B200831603132D0864
:101D2200DB00DC01DD01DE015E0883120313A70084
:101D3200831603135D0883120313A600831603138D
:101D42005C0883120313A500831603135B08831236
:101D52000313A40001300A128A1517200A128A15E9
:101D6200831203132708B9002608B8002508B70014
:101D72002408B6000A128A15D3200A128A15831281
:101D820003133508D3003408D2003308D1003208D7
:101D9200D0000A128A119E200A128A158312031396
:101DA2004F0883160313A700831203134E088316EA
:101DB2000313A600831203134D0883160313A50011
:101DC200831203134C0883160313A40027088312FB
:101DD2000313E90083160313260883120313E80092
:101DE20083160313250883120313E70083160313D4
:101DF200240883120313E6000230EA000030EB00ED
:101E0200C2300A128A11FF230A128A15F401F40A57
:101E120002300A168A11E8240A128A15C230F30027
:101E22000030F4000A168A110A260A128A150530B1
:101E320083160313DB005B08F40002300A168A11D2
:101E4200E8240A128A151130F3008030F4000A16D1
:101E52008A110A260A128A15831603132C08DB003C
:101E6200DC01DD01DE015E0883120313A700831685
:101E720003135D0883120313A600831603135C0881
:101E820083120313A500831603135B088312031343
:101E9200A40000300A128A1517200A128A1583122A
:101EA2000313270883160313E20083120313260881
:101EB20083160313E1008312031325088316031309
:101EC200E00083120313240883160313DF00620861
:101ED20083120313E90083160313610883120313A9
:101EE200E80083160313600883120313E7008316C6
:101EF20003135F0883120313E6000230EA00003086
:101F0200EB00B8300A128A11FF230A128A15073031
:101F120083160313DB005B08F40002300A168A11F1
:101F2200E8240A128A15B830F3000030F4000A16C9
:101F32008A110A260A128A15831603132B088312A2
:101F42000313A4008039031DFF30A500A600A700DB
:101F520001300A128A1517200A128A1583120313F6
:101F6200270883160313E20083120313260883163D
:101F72000313E10083120313250883160313E00001
:101F820083120313240883160313DF0062088312EB
:101F92000313E90083160313610883120313E80095
:101FA20083160313600883120313E70083160313D7
:101FB2005F0883120313E6000230EA000030EB00F0
:101FC200AE300A128A11FF230A128A150D308316C7
:101FD2000313DB005B08F40002300A168A11E824BE
:101FE2000A128A15AE30F3000030F4000A168A1184
:101FF2000A260A128A15572D0A128A110028FF1B77
:102002000A2883137F1883170008840A0319FF0A1A
:10201200080010308A000408840A82070034413420
:10202200443443343A34003443344F344E34543419
:102032000034543443340034253464340034563488
:02204200003468
:1029540064008001840A0406031900340406AB2CC5
:102964000A168A11CE240A168A1183160313111427
:1029740008000A168A11CE240A168A118316031334
:10298400111508000A168A11CE240A168A11700835
:102994008312031393000800831603131419D32C12
:1029A400D42CCE2C11081F39031DD92CDA2CCE2C93
:1029B400080000300A128A110A200A168A1101300E
:1029C4000A128A110A200A168A110800F6007603F0
:1029D400031DED2CEE2CFA2C74087F3EF5007508CF
:1029E400F70077080A128A110A200A168A110B2D99
:1029F40002307606031DFF2C002D0B2D7408BF3EFC
:102A0400F5007508F70077080A128A110A200A16D9
:102A14008A110800803083120313B5063908F300C5
:102A24003808F2003708F1003608F0003508F700DE
:102A34003408F6003308F5003208F4000A128A1547
:102A4400B0220A168A11730883120313B5007208A0
:102A5400B4007108B3007008B200080083160317AD
:102A64008801890183160313850186018801890180
:102A740083120313850186018801890183160313D8
:102A84000F178F160F160F14003083120313A300B1
:102A94000130A2008630A100A030A0000A168A11DD
:102AA400D2250A168A110800F800F401F50170080D
:102AB400F200F3017208F6007308F700781C632D26
:102AC400642D6A2D7608F4070318F50A7708F507CC
:102AD40001300310F60DF70DFF3E031D6B2D03109F
:102AE400F80C7808031D772D782D602D7508F100FA
:102AF4007408F0000800FB01FC0183120313201C7E
:102B0400842D852D8B2D2208FB070318FC0A23082E
:102B1400FC0701300310A20DA30DFF3E031D8C2DF5
:102B240001300310A10CA00CFF3E031D932D2008BF
:102B34002104031D9E2D9F2D7F2D7C08A1007B0861
:102B4400A00008000A168A11CE240A168A118316D8
:102B5400031391150A168A11CE240A168A118312B8
:102B640003131308F200F3017208F4007308F5006C
:102B74000A168A11CE240A168A1170037104031DE1
:102B8400C42DC52DC92D831603139112CC2D831684
:102B94000313911611167508F1007408F00008006B
:102BA40028308312031394008316031391018312B4
:102BB40003132008A4002108A5002208A600230866
:102BC400A70002300310A40DA50DA60DA70DFF3E0E
:102BD400031DE42D2708F3002608F2002508F10060
:102BE4002408F0000030F7007A30F6001230F500C7
:102BF4000030F4000A168A1191260A168A11700808
:102C0400FF3E8316031393009401871507160800EB
:102C1400F801F9012F2E78087307F6007408F500FF
:102C24000318F50AF81F172EF5037508F70077083F
:102C340083120313FF00760884000A168A11002009
:102C44000A168A110A128A1501200A168A110130FD
:102C5400F8070318F90A0030F90778087307F60033
:102C64007408F5000318F50AF81F392EF5037508E2
:102C7400F700770883120313FF00760884000A160E
:102C84008A1100200A168A11003A031D4A2E4B2E7F
:102C94000D2E080000300A128A1104200A168A1127
:102CA4003430F500F130F400F40B562EF50B562EAB
:102CB4005B2E30300A128A110A200A168A110D304E
:102CC400F500FB30F400F40B652EF50B652E6A2E2F
:102CD40030300A128A110A200A168A111D30F500B2
:102CE4009130F400F40B742EF50B742E30300A126C
:102CF4008A110A200A168A1138300A128A110A2007
:102D04000A168A110C300A128A110A200A168A112C
:102D140006300A128A110A200A168A1108000030A5
:102D2400FC000030FB000030FA000030F9007308AA
:102D34007204710470040319A02EA12EEE2EFD015D
:102D4400FD0AB12E0130F8000310F00DF10DF20D63
:102D5400F30DF80BA62E0130F8007808FD07F31FD9
:102D6400B42EB52EA42E0130F8000310F90DFA0D7F
:102D7400FB0DFC0DF80BB72E73087702031DCC2E48
:102D840072087602031DCC2E71087502031DCC2E29
:102D940070087402031CCF2ED02EDF2E7008F402AC
:102DA4007108031C710FF5027208031C720FF602FE
:102DB4007308031C730FF702791401300310F30C2A
:102DC400F20CF10CF00CFF3E031DE02E0130FD026D
:102DD400031DED2EEE2EB52E7C08F3007B08F200C9
:102DE4007A08F1007908F0000800F601F11FFB2EC3
:102DF400FC2E032FF009F109F00A0319F10AF60178
:102E0400F60AF31F062F072F102FF209F309F20A0F
:102E14000319F30A0130F4007408F606F701F80107
:102E2400700871040319172F182F4F2FF501F50A95
:102E3400262F01300310F00DF10DFF3E031D1C2F52
:102E44000130F4007408F507F11F292F2A2F1B2FD6
:102E540001300310F70DF80DFF3E031D2B2F7108F1
:102E64007302031D372F70087202031C3A2F3B2F85
:102E7400422F7008F2027108031CF303F302771463
:102E840001300310F10CF00CFF3E031D432F013001
:102E9400F502031D4E2F4F2F2A2F76080319532FA7
:102EA400542F592FF709F809F70A0319F80A780873
:102EB400F1007708F000080000307005F8000030D9
:102EC4007105F90080307205FA007F307305FB004C
:102ED4007B087A0479047804031D712F722F7A2FEA
:102EE4000030F3000030F2000030F1000030F00058
:102EF40000307405F80000307505F900803076055F
:102F0400FA007F307705FB007B087A0479047804A3
:102F1400031D8D2F8E2F962F0030F7000030F60002
:102F24000030F5000030F400F31F992F9A2FBE2FC4
:102F34000030F8000030F9000030FA008030FB0067
:102F44007008F8027108031C710FA92FAA2FF90247
:102F54007208031C720FAF2FB02FFA027308031C00
:102F6400730FB52FB62FFB027B08F3007A08F2002B
:102F74007908F1007808F000F71FC12FC22FE62F5F
:102F84000030F8000030F9000030FA008030FB0017
:102F94007408F8027508031C750FD12FD22FF9029B
:102FA4007608031C760FD72FD82FFA027708031C54
:102FB400770FDD2FDE2FFB027B08F7007A08F6007F
:102FC4007908F5007808F4008030F3068030F706BD
:102FD40077087302031DF82F76087202031DF82F79
:102FE40075087102031DF82F740870020318FB2F73
:0C2FF400FC2FFE2F0310FF2F0314080019
:04400E00D420FF3F7C
:00000001FF
