:060000000A128A110C280F
:10000800FE00030EF1000A08F2000A128A11A6295E
:100018000A128A110F28F701F801F901FA01830180
:100028000A128A110B2AF5008928831203131F115B
:100038009F111F129F12C328831203131F159F11AC
:100048001F129F12C328831203131F119F151F121B
:100058009F12C328831203131F159F151F129F1287
:10006800C328831203131F119F111F169F12C32841
:10007800831203131F159F111F169F12C328831283
:1000880003131F119F151F169F12C32883120313F2
:100098001F159F151F169F12C328831203131F11C4
:1000A8009F111F129F16C328831203131F159F1138
:1000B8001F129F16C328831203131F119F151F12A7
:1000C8009F16C328831203131F159F151F129F160F
:1000D800C328831203131F119F111F169F16C328CD
:1000E800831203131F159F111F169F16C32883120F
:1000F80003131F119F151F169F16C328831203137E
:100108001F159F151F169F16C3287508F300F401C5
:100118007408003A03199128C3287308003A031990
:100128001928013A03192028033A03192728013A04
:1001380003192E28073A03193528013A03193C28D0
:10014800033A03194328013A03194A280F3A0319B5
:100158005128013A03195828033A03195F28013A2C
:1001680003196628073A03196D28013A03197428F8
:10017800033A03197B28013A03198228C3288530DA
:10018800F300F30BC528831203139F140800F5002E
:1001980005298316031708143929831603178814A9
:1001A8003929831603170815392983160317881563
:1001B8003929831603170816392983160317881651
:1001C800392983160317081739298316031788173F
:1001D8003929831603170914392983160317891433
:1001E8003929831603170915392983160317891521
:1001F800392983160317091639298316031789160F
:1002080039297508F300F4017408003A03190D2917
:1002180039297308003A0319CD28013A0319D1285E
:10022800033A0319D528013A0319D928073A0319BB
:10023800DD28013A0319E128033A0319E528013AB0
:100248000319E9280F3A0319ED28013A0319F1288F
:10025800033A0319F528013A0319F928073A03194B
:10026800FD28013A0319012939290800F6008312EB
:1002780003131F144B291F139F1361291F179F1363
:1002880061291F139F1761291F179F176129760876
:10029800A000A1012108003A031953296129200867
:1002A800013A03193F29033A03194229013A03196C
:1002B8004529073A0319482961297303031D65294C
:1002C80066296C29831603130C17831203130C1366
:1002D8007508031D702971297529831603139F1347
:1002E8008D29831603139F178D29831603131F1255
:1002F8009F12A529831603131F169F12A52983167B
:1003080003131F129F16A529831603131F169F1682
:10031800A529740883120313A000A1012108003A3B
:1003280003199729A5292008003A03197929013AC0
:1003380003197E29033A03198329013A03198829E5
:10034800A5290800831203138C1DAB29AC29042AA4
:100358001412141BB029B129B529941FB429B52941
:10036800BC291308F0007008FA001413941314162B
:1003780083160313941AC129C229E0291419C5291F
:10038800C629E029831203131308F0007008FA0045
:100398008C11141683160313141CD329D429CE29BF
:1003A800831203131308F0007008F700A630F0005A
:1003B800F00BDC290000012A941AE329E429012A18
:1003C800141DE729E829012A831203131308F000F2
:1003D8007008FA00831603131410780883120313A5
:1003E80093001416A630F000F00BF82900008316CD
:1003F80003131418002A012AFB29831203138C11F2
:1004080072088A00710E8300FE0E7E0E09000A1221
:100418008A1148220A128A11F301F401F501033006
:100428000A128A113A210A128A1100300A128A1114
:10043800CB200A128A1100300A128A1117200A12D8
:100448008A11831203130C1F2A2A2B2A252A9F1884
:100458002E2A2F2A252A1E08A2002208F80000307A
:100468000A128A1117200A128A1184308312031380
:10047800A200A20B3D2A0000831203139F140C1341
:10048800252A0A128A110C280330831603178800BC
:1004980089010330831603138500860188018312BE
:1004A8000313850186018801831603130F178F161E
:1004B8000F160F1450300A128A1165220A128A1177
:1004C8000800F30073088316031393003630831271
:1004D80003139400803083160313940001309100B5
:1004E800871507168B170B17831203138C118316A6
:0604F80003138C1508003F
:04400E00D420FF3F7C
:00000001FF
