:060000000A128A110E280D
:10000800FE00030EF3000408F4000A08F5000A12C3
:100018008A11592A0A128A111128F701F801F901DF
:10002800FA01FB01FC0183132030840039300A12E5
:100038008A11E2220A128A1183010A128A11A3295B
:1000480083120313BB0078281F119F111F129F12E0
:10005800B2281F159F111F129F12B2281F119F153A
:100068001F129F12B2281F159F151F129F12B22828
:100078001F119F111F169F12B2281F159F111F16BF
:100088009F12B2281F119F151F169F12B2281F1505
:100098009F151F169F12B2281F119F111F129F161E
:1000A800B2281F159F111F129F16B2281F119F15E6
:1000B8001F129F16B2281F159F151F129F16B228D0
:1000C8001F119F111F169F16B2281F159F111F166B
:1000D8009F16B2281F119F151F169F16B2281F15AD
:1000E8009F151F169F16B2283B08B900BA013A0897
:1000F800003A03198028B2283908003A0319282839
:10010800013A03192D28033A03193228013A031931
:100118003728073A03193C28013A03194128033ABA
:1001280003194628013A03194B280F3A0319502896
:10013800013A03195528033A03195A28013A0319B1
:100148005F28073A03196428013A03196928033A12
:1001580003196E28013A03197328B22884308312D0
:100168000313B900B90BB6280000831203139F14B8
:10017800080083120313BE001F1484308312031374
:10018800BC00BC0BC5280000D5281F139F13ED2801
:100198001F179F13ED281F139F17ED281F179F1771
:1001A800ED28831203133E08BC00BD013D08003A48
:1001B8000319DF28ED283C08013A0319C928033A36
:1001C8000319CC28013A0319CF28073A0319D22872
:1001D800ED283903031DF128F228F82883160313A4
:1001E8000C17831203130C133B08031DFC28FD286E
:1001F8000129831603139F131929831603139F17C5
:100208001929831603131F129F123129831603130A
:100218001F169F123129831603131F129F163129A7
:10022800831603131F169F163129831203133A08E6
:10023800BC00BD013D08003A0319232931293C08B7
:10024800003A03190529013A03190A29033A03193F
:100258000F29013A031914293129080083120313BD
:10026800BB006E29831603170814A22983160317E7
:100278008814A229831603170815A22983160317C1
:100288008815A229831603170816A22983160317AF
:100298008816A229831603170817A229831603179D
:1002A8008817A229831603170914A229831603178E
:1002B8008914A229831603170915A229831603177F
:1002C8008915A229831603170916A229831603176D
:1002D8008916A2293B08B900BA013A08003A03195D
:1002E8007629A2293908003A03193629013A03194F
:1002F8003A29033A03193E29013A03194229073AD0
:1003080003194629013A03194A29033A03194E29C0
:10031800013A031952290F3A03195629013A0319C8
:100328005A29033A03195E29013A03196229073A3F
:1003380003196629013A03196A29A22908000A1231
:100348008A1192220A128A1183120313B901BA017F
:10035800BB0103300A128A11BD200A128A1100302B
:100368000A128A1132210A128A1101300A128A11DC
:1003780032210A128A1100300A128A1124200A1224
:100388008A11831203130C1FCA29CB29C5299F1868
:10039800CE29CF29C5293808031DD329D429E52911
:1003A8001E08BF003F08FC0000300A128A112420F2
:1003B8000A128A11013083120313BF003F08B807DD
:1003C800F3291E08BF003F08FB0001300A128A11FA
:1003D80024200A128A11013083120313B8028430D0
:1003E80083120313BF00BF0BF72900008312031306
:1003F8009F140C13C5290A128A110E28831203139D
:10040800BB00382A8F30831603138F05572A8316AB
:1004180003130F088F3910388F00572A8F3083162F
:1004280003138F05572A831603130F088F391038C3
:100438008F00572A831603130F088F3940388F000F
:10044800572A831603130F088F3950388F00572AFD
:100458007030831603138F04572A831603130F086B
:100468008F3960388F00572A3B08B900BA013A081B
:10047800003A0319402A312A3908003A0319062A92
:10048800013A03190B2A033A0319122A013A0319EC
:10049800172A073A03191E2A013A0319252A023A8C
:1004A80003192C2A312A0F140800831203138C1DF8
:1004B8005E2A5F2A892A0A128A11D9220A128A1107
:1004C800F1007108F600762A7C080A128A11F122D6
:1004D8000A128A11862A7B080A128A11F1220A1244
:1004E8008A11862A7608F100F2017208003A031987
:1004F8007E2A862A7108013A0319682A033A0319E1
:100508006F2A862A831203138C1175088A007408CF
:100518008400730E8300FE0E7E0E090003308316DE
:100528000317880089018316031385160330850095
:100538008601880183120313850186018801B901A8
:10054800BA01BB0124300A128A11BB220A128A118D
:1005580007300A128A1102220A128A118B170B1706
:10056800831203138C11831603138C15080083124E
:100578000313BC00831603138712831203133C1D55
:10058800C62AC72ACD2A3B08831603139400871569
:10059800D32A39083B048316031394008711831266
:1005A80003133C083A04940008000A128A11EA224C
:1005B8000A128A11831203131308080064008001C9
:1005C800840A0406031900340406E32A8316031375
:1005D800141CEF2AF02AEA2A0800F0007008831297
:0605E8000313930008005C
:04400E00C420FF3F8C
:00000001FF
