:060000000A128A110C280F
:10000800FE00030EFB000A08FC000A168A11C82A23
:100018000A128A110F2883120313EE01EF018313CA
:10002800C0308400DD300A168A11A3210A128A1111
:1000380083010A168A11562E831203135C0880392D
:10004800E100610883160313A000831203135C0800
:10005800E1006107E200620883160313A600831219
:100068000313DB1F382839283C288316031326146A
:100078008316031326080319422843285528260AFD
:10008800031D472848285228003083120313DC0038
:100098000030DB000030DA000030D9008312DB17B3
:1000A8005F28003083120313DC000030DB000030CF
:1000B800DA000030D90060088039E1006108831651
:1000C8000313A006831203136008E1006107E2002E
:1000D800620883160313A50083120313DF1F752814
:1000E8007628792883160313251483160313250805
:1000F80003197F2880289228250A031D842885282B
:100108008F28003083120313E0000030DF00003036
:10011800DE000030DD008312DF179C2800308312D8
:100128000313E0000030DF000030DE000030DD00A7
:100138008316031325080319A228A328A82826082C
:10014800031DA728A828B328003083120313DC0056
:100158000030DB000030DA000030D9007E2D831239
:1001680003135908E1006108A0005F080A168A1104
:100178001D220A128A1183120313210883160313FE
:10018800AC0083120313200883160313AB002B085B
:1001980083120313E100E201E301E401640883161A
:1001A8000313A40083120313630883160313A30025
:1001B80083120313620883160313A2008312031326
:1001C800610883160313A1002C0883120313E100AE
:1001D800E201E301E401640883160313AA00831211
:1001E8000313630883160313A90083120313620819
:1001F80083160313A80083120313610883160313DD
:10020800A700831203135A08E1006108A0005E08E2
:100218000A168A111D220A128A1183120313210851
:1002280083160313AC0083120313200883160313E9
:10023800AB002B0883120313E100E201E301E401A0
:10024800610883160313A1078312031362080311BD
:100258000318013E0319332983160313A2078312D7
:100268000313630803110318013E03193E2983167B
:100278000313A30783120313640803110318013E31
:100288000319492983160313A4078312031383163A
:1002980003132C0883120313E100E201E301E401D4
:1002A800610883160313A707831203136208031157
:1002B8000318013E0319632983160313A807831241
:1002C8000313630803110318013E03196E298316EB
:1002D8000313A90783120313640803110318013ECB
:1002E8000319792983160313AA07831203138316A4
:1002F8000313831203135B08E1006108A0005D0883
:100308000A168A111D220A128A1183120313210860
:1003180083160313AC0083120313200883160313F8
:10032800AB002B0883120313E100E201E301E401AF
:10033800610883160313A1078312031362080311CC
:100348000318013E0319AB2983160313A20783126E
:100358000313630803110318013E0319B629831612
:100368000313A30783120313640803110318013E40
:100378000319C12983160313A407831203138316D1
:1003880003132C0883120313E100E201E301E401E3
:10039800610883160313A707831203136208031166
:1003A8000318013E0319DB2983160313A8078312D8
:1003B8000313630803110318013E0319E629831682
:1003C8000313A90783120313640803110318013EDA
:1003D8000319F12983160313AA078312031383163B
:1003E8000313083083120313E10003108316031369
:1003F800A10DA20DA30DA40D83120313E10BF9297E
:100408005A08E1006108A0005D080A168A111D2239
:100418000A128A1183120313210883160313AC00EE
:1004280083120313200883160313AB002B088312CF
:100438000313E100831603132C0883120313E2004D
:10044800E301E401610883160313A1078312031370
:10045800620803110318013E0319352A8316031392
:10046800A20783120313630803110318013E03193B
:10047800402A83160313A307831203136408031186
:100488000318013E03194B2A83160313A40783128A
:10049800031383160313831203135908E100610839
:1004A800A0005E080A168A111D220A128A118312F8
:1004B8000313210883160313AC00831203132008C7
:1004C80083160313AB002B0883120313E100831672
:1004D80003132C0883120313E200E301E40161080B
:1004E80083160313A1078312031362080311031869
:1004F800013E0319822A83160313A20783120313EA
:10050800630803110318013E03198D2A8316031388
:10051800A30783120313640803110318013E031988
:10052800982A83160313A40783120313831603134D
:10053800083083120313E100031083160313A10D7F
:10054800A20DA30DA40D83120313E10BA02A5908D1
:10055800E1006108A0005D080A168A111D220A122E
:100568008A1183120313210883160313AC00831224
:100578000313200883160313AB002B0883120313FD
:10058800E100831603132C0883120313E200E3012E
:10059800E401610883160313A10783120313620899
:1005A80003110318013E0319DC2A83160313A2075B
:1005B80083120313630803110318013E0319E72A82
:1005C80083160313A3078312031364080311031884
:1005D800013E0319F22A83160313A4078312031397
:1005E80083160313831203135A08E1006108A0005D
:1005F8005F080A168A111D220A128A118312031330
:10060800210883160313AC008312031320088316F2
:100618000313AB002B0883120313E10083160313A3
:100628002C0883120313E200E301E4016108831636
:100638000313A70783120313620803110318013E6B
:100648000319292B83160313A807831203136308BE
:1006580003110318013E0319342B83160313A9074A
:1006680083120313640803110318013E03193F2B77
:1006780083160313AA078312031383160313831223
:1006880003135B08E1006108A0005E080A168A11DE
:100698001D220A128A1183120313210883160313D9
:1006A800AC0083120313200883160313AB002B0836
:1006B80083120313E100831603132C088312031318
:1006C800E200E301E401610883160313A70783121C
:1006D8000313620803110318013E0319762B8316CE
:1006E8000313A80783120313630803110318013EB9
:1006F8000319812B83160313A907831203136408B4
:1007080003110318013E03198C2B83160313AA0740
:100718008312031383160313831203135B08E10088
:100728006108A0005F080A168A111D220A128A11A0
:1007380083120313210883160313AC0083120313D7
:10074800200883160313AB002B0883120313E10060
:10075800831603132C0883120313E200E301E40158
:1007680008300310E10DE20DE30DE40DFF3E031D1B
:10077800B52B610883160313A707831203136208B6
:1007880003110318013E0319CC2B83160313A80782
:1007980083120313630803110318013E0319D72BAF
:1007A80083160313A907831203136408031103189C
:1007B800013E0319E22B83160313AA0783120313BE
:1007C80083160313210883120313E100831603130E
:1007D800220883120313E2008316031323088312EB
:1007E8000313E30083160313240883120313E4009E
:1007F80018300310E40CE30CE20CE10CFF3E031D7F
:10080800FD2B610883160313A707831203136208DD
:1008180003110318013E0319142C83160313A807A8
:1008280083120313630803110318013E03191F2CD5
:1008380083160313A907831203136408031103180B
:10084800013E03192A2C83160313AA0783120313E4
:1008580083160313083083120313E1000310831671
:100868000313A10DA20DA30DA40D83120313E10B15
:10087800322C831603132608250783120313E1007D
:10088800E201E20D6108823E83160313AB00831276
:10089800031362080318013EFF3E83160313AC00DE
:1008A800822C013083120313E10003108316031313
:1008B800A70DA80DA90DAA0D83120313E10B592C3E
:1008C80083160313A41F692C6A2C6B2C2714013080
:1008D80083120313E100031083160313A10DA20D65
:1008E800A30DA40D83120313E10B6F2CFF308316A5
:1008F8000313AB070318AC0AFF30AC07A91F852CFC
:10090800862C552CA501A41F8A2C8B2CB92CFF30C2
:10091800210583120313E100FF3083160313220518
:1009280083120313E200FF30831603132305831297
:100938000313E3007F308316031324058312031384
:10094800E40064086304620461040319AC2CAD2C50
:10095800B22C83160313A501A50AB92C8316031319
:10096800271CB72CB82CB92CAD2C25080319BD2C85
:10097800BE2C0B2D0130A707003003180130A80743
:10098800003003180130A907003003180130AA0706
:100998002A1CCF2CD02C0B2D270883120313E1001F
:1009A80083160313280883120313E2008316031324
:1009B800290883120313E300831603132A088312FA
:1009C8000313E4000130E500640DE40CE30CE20CD1
:1009D800E10CE50BE82C640883160313AA008312C4
:1009E8000313630883160313A90083120313620811
:1009F80083160313A80083120313610883160313D5
:100A0800A7000130AB070318AC0A0030AC072C086C
:100A1800803AFF0080307F02031D142DFF302B0227
:100A2800031C172D182D232D7F3083160313AA00BE
:100A38008030A9000030A8000030A700602D831680
:100A480003132C08803AFF0080307F02031D2E2DEF
:100A580001302B020318312D322D3E2D0030831624
:100A68000313AA000030A9000030A8000030A70036
:100A7800A001602D831603132B0883120313E100D2
:100A8800610883160313A600FF30A705FF30A805E9
:100A98007F30A9050030AA05261C532D542D552D4D
:100AA800A917260883120313E1000310610CE20062
:100AB800620883160313AA00200883120313E100B7
:100AC800610883160313AA042A0883120313DC009F
:100AD80083160313290883120313DB0083160313F9
:100AE800280883120313DA008316031327088312D6
:100AF8000313D90008008312031346088039C7007E
:100B08004708D0004608C7004707C8004808D7006C
:100B1800C51F8F2D902D912D571457080319952D0A
:100B2800962DA62D570A031D9A2D9B2DA32D003017
:100B3800C6000030C5000030C4000030C300C5172F
:100B4800C601AE2D0030C6000030C5000030C4001C
:100B58000030C30042088039C7004708D006420861
:100B6800C7004707C8004808D800C11FBC2DBD2DC5
:100B7800BE2D581458080319C22DC32DD32D580A59
:100B8800031DC72DC82DD02D0030C2000030C10074
:100B98000030C0000030BF00C117C201DB2D00309B
:100BA800C2000030C1000030C0000030BF00420861
:100BB800410440043F04031DE22DE32DFC2D0030C9
:100BC800C6000030C5000030C4000030C3008030CB
:100BD800C5047F30C6045008C7004708C604460845
:100BE800C2004508C1004408C0004308BF005B2F8D
:100BF8005708031D002E012E0A2E0030C2000030B7
:100C0800C1000030C0000030BF005B2F5708C7008C
:100C1800C8014808CA0058084702C900031CCA038B
:100C280049087F3ED1004A080318013E003ED20021
:100C38004608CF004508CE004408CD004308CC0044
:100C48000030C6000030C5000030C4000030C300CA
:100C58000030D6000030D5000030D4000030D3007A
:100C6800D801802E580803193A2E3B2E5B2E0130EE
:100C7800C7000310CC0DCD0DCE0DCF0DC70B3D2EEB
:100C88000130C7000310C30DC40DC50DC60DC70B39
:100C9800462ED61F502E512E522E43140130C70017
:100CA8000310D30DD40DD50DD60DC70B542E420805
:100CB8004F02031D692E41084E02031D692E40088C
:100CC8004D02031D692E3F084C02031C6C2E6D2E2D
:100CD8007C2E56173F08CC024008031C400FCD025B
:100CE8004108031C410FCE024208031C420FCF02E9
:100CF8000130C7004708D8071A305802031C852E50
:100D0800862E362E4F084E044D044C0403198D2EA2
:100D18008E2EAD2E5314AD2E0130C7000310C30D17
:100D2800C40DC50DC60DC70B922ED61F9C2E9D2E29
:100D38009E2E43140130C7000310D30DD40DD50DDA
:100D4800D60DC70BA02EFF30D1070318D20AFF30EB
:100D5800D207C51FB02EB12E902ED801D61FB52EA2
:100D6800B62ED22EFF305305C700FF305405C800F9
:100D7800FF305505C9007F305605CA004A084904A6
:100D8800480447040319C92ECA2ECD2ED801D80A03
:100D9800D22E431CD02ED12ED22ECA2E580803197B
:100DA800D62ED72E082F0130C30700300318013084
:100DB800C407003003180130C5070030031801309C
:100DC800C607461CE82EE92E082F4308C70044082A
:100DD800C8004508C9004608CA000130CB004A0DC2
:100DE800CA0CC90CC80CC70CCB0BF32E4A08C6009A
:100DF8004908C5004808C4004708C3000130D107A6
:100E08000318D20A0030D2075208803AFF00803017
:100E18007F02031D112FFF305102031C142F152FC1
:100E2800232FFF3083120313D1000030D20000308B
:100E3800C6000030C5000030C4000030C300831273
:100E480003135208803AFF0080307F02031D2E2FC3
:100E5800013051020318312F322F3F2F8312031311
:100E6800D101D2010030C6000030C5000030C400F6
:100E78000030C300D001831203135108C70047088C
:100E8800D700571C482F492F4B2FC5174F2F7F309E
:100E9800C7004708C5055708C7000310470CC80016
:100EA8004808C6005008C7004708C604F32D0800C4
:100EB8000030831203132005A80000302105A90083
:100EC80080302205AA007F302305AB002B082A04B6
:100ED80029042804031D712F722F7A2F0030A300D4
:100EE8000030A2000030A1000030A000003024052E
:100EF800A80000302505A90080302605AA007F300B
:100F08002705AB002B082A0429042804031D8D2F6C
:100F18008E2F962F0030A7000030A6000030A500C5
:100F28000030A400A31F992F9A2FBE2F0030A800CD
:100F38000030A9000030AA008030AB002008A802C9
:100F48002108031C210FA92FAA2FA9022208031C7C
:100F5800220FAF2FB02FAA022308031C230FB52F8F
:100F6800B62FAB022B08A3002A08A2002908A1006B
:100F78002808A000A71FC12FC22FE62F0030A80005
:100F88000030A9000030AA008030AB002408A80275
:100F98002508031C250FD12FD22FA9022608031CD0
:100FA800260FD72FD82FAA022708031C270FDD2FBB
:100FB800DE2FAB022B08A7002A08A6002908A500E7
:100FC8002808A4008030A3068030A706270823023B
:100FD800031DF82F26082202031DF82F25082102D9
:100FE800031DF82F240820020318FB2FFC2FFE2FC7
:100FF8000310FF2F031408000310720D730DF40083
:101008007408FA007A08031D0A280B2814280030EF
:10101800F3000030F2000030F1000030F0007928D1
:101028007008F4007108F5007208F6007308F700FC
:101038001F300310F70CF60CF50CF40CFF3E031DE3
:101048001D287408F8007808F900F217FF30F00539
:10105800FF30F105FF30F2050030F3059630FA0253
:10106800FA1F3728382852287A08803A973E0318FA
:101078003E283F2840280B2801300310F30CF20CBF
:10108800F10CF00CFF3E031D41280130F4007408F8
:10109800FA07031D502851284028692820307A0271
:1010A800031C5728582864280B280130F400031023
:1010B800F00DF10DF20DF30DF40B5B280130FA027F
:1010C8007A08031D682869285928790803196D28A2
:1010D8006E287928F009F109F209F309F00A0319D1
:1010E800F10A0319F20A0319F30A08008312031319
:1010F800B90039080319812882289628B41F852841
:10110800862896283109BB003209BC003309BD0086
:101118003409BE00BB0A0319BC0A0319BD0A031926
:10112800BE0A9E283408BE003308BD003208BC0041
:101138003108BB003408330432043104031DA528E8
:10114800A628AF280030B4000030B3000030B20049
:101158000030B10035299630B5003508BA00C128ED
:101168000130B5003508BA0701300310BE0CBD0CBC
:10117800BC0CBB0CFF3E031DB928FE303E05031D09
:10118800C628C728B428E3280130B5003508BA07AF
:101198000130BB07003003180130BC0700300318CA
:1011A8000130BD07003003180130BE0701300310BD
:1011B800BE0CBD0CBC0CBB0CFF3E031DDB28FF3076
:1011C8003E05031DE828E928C828F5280130BA0299
:1011D8000130B5000310BB0DBC0DBD0DBE0DB50B28
:1011E800EE28BD1BF828F928FF2802303A02031818
:1011F800FE28FF28EA283A18022903290B29FF307C
:10120800BB05FF30BC057F30BD05FF30BE050310B0
:10121800BA0C3A08B500B601B701B8011830031086
:10122800B50DB60DB70DB80DFF3E031D13293508D2
:10123800BB043608BC043708BD043808BE043908A6
:101248000319272928292D29B41F2B292C292D29B1
:10125800BE173E08B4003D08B3003C08B2003B0886
:10126800B10008008312031323088039A800280856
:10127800B0002308A8002807A9002908B200A21F67
:101288004629472948293214320803194C294D297F
:101298005D29320A031D512952295A290030A30019
:1012A8000030A2000030A1000030A000A217A30166
:1012B80065290030A3000030A2000030A1000030F2
:1012C800A00027088039A8002808B1003108300696
:1012D80003196F297029712930172708A8002807D2
:1012E800A9002908B100A61F7A297B297C29311475
:1012F80031080319802981299129310A031D85297B
:1013080086298E290030A7000030A6000030A500ED
:101318000030A400A617A70199290030A7000030C3
:10132800A6000030A5000030A400320831020318DE
:101338009E299F29E329301FA229A329A7298030A4
:10134800A8002808B0063208A8002808B300310809
:10135800A8002808B2003308A8002808B10020080F
:10136800A8002808B3002408A8002808A00033080B
:10137800A8002808A4002108A8002808B300250808
:10138800A8002808A1003308A8002808A5002208FA
:10139800A8002808B3002608A8002808A2003308D7
:1013A800A8002808A6002308A8002808B3002708D2
:1013B800A8002808A3003308A8002808A700B3013C
:1013C8003108A800A9012908AB0032082802AA00A0
:1013D800031CAB032B08803AFF0080307F02031DFB
:1013E800F7291A302A02031CFA29FB29382A831202
:1013F80003132308220421042004031D042A062AB7
:101408000130072A0030A8002808B3000030A300E4
:101418000030A2000030A1000030A0003108A80070
:101428002808B200402A331C1A2A1B2A242A330807
:10143800A8000310280C0138A9002908B300262A9F
:101448000310B30C201C292A2A2A2B2AB31701308F
:10145800A800230DA30CA20CA10CA00CA80B2D2AEC
:101468000130A8002808B20783120313310832029A
:10147800031C3F2A402A172A301B432A442A8F2A52
:101488003208031D482A492A522A0030A300003096
:10149800A2000030A1000030A000BD2B2408A00746
:1014A800250803110318013E03195B2AA107260822
:1014B80003110318013E0319622AA2072708031122
:1014C8000318013E0319692AA307231C6C2A6D2AF5
:1014D800432B331C702A712A7A2A3308A800031078
:1014E800280C0138A9002908B3007C2A0310B30C82
:1014F800201C7F2A802A812AB3170130A800230DD7
:10150800A30CA20CA10CA00CA80B832A0130A800E4
:101518002808B207432B2308803AFF002708803A9F
:101528007F02031DA12A26082202031DA12A2508DD
:101538002102031DA12A240820020318A42AA52A8F
:10154800FD2AFF30A800FF30A900FF30AA00FF30B5
:10155800AB002408AC002508AD002608AE0027081B
:10156800AF002008AC022108031C210FBC2ABD2AA9
:10157800AD022208031C220FC22AC32AAE02230886
:10158800031C230FC82AC92AAF022C08A8072D0854
:1015980003182D0FD02AD12AA9072E0803182E0FB9
:1015A800D62AD72AAA072F0803182F0AAB072B0811
:1015B800A3002A08A2002908A1002808A00080305A
:1015C800A8002808B006B309B30A3308031DED2A9A
:1015D800EE2A0B2B0130A007003003180130A107B9
:1015E800003003180130A207003003180130A307A8
:1015F8000B2B2408A0022508031C250FA10226088E
:10160800031C260FA2022708031C270FA302230886
:10161800220421042004031D122B132B3F2B330813
:10162800031D172B182B3F2B0030A3000030A200FE
:101638000030A1000030A000BD2B0130A80003102D
:10164800A00DA10DA20DA30DA80B232BB31F2D2BAD
:101658002E2B2F2B2014331C322B332B362B031419
:10166800B30D382B0310B30D320803193C2B3D2B57
:101678003F2B0130B202A21F422B432B212BB10179
:10168800B31F472B482B562B33087F3903194D2B93
:101698004E2B512BB101B10A562B201C542B552B24
:1016A800562B4E2B310803195A2B5B2B8F2B0130ED
:1016B800A007003003180130A107003003180130DB
:1016C800A207003003180130A307231C6C2B6D2BD5
:1016D8008F2B2008A8002108A9002208AA002308A7
:1016E800AB000130AC002B0DAB0CAA0CA90CA80C5C
:1016F800AC0B772B2B08A3002A08A2002908A1000D
:101708002808A000320A03198A2B8B2B8F2B013053
:10171800A8002808B207320A0319932B942B992B97
:101728003208031D982B992BA72B0030A3000030FB
:10173800A2000030A1000030A0003208031DA52B34
:10174800A62BA72BB001321CAA2BAB2BAD2BA217B3
:10175800B12B7F30A8002808A2053208A800031082
:10176800280CA9002908A300B01FBB2BBC2BBD2B3C
:10177800A317080083160313B10083120313690823
:10178800A3006808A2006708A1006608A0000A165E
:101798008A1141250A128A15831203132108831618
:1017A8000313AE0083120313200883160313AD003E
:1017B800B801B901B601B7010130BA000030BB0069
:1017C800831203136908A3006808A2006708A10030
:1017D8006608A0000030A7000030A6000030A50071
:1017E8000030A4000A128A115C270A128A1503180D
:1017F800FE2BFF2B5D2CBF3083120313DC008030DF
:10180800DB000030DA000030D9006908E000680821
:10181800DF006708DE006608DD000A128A11202052
:101828000A128A15831203135C08E9005B08E800B2
:101838005A08E7005908E6002D30EC008316031318
:1018480031088400831203136C088313800001306D
:1018580083160313B6070318B70A0030B7075D2CC1
:101868000A3083120313A0000030A100831603136B
:101878002E0883120313A300831603132D08831263
:101888000313A2000A168A1188230A128A158312E2
:101898000313210883160313AE00831203132008D1
:1018A80083160313AD000130B8070318B90A0030D6
:1018B800B907831603132D082E04031D642C652C09
:1018C800342C9D2D38033904031D6B2C6C2C712C82
:1018D8000130BA000030BB00B32C0230AF0000303A
:1018E800B0009D2C831603133B0883120313AC002E
:1018F800831603133A0883120313AB000A30AD00B2
:101908000030AE000A168A11F6210A128A158312CF
:1019180003132C0883160313BB00831203132B082D
:1019280083160313BA000130AF070318B00A00305A
:10193800B0073908803A83120313EC0083160313A7
:101948003008803A831203136C02031DAF2C8316F0
:1019580003132F0838020318B22CB32C762C8316E5
:1019680003133A0883120313B100831603133B08C9
:1019780083120313B2000030B21BFF30B300B4006F
:1019880001300A128A157A200A128A158312031363
:101998003408C2003308C1003208C0003108BF0053
:1019A8006908C6006808C5006708C4006608C3005F
:1019B8000A128A117F250A128A1583120313420814
:1019C80083160313B5008312031341088316031308
:1019D800B40083120313400883160313B300831261
:1019E80003133F0883160313B2003B088312031343
:1019F800AE00831603133A0883120313AD0083164F
:101A08000313350883120313A30083160313340842
:101A180083120313A20083160313330883120313DC
:101A2800A10083160313320883120313A0000A16B9
:101A38008A1141250A128A15831203132108AC0062
:101A48002008AB000A168A11F6210A128A15831299
:101A580003132B08B1002C08B2000030B21BFF3072
:101A6800B300B40001300A128A157A200A128A15C6
:101A7800831203133408C2003308C1003208C000BF
:101A88003108BF006908C6006808C5006708C400B7
:101A98006608C3000A168A11D2210A128A1583120F
:101AA80003134208E9004108E8004008E7003F083E
:101AB800E60083160313350883120313A300831665
:101AC8000313340883120313A20083160313330885
:101AD80083120313A100831603133208831203131E
:101AE800A0000A168A1141250A128A1583120313C7
:101AF8002008303EEC0083160313360831078312A2
:101B08000313ED006D0884006C0883138000013016
:101B180083160313B6070318B70A0030B707FF3058
:101B2800B8070318B90AFF30B9070130BA00003006
:101B3800BB0038083904031DA22DA32D662C2E30B6
:101B480083120313EC00831603133608310783123C
:101B58000313ED006D0884006C08831380000130C6
:101B680083160313B6070318B70A0030B707013006
:101B7800AF000030B000E72D831603133B08831233
:101B88000313AC00831603133A0883120313AB0044
:101B98000A30AD000030AE000A168A11F6210A128A
:101BA8008A15831203132C0883160313BB008312B0
:101BB80003132B0883160313BA000130AF07031869
:101BC800B00A0030B007831203136B08803AEC00A8
:101BD800831603133008803A831203136C02031D23
:101BE800FB2D831603132F08831203136A020318AD
:101BF800FE2DFF2DC02D831603133A0883120313FD
:101C0800B100831603133B0883120313B20000309C
:101C1800B21BFF30B300B40001300A128A157A20D3
:101C28000A128A15831203133408DC003308DB0018
:101C38003208DA003108D9006908A3006808A20050
:101C48006708A1006608A0000A168A1141250A1231
:101C58008A15831203132008B1002108B20000304E
:101C6800B21BFF30B300B40001300A128A157A2083
:101C78000A128A15831203133408C2003308C100FC
:101C88003208C0003108BF006908C6006808C500EE
:101C98006708C4006608C3000A168A11D2210A120E
:101CA8008A15831203134208E0004108DF00400848
:101CB800DE003F08DD000A128A1120200A128A1568
:101CC800831203135C0883160313B50083120313EE
:101CD8005B0883160313B400831203135A08831690
:101CE8000313B30083120313590883160313B200B6
:101CF800350883120313E90083160313340883128B
:101D08000313E80083160313330883120313E70051
:101D180083160313320883120313E6006908A3002D
:101D28006808A2006708A1006608A0000A168A11C0
:101D380041250A128A15013083160313BA000030B0
:101D4800BB00831203136B0883160313B9008312B5
:101D580003136A0883160313B800E92F38033904FC
:101D6800031DB72EB82EBD2E0130BA000030BB00BF
:101D7800FF2E0230AF000030B000E92E83160313A7
:101D88003B0883120313AC00831603133A0883122B
:101D98000313AB000A30AD000030AE000A168A11FA
:101DA800F6210A128A15831203132C0883160313CB
:101DB800BB00831203132B0883160313BA000130E8
:101DC800AF070318B00A0030B0073908803A831209
:101DD8000313EC00831603133008803A83120313AD
:101DE8006C02031DFB2E831603132F0838020318F9
:101DF800FE2EFF2EC22E831603133A0883120313F6
:101E0800B100831603133B0883120313B20000309A
:101E1800B21BFF30B300B40001300A128A157A20D1
:101E28000A128A15831203133408C2003308C1004A
:101E38003208C0003108BF006908C6006808C5003C
:101E48006708C4006608C3000A128A117F250A12AF
:101E58008A1583120313420883160313B5008312ED
:101E68000313410883160313B400831203134008B5
:101E780083160313B300831203133F088316031357
:101E8800B2003B0883120313AE00831603133A080B
:101E980083120313AD00831603133508831203134B
:101EA800A30083160313340883120313A2008316B6
:101EB8000313330883120313A10083160313320894
:101EC80083120313A0000A168A1141250A128A15E3
:101ED800831203132108AC002008AB000A168A11EC
:101EE800F6210A128A15831203132B08B1002C0855
:101EF800B2000030B21BFF30B300B40001300A1248
:101F08008A157A200A128A15831203133408C2002C
:101F18003308C1003208C0003108BF006908C60094
:101F28006808C5006708C4006608C3000A168A1155
:101F3800D2210A128A15831203134208E9004108C4
:101F4800E8004008E7003F08E60083160313350859
:101F580083120313A3008316031334088312031395
:101F6800A20083160313330883120313A1008316F8
:101F78000313320883120313A0000A168A1141259D
:101F88000A128A15831203132008303EEC008316C8
:101F980003133608310783120313ED006D0884001C
:101FA8006C0883138000013083160313B6070318E7
:101FB800B70A0030B707FF30B8070318B90AFF306F
:101FC800B9070130BA000030BB0038083904031DD6
:101FD800EE2FEF2FB22E0A3083120313EC00831674
:101FE80003133608310783120313ED006D088400CC
:081FF8006C088313800008004F
:10232C00F000700883120313930008008316031344
:10233C00141CA129A2299C29080064008001840A8C
:10234C000406031900340406A4290A168A119C21D8
:10235C000A168A118312031313080800831203133D
:10236C00A30083160313871283120313231DBF29A3
:10237C00C029C62922088316031394008715CC297B
:10238C00200822048316031394008711831203136D
:10239C002308210494000800803083120313C20622
:1023AC004608A3004508A2004408A1004308A00069
:1023BC004208A7004108A6004008A5003F08A40059
:1023CC000A128A1536210A168A118312031323085E
:1023DC00C2002208C1002108C0002008BF0008006C
:1023EC0083120313AF01B0012B1CFD29FE29042A13
:1023FC002D08AF070318B00A2E08B00701300310E0
:10240C00AD0DAE0DFF3E031D052A01300310AC0CC3
:10241C00AB0CFF3E031D0C2A2B082C04031D172AA2
:10242C00182AFA293008AC002F08AB0008008312D8
:10243C000313A800A401A5012008A200A3012208EF
:10244C00A6002308A700281C2C2A2D2A332A26088C
:10245C00A4070318A50A2708A50701300310A60D29
:10246C00A70DFF3E031D342A0310A80C2808031DDA
:10247C00402A412A292A2508A1002408A000080086
:10248C008316031788018901831603130514851419
:10249C008601870188018312031386018701880155
:1024AC0007300A168A1171220A168A118B170B171C
:1024BC00831203138C11831603138C158516831248
:1024CC000313A001A101A20124300A168A11B42120
:1024DC000A168A11080083120313A200A72A8F3050
:1024EC00831603138F05C62A831603130F088F391F
:1024FC0010388F00C62A8F30831603138F05C62A17
:10250C00831603130F088F3910388F00C62A8316D1
:10251C0003130F088F3940388F00C62A8316031314
:10252C000F088F3950388F00C62A7030831603136A
:10253C008F04C62A831603130F088F3960388F0057
:10254C00C62A2208A000A1012108003A0319AF2ACB
:10255C00A02A2008003A0319752A013A03197A2A8D
:10256C00033A0319812A013A0319862A073A0319F7
:10257C008D2A013A0319942A023A03199B2AA02A9C
:10258C000F140800831203138C1DCD2ACE2A192B8D
:10259C000A168A11AB210A168A11831203138700BB
:1025AC00831603134708F3004608F2004508F100B0
:1025BC004408F0000A128A1500200A168A117008C5
:1025CC000A168A1196210A168A110A168A11AB214B
:1025DC000A168A1183120313880083160313430807
:1025EC00F3004208F2004108F1004008F0000A1222
:1025FC008A1500200A168A1170080A168A1196216B
:10260C000A168A110A168A11AB210A168A1183122C
:10261C000313880006080A168A1196210A168A11D5
:10262C00831203138C117C088A007B0E8300FE0E30
:10263C007E0E0900003083120313AC000030AB0097
:10264C000030AA000030A900230822042104200431
:10265C000319312B322B7F2BAD01AD0A422B0130EC
:10266C00A8000310A00DA10DA20DA30DA80B372BD4
:10267C000130A8002808AD07A31F452B462B352B8E
:10268C000130A8000310A90DAA0DAB0DAC0DA80BC1
:10269C00482B23082702031D5D2B22082602031D4D
:1026AC005D2B21082502031D5D2B20082402031C31
:1026BC00602B612B702B2008A4022108031C210F16
:1026CC00A5022208031C220FA6022308031C230FB9
:1026DC00A702291401300310A30CA20CA10CA00C0E
:1026EC00FF3E031D712B0130AD02031D7E2B7F2B92
:1026FC00462B2C08A3002B08A2002A08A1002908AD
:10270C00A000080083120313A601A11F8E2B8F2B90
:10271C00962BA009A109A00A0319A10AA601A60AD1
:10272C00A31F992B9A2BA32BA209A309A20A031965
:10273C00A30A0130A4002408A606A701A8012008BA
:10274C0021040319AA2BAB2BE22BA501A50AB92B4B
:10275C0001300310A00DA10DFF3E031DAF2B013066
:10276C00A4002408A507A11FBC2BBD2BAE2B013048
:10277C000310A70DA80DFF3E031DBE2B210823023D
:10278C00031DCA2B20082202031CCD2BCE2BD52BCC
:10279C002008A2022108031CA303A3022714013062
:1027AC000310A10CA00CFF3E031DD62B0130A5027B
:1027BC00031DE12BE22BBD2B26080319E62BE72B7F
:1027CC00EC2BA709A809A70A0319A80A2808A10035
:1027DC002708A000080083120313A5001F14022C65
:1027EC001F139F13182C1F179F13182C1F139F17A1
:1027FC00182C1F179F17182C2508A300A4012408B8
:10280C00003A03190A2C182C2308013A0319F62B49
:10281C00033A0319F92B013A0319FC2B073A031954
:10282C00FF2B182C2003031D1C2C1D2C232C831672
:10283C0003130C17831203130C132208031D272CEC
:10284C00282C2C2C831603139F13442C8316031350
:10285C009F17442C831603131F129F125C2C831694
:10286C0003131F169F125C2C831603131F129F1643
:10287C005C2C831603131F169F165C2C83120313F8
:10288C002108A300A4012408003A03194E2C5C2C47
:10289C002308003A0319302C013A0319352C033A5A
:1028AC0003193A2C013A03193F2C5C2C08008312B3
:1028BC000313A200992C831603170814CD2C83162E
:1028CC0003178814CD2C831603170815CD2C8316EB
:1028DC0003178815CD2C831603170816CD2C8316D9
:1028EC0003178816CD2C831603170817CD2C8316C7
:1028FC0003178817CD2C831603170914CD2C8316B8
:10290C0003178914CD2C831603170915CD2C8316A8
:10291C0003178915CD2C831603170916CD2C831696
:10292C0003178916CD2C2208A000A1012108003A1A
:10293C000319A12CCD2C2008003A0319612C013A63
:10294C000319652C033A0319692C013A03196D2CF0
:10295C00073A0319712C013A0319752C033A031920
:10296C00792C013A03197D2C0F3A0319812C013A69
:10297C000319852C033A0319892C013A03198D2C60
:10298C00073A0319912C013A0319952CCD2C080008
:10299C00831203133208031DD42CD52C042D2E08BE
:1029AC00B3002F08B4003008B5003108B60006306B
:1029BC000310B30DB40DB50DB60DFF3E031DDE2C8B
:1029CC003608A3003508A2003408A1003308A00083
:1029DC000030A7007A30A6001230A5000030A40009
:1029EC000A168A1120230A168A118312031320084F
:1029FC00FF3E8316031399001811322D2E08B300D5
:102A0C002F08B4003008B5003108B60004300310AC
:102A1C00B30DB40DB50DB60DFF3E031D0D2D3608CF
:102A2C00A3003508A2003408A1003308A000003030
:102A3C00A7007A30A6001230A5000030A4000A16B8
:102A4C008A1120230A168A11831203132008FF3ED1
:102A5C00831603139900181518139816181283125D
:102A6C0003139817181318161811981083160313BC
:102A7C00871707130800031083120313220D230D6D
:102A8C00A4002408AA002A08031D4D2D4E2D572DF5
:102A9C000030A3000030A2000030A1000030A000E4
:102AAC00BC2D2008A4002108A5002208A60023089C
:102ABC00A7001F300310A70CA60CA50CA40CFF3EFE
:102ACC00031D602D2408A8002808A900A217FF30B8
:102ADC00A005FF30A105FF30A2050030A3059630FC
:102AEC00AA02AA1F7A2D7B2D952D2A08803A973E93
:102AFC000318812D822D832D4E2D01300310A30C34
:102B0C00A20CA10CA00CFF3E031D842D0130A400CF
:102B1C002408AA07031D932D942D832DAC2D203052
:102B2C002A02031C9A2D9B2DA72D4E2D0130A4009B
:102B3C000310A00DA10DA20DA30DA40B9E2D013011
:102B4C00AA022A08031DAB2DAC2D9C2D29080319B4
:102B5C00B02DB12DBC2DA009A109A209A309A00A71
:102B6C000319A10A0319A20A0319A30A0800831264
:102B7C000313A200112E1F119F111F129F124B2E17
:102B8C001F159F111F129F124B2E1F119F151F12E5
:102B9C009F124B2E1F159F151F129F124B2E1F118C
:102BAC009F111F169F124B2E1F159F111F169F1240
:102BBC004B2E1F119F151F169F124B2E1F159F1565
:102BCC001F169F124B2E1F119F111F129F164B2E5B
:102BDC001F159F111F129F164B2E1F119F151F1291
:102BEC009F164B2E1F159F151F129F164B2E1F1134
:102BFC009F111F169F164B2E1F159F111F169F16E8
:102C0C004B2E1F119F151F169F164B2E1F159F1510
:102C1C001F169F164B2E2208A000A1012108003A76
:102C2C000319192E4B2E2008003A0319C12D013A15
:102C3C000319C62D033A0319CB2D013A0319D02DD4
:102C4C00073A0319D52D013A0319DA2D033A031962
:102C5C00DF2D013A0319E42D0F3A0319E92D013A3E
:102C6C000319EE2D033A0319F32D013A0319F82D2C
:102C7C00073A0319FD2D013A0319022E033A0319E1
:102C8C00072E013A03190C2E4B2E8430831203139A
:102C9C00A000A00B4F2E0000831203139F140800FA
:102CAC000A168A1146220A168A1183120313A001EE
:102CBC00A00AA101A20102300A168A11F1230A16F8
:102CCC008A1100300A168A115D240A168A11013005
:102CDC000A168A115D240A168A1100300A168A1106
:102CEC00BD250A168A11003083120313B10000307F
:102CFC00B0002530AF008030AE00B201B20A0A1627
:102D0C008A11CE240A168A11831203130C1F8F2EDC
:102D1C00902EC52E831603134808031D962E972E4E
:102D2C00AE2E831203131E0883160313BC003C083B
:102D3C0083120313EF0000300A168A11BD250A1600
:102D4C008A11013083160313BC003C08C807C22E3D
:102D5C00831203131E0883160313BC003C08831252
:102D6C000313EE0001300A168A11BD250A168A11CA
:102D7C00013083160313C802831203130C130030A3
:102D8C0083160313C7000030C6000030C5000030A6
:102D9C00C400403083120313DC00A030DB00003091
:102DAC00DA000030D9004330C2007F30C10000305F
:102DBC00C0000030BF006F0883160313BC00BD01B8
:102DCC00BE01BF013F0883120313B4008316031323
:102DDC003E0883120313B300831603133D088312BA
:102DEC000313B200831603133C0883120313B100C0
:102DFC0001300A128A157A200A168A1183120313DB
:102E0C003408C6003308C5003208C4003108C300BA
:102E1C000A128A117F250A168A118312031342089B
:102E2C00E0004108DF004008DE003F08DD000A1228
:102E3C008A1120200A168A11831203135C08831648
:102E4C000313C700831203135B0883160313C60016
:102E5C00831203135A0883160313C500831203133A
:102E6C00590883160313C400470883120313E9009F
:102E7C0083160313460883120313E8008316031307
:102E8C00450883120313E7008316031344088312C7
:102E9C000313E6000230EA000030EB00D3300A12D4
:102EAC008A15BE230A168A11403083120313DC00E4
:102EBC00A030DB000030DA000030D9004330C20013
:102ECC007F30C1000030C0000030BF006E08831698
:102EDC000313BC00BD01BE01BF013F0883120313E5
:102EEC00B400831603133E0883120313B300831636
:102EFC0003133D0883120313B200831603133C081B
:102F0C0083120313B10001300A128A157A200A16B3
:102F1C008A11831203133408C6003308C500320823
:102F2C00C4003108C3000A128A117F250A168A11BF
:102F3C00831203134208E0004108DF004008DE0062
:102F4C003F08DD000A128A1120200A168A1183120A
:102F5C0003135C0883160313C300831203135B086B
:102F6C0083160313C200831203135A088316031328
:102F7C00C10083120313590883160313C0004308BE
:102F8C0083120313E90083160313420883120313FD
:102F9C00E80083160313410883120313E70083161A
:102FAC000313400883120313E6000230EA000030DA
:102FBC00EB00C9300A128A15BE230A168A11013099
:102FCC0083160313BC003C088312031386070330DB
:102FDC0083160313BE000830BD007630BC00BC0B5A
:102FEC00F52FBD0BF52FBE0BF52F00008A2E0A1204
:042FFC008A110C2802
:04400E00C420FF3F8C
:00000001FF
