:060000000A128A110E280D
:10000800FE00030EF3000408F4000A08F5000A12C3
:100018008A1118280A128A111128F701F801F90122
:1000280083010A128A11AF28831203138C1D1D281D
:100038001E2848280A128A11F6200A128A11F1008D
:100048007108F600352878080A128A1106210A1262
:100058008A11452877080A128A1106210A128A117C
:1000680045287608F100F2017208003A03193D2884
:1000780045287108013A03192728033A03192E283D
:100088004528831203138C110C1F4B284C285F281A
:100098001F0CF100710C0F39003A031D5428552824
:1000A8005A281E08F1007108F8005E281E08F100A1
:1000B8007108F7000C1375088A0074088400730E21
:1000C8008300FE0E7E0E0900033083160317880096
:1000D8008901033083160313850086018801831282
:1000E80003138601880183160313851683120313ED
:1000F800A001A101A20124300A128A11D8200A12F3
:100108008A11831603130F178F160F160F148B17E8
:100118000B170C178C15831203130C138C118316F1
:1001280003139F131F129F12831203139F17C330C9
:100138009F05843083120313A400A40BA128000098
:10014800831203131F14843083120313A400A40B17
:10015800AB28000008000A128A1168200A128A11C6
:10016800831203139F18B928BA28B4281F0CA500B6
:10017800250C0F39003A031DC228C328C8281F08B8
:10018800C33904389F00CA28C3309F0584308312BE
:100198000313A500A50BCE280000831203139F1498
:1001A800B4280A128A110E2883120313A300831697
:1001B8000313871283120313231DE328E428EA2874
:1001C80022088316031394008715F02820082204B8
:1001D8008316031394008711831203132308210441
:1001E800940008000A128A11FF200A128A11831249
:1001F80003131308080083160313141C0429052984
:10020800FF280800F0007008831203139300080009
:04400E00C420FF3F8C
:00000001FF
