:060000000A128A110E280D
:10000800FE00030EF3000408F4000A08F5000A12C3
:100018008A11432A0A128A111128F701F801F901F5
:10002800FA01FB01FC0183132030840039300A12E5
:100038008A11CD220A128A1183010A128A11F12922
:1000480083120313BB0078281F119F111F129F12E0
:10005800B2281F159F111F129F12B2281F119F153A
:100068001F129F12B2281F159F151F129F12B22828
:100078001F119F111F169F12B2281F159F111F16BF
:100088009F12B2281F119F151F169F12B2281F1505
:100098009F151F169F12B2281F119F111F129F161E
:1000A800B2281F159F111F129F16B2281F119F15E6
:1000B8001F129F16B2281F159F151F129F16B228D0
:1000C8001F119F111F169F16B2281F159F111F166B
:1000D8009F16B2281F119F151F169F16B2281F15AD
:1000E8009F151F169F16B2283B08B900BA013A0897
:1000F800003A03198028B2283908003A0319282839
:10010800013A03192D28033A03193228013A031931
:100118003728073A03193C28013A03194128033ABA
:1001280003194628013A03194B280F3A0319502896
:10013800013A03195528033A03195A28013A0319B1
:100148005F28073A03196428013A03196928033A12
:1001580003196E28013A03197328B22884308312D0
:100168000313B900B90BB6280000831203139F14B8
:10017800080083120313BB00F92883160317081419
:100188002D298316031788142D298316031708159C
:100198002D298316031788152D298316031708168A
:1001A8002D298316031788162D2983160317081778
:1001B8002D298316031788172D2983160317091469
:1001C8002D298316031789142D298316031709155A
:1001D8002D298316031789152D2983160317091648
:1001E8002D298316031789162D293B08B900BA0152
:1001F8003A08003A031901292D293908003A031948
:10020800C128013A0319C528033A0319C928013A34
:100218000319CD28073A0319D128013A0319D5281B
:10022800033A0319D928013A0319DD280F3A0319AB
:10023800E128013A0319E528033A0319E928013AA4
:100248000319ED28073A0319F128013A0319F5288B
:100258002D29080083120313BE001F143F291F1302
:100268009F1355291F179F1355291F139F1755298A
:100278001F179F1755293E08BC00BD013D08003ACD
:100288000319472955293C08013A03193329033A28
:1002980003193629013A03193929073A03193C2960
:1002A80055293903031D59295A296029831603132F
:1002B8000C17831203130C133B08031D64296529CB
:1002C8006929831603139F138129831603139F1724
:1002D8008129831603131F129F129929831603136A
:1002E8001F169F129929831603131F129F16992907
:1002F800831603131F169F169929831203133A08AE
:10030800BC00BD013D08003A03198B2999293C0816
:10031800003A03196D29013A03197229033A03199E
:100328007729013A03197C299929080083120313B4
:10033800BB00D0298F30831603138F05EF2983164E
:1003480003130F088F3910388F00EF298F30831669
:1003580003138F05EF29831603130F088F391038FD
:100368008F00EF29831603130F088F3940388F0049
:10037800EF29831603130F088F3950388F00EF29A0
:100388007030831603138F04EF29831603130F08A5
:100398008F3960388F00EF293B08B900BA013A0855
:1003A800003A0319D829C9293908003A03199E299E
:1003B800013A0319A329033A0319AA29013A03198F
:1003C800AF29073A0319B629013A0319BD29023A98
:1003D8000319C429C9290F1408000A128A117C229A
:1003E8000A128A1183120313B901B90ABA01BB01AF
:1003F80002300A128A112E210A128A1100300A12BA
:100408008A11BD200A128A1101300A128A11BD20F0
:100418000A128A1100300A128A1124200A128A113B
:10042800831203130C1F192A1A2A142A3808031DC9
:100438001E2A1F2A302A1E08BF003F08FC00003071
:100448000A128A1124200A128A1101308312031316
:10045800BF003F08B8073E2A1E08BF003F08FB0040
:1004680001300A128A1124200A128A1101308312DB
:100478000313B8020C13142A0A128A110E288312C5
:1004880003138C1D482A492A732A0A128A11C42286
:100498000A128A11F1007108F600602A7C080A1213
:1004A8008A11DC220A128A11702A7B080A128A1120
:1004B800DC220A128A11702A7608F100F201720809
:1004C800003A0319682A702A7108013A0319522A56
:1004D800033A0319592A702A831203138C117508D9
:1004E8008A0074088400730E8300FE0E7E0E0900D5
:1004F8000330831603178800890183160313051434
:100508008514860188018312031386018801073048
:100518000A128A119A210A128A118B170B17831251
:1005280003138C11831603138C158516831203137A
:10053800B901BA01BB0124300A128A11A6220A1293
:100548008A11080083120313BC0083160313871251
:10055800831203133C1DB12AB22AB82A3B0883161A
:10056800031394008715BE2A39083B048316031326
:1005780094008711831203133C083A04940008007E
:100588000A128A11D5220A128A1183120313130838
:10059800080064008001840A040603190034040674
:1005A800CE2A83160313141CDA2ADB2AD52A08005C
:0C05B800F0007008831203139300080089
:04400E00C420FF3F8C
:00000001FF
