:060000000A128A110C280F
:10000800FE00030EF6000A08F7000A128A111828E3
:100018000A128A110F28F001F101F201F301F4012B
:1000280083010A128A11DA28831203138C1D1D28F2
:100038001E2897281412141B222823282728941FC7
:10004800262827282E281308F5007508F40014130D
:100058009413141683160313941A33283428522839
:100068001419372838285228831203131308F50067
:100078007508F4008C11141683160313141C4528F4
:1000880046284028831203131308F5007508F10069
:10009800A630F500F50B4E2800007328941A552851
:1000A80056287328141D59285A28732883120313B5
:1000B8001308F5007508F40083160313141070086C
:1000C8008312031393001416A630F500F50B6A2863
:1000D8000000831603131418722873286D288312DE
:1000E80003138C110B1C79287A289728061C7D2865
:1000F8007E2889280130F5007508F00770080F3947
:10010800F5007508F00070088500861C8C288D287D
:1001180096280130F00270080F39F5007508F000D4
:10012800700885000B1077088A00760E8300FE0E93
:100138007E0E0900831603178801890183160313AD
:100148008501033086008801831203138501860127
:100158008801831603130F178F160F160F148B17AA
:100168000B178B150B101614961460300A128A118F
:10017800C0200A128A110800F800780883160313B1
:1001880093003630831203139400803083160313D0
:10019800940001309100871507168B170B178312EF
:1001A80003138C11831603138C1508000A128A1185
:0E01B8009E200A128A11DF280A128A110C28D2
:04400E00D420FF3F7C
:00000001FF
